{
	"ownable.sol": {
		"Ownable": {
			"abi": [
				{
					"inputs": [],
					"stateMutability": "nonpayable",
					"type": "constructor"
				},
				{
					"stateMutability": "payable",
					"type": "fallback"
				},
				{
					"inputs": [
						{
							"internalType": "address",
							"name": "bigBank",
							"type": "address"
						}
					],
					"name": "callLogPerson",
					"outputs": [],
					"stateMutability": "nonpayable",
					"type": "function"
				},
				{
					"inputs": [
						{
							"internalType": "contract Bank",
							"name": "bank",
							"type": "address"
						}
					],
					"name": "withdrawFromBank",
					"outputs": [],
					"stateMutability": "nonpayable",
					"type": "function"
				},
				{
					"inputs": [],
					"name": "withdrawToOwner",
					"outputs": [],
					"stateMutability": "nonpayable",
					"type": "function"
				},
				{
					"stateMutability": "payable",
					"type": "receive"
				}
			],
			"devdoc": {
				"kind": "dev",
				"methods": {},
				"version": 1
			},
			"evm": {
				"assembly": "    /* \"ownable.sol\":150:1013  contract Ownable {... */\n  mstore(0x40, 0xa0)\n    /* \"ownable.sol\":219:277  constructor() {... */\n  callvalue\n  dup1\n  iszero\n  tag_1\n  jumpi\n  0x00\n  dup1\n  revert\ntag_1:\n  pop\n    /* \"ownable.sol\":259:269  msg.sender */\n  caller\n    /* \"ownable.sol\":243:270  owner = payable(msg.sender) */\n  0x80\n  mstore\n    /* \"ownable.sol\":150:1013  contract Ownable {... */\n  mload(0x80)\n  codecopy(0x00, dataOffset(sub_0), dataSize(sub_0))\n  0x00\n  assignImmutable(\"0xba463f38d2d1b6be660b783eceb51b835e336e7e2844402930bc83b58866cf56\")\n  return(0x00, dataSize(sub_0))\nstop\n\nsub_0: assembly {\n        /* \"ownable.sol\":150:1013  contract Ownable {... */\n      mstore(0x40, 0x80)\n      jumpi(tag_1, lt(calldatasize, 0x04))\n      shr(0xe0, calldataload(0x00))\n      dup1\n      0x3cb40e16\n      eq\n      tag_3\n      jumpi\n      dup1\n      0x5c79676a\n      eq\n      tag_4\n      jumpi\n      dup1\n      0xeac11aba\n      eq\n      tag_5\n      jumpi\n      stop\n    tag_1:\n      jumpi(tag_2, calldatasize)\n      stop\n    tag_2:\n      stop\n        /* \"ownable.sol\":365:631  function withdrawToOwner() public {... */\n    tag_3:\n      callvalue\n      dup1\n      iszero\n      tag_10\n      jumpi\n      0x00\n      dup1\n      revert\n    tag_10:\n      pop\n      tag_2\n      tag_12\n      jump\t// in\n        /* \"ownable.sol\":283:359  function withdrawFromBank(Bank bank) public {... */\n    tag_4:\n      callvalue\n      dup1\n      iszero\n      tag_13\n      jumpi\n      0x00\n      dup1\n      revert\n    tag_13:\n      pop\n      tag_2\n      tag_15\n      calldatasize\n      0x04\n      tag_16\n      jump\t// in\n    tag_15:\n      tag_17\n      jump\t// in\n        /* \"ownable.sol\":643:886  function callLogPerson(address bigBank) public {... */\n    tag_5:\n      callvalue\n      dup1\n      iszero\n      tag_18\n      jumpi\n      0x00\n      dup1\n      revert\n    tag_18:\n      pop\n      tag_2\n      tag_20\n      calldatasize\n      0x04\n      tag_16\n      jump\t// in\n    tag_20:\n      tag_22\n      jump\t// in\n        /* \"ownable.sol\":365:631  function withdrawToOwner() public {... */\n    tag_12:\n        /* \"ownable.sol\":424:445  address(this).balance */\n      selfbalance\n        /* \"ownable.sol\":463:474  balance > 0 */\n      dup1\n        /* \"ownable.sol\":455:509  require(balance > 0, \"No balance remains to withdraw\") */\n      tag_24\n      jumpi\n      mload(0x40)\n      shl(0xe5, 0x461bcd)\n      dup2\n      mstore\n        /* \"#utility.yul\":886:888   */\n      0x20\n        /* \"ownable.sol\":455:509  require(balance > 0, \"No balance remains to withdraw\") */\n      0x04\n      dup3\n      add\n        /* \"#utility.yul\":868:889   */\n      mstore\n        /* \"#utility.yul\":925:927   */\n      0x1e\n        /* \"#utility.yul\":905:923   */\n      0x24\n      dup3\n      add\n        /* \"#utility.yul\":898:928   */\n      mstore\n        /* \"#utility.yul\":964:996   */\n      0x4e6f2062616c616e63652072656d61696e7320746f2077697468647261770000\n        /* \"#utility.yul\":944:962   */\n      0x44\n      dup3\n      add\n        /* \"#utility.yul\":937:997   */\n      mstore\n        /* \"#utility.yul\":1014:1032   */\n      0x64\n      add\n        /* \"ownable.sol\":455:509  require(balance > 0, \"No balance remains to withdraw\") */\n    tag_25:\n      mload(0x40)\n      dup1\n      swap2\n      sub\n      swap1\n      revert\n    tag_24:\n        /* \"ownable.sol\":520:532  bool success */\n      0x00\n        /* \"ownable.sol\":537:542  owner */\n      immutable(\"0xba463f38d2d1b6be660b783eceb51b835e336e7e2844402930bc83b58866cf56\")\n      sub(shl(0xa0, 0x01), 0x01)\n        /* \"ownable.sol\":537:547  owner.call */\n      and\n        /* \"ownable.sol\":555:562  balance */\n      dup3\n        /* \"ownable.sol\":537:567  owner.call{value: balance}(\"\") */\n      mload(0x40)\n      0x00\n      mload(0x40)\n      dup1\n      dup4\n      sub\n      dup2\n      dup6\n      dup8\n      gas\n      call\n      swap3\n      pop\n      pop\n      pop\n      returndatasize\n      dup1\n      0x00\n      dup2\n      eq\n      tag_31\n      jumpi\n      mload(0x40)\n      swap2\n      pop\n      and(add(returndatasize, 0x3f), not(0x1f))\n      dup3\n      add\n      0x40\n      mstore\n      returndatasize\n      dup3\n      mstore\n      returndatasize\n      0x00\n      0x20\n      dup5\n      add\n      returndatacopy\n      jump(tag_30)\n    tag_31:\n      0x60\n      swap2\n      pop\n    tag_30:\n      pop\n        /* \"ownable.sol\":519:567  (bool success,) = owner.call{value: balance}(\"\") */\n      pop\n      swap1\n      pop\n        /* \"ownable.sol\":585:592  success */\n      dup1\n        /* \"ownable.sol\":577:624  require(success, \"Failed to withdraw to owner\") */\n      tag_32\n      jumpi\n      mload(0x40)\n      shl(0xe5, 0x461bcd)\n      dup2\n      mstore\n        /* \"#utility.yul\":1455:1457   */\n      0x20\n        /* \"ownable.sol\":577:624  require(success, \"Failed to withdraw to owner\") */\n      0x04\n      dup3\n      add\n        /* \"#utility.yul\":1437:1458   */\n      mstore\n        /* \"#utility.yul\":1494:1496   */\n      0x1b\n        /* \"#utility.yul\":1474:1492   */\n      0x24\n      dup3\n      add\n        /* \"#utility.yul\":1467:1497   */\n      mstore\n        /* \"#utility.yul\":1533:1562   */\n      0x4661696c656420746f20776974686472617720746f206f776e65720000000000\n        /* \"#utility.yul\":1513:1531   */\n      0x44\n      dup3\n      add\n        /* \"#utility.yul\":1506:1563   */\n      mstore\n        /* \"#utility.yul\":1580:1598   */\n      0x64\n      add\n        /* \"ownable.sol\":577:624  require(success, \"Failed to withdraw to owner\") */\n      tag_25\n        /* \"#utility.yul\":1253:1604   */\n      jump\n        /* \"ownable.sol\":577:624  require(success, \"Failed to withdraw to owner\") */\n    tag_32:\n        /* \"ownable.sol\":399:631  {... */\n      pop\n      pop\n        /* \"ownable.sol\":365:631  function withdrawToOwner() public {... */\n      jump\t// out\n        /* \"ownable.sol\":283:359  function withdrawFromBank(Bank bank) public {... */\n    tag_17:\n        /* \"ownable.sol\":337:341  bank */\n      dup1\n      sub(shl(0xa0, 0x01), 0x01)\n        /* \"ownable.sol\":337:350  bank.withdraw */\n      and\n      0x3ccfd60b\n        /* \"ownable.sol\":337:352  bank.withdraw() */\n      mload(0x40)\n      dup2\n      0xffffffff\n      and\n      0xe0\n      shl\n      dup2\n      mstore\n      0x04\n      add\n      0x00\n      mload(0x40)\n      dup1\n      dup4\n      sub\n      dup2\n      0x00\n      dup8\n      dup1\n      extcodesize\n      iszero\n      dup1\n      iszero\n      tag_36\n      jumpi\n      0x00\n      dup1\n      revert\n    tag_36:\n      pop\n      gas\n      call\n      iszero\n      dup1\n      iszero\n      tag_38\n      jumpi\n      returndatasize\n      0x00\n      dup1\n      returndatacopy\n      revert(0x00, returndatasize)\n    tag_38:\n      pop\n      pop\n      pop\n      pop\n        /* \"ownable.sol\":283:359  function withdrawFromBank(Bank bank) public {... */\n      pop\n      jump\t// out\n        /* \"ownable.sol\":643:886  function callLogPerson(address bigBank) public {... */\n    tag_22:\n        /* \"ownable.sol\":718:738  Person(\"eqweq\", 123) */\n      0x40\n      dup1\n      mload\n      0x80\n      dup2\n      add\n      dup3\n      mstore\n      0x05\n      dup2\n      dup4\n      add\n      swap1\n      dup2\n      mstore\n      shl(0xd8, 0x6571776571)\n      0x60\n      dup4\n      add\n      mstore\n      dup2\n      mstore\n        /* \"ownable.sol\":734:737  123 */\n      0x7b\n        /* \"ownable.sol\":718:738  Person(\"eqweq\", 123) */\n      0x20\n      dup3\n      add\n      mstore\n        /* \"ownable.sol\":779:838  abi.encodeWithSignature(\"printPerson((string,uint256))\", p) */\n      swap1\n      mload\n        /* \"ownable.sol\":700:715  Person memory p */\n      0x00\n      swap1\n      sub(shl(0xa0, 0x01), 0x01)\n        /* \"ownable.sol\":766:778  bigBank.call */\n      dup5\n      and\n      swap1\n        /* \"ownable.sol\":779:838  abi.encodeWithSignature(\"printPerson((string,uint256))\", p) */\n      tag_40\n      swap1\n        /* \"ownable.sol\":718:738  Person(\"eqweq\", 123) */\n      dup5\n      swap1\n        /* \"ownable.sol\":779:838  abi.encodeWithSignature(\"printPerson((string,uint256))\", p) */\n      0x24\n      add\n      tag_41\n      jump\t// in\n    tag_40:\n      0x40\n      dup1\n      mload\n      not(0x1f)\n      dup2\n      dup5\n      sub\n      add\n      dup2\n      mstore\n      swap2\n      dup2\n      mstore\n      0x20\n      dup3\n      add\n      dup1\n      mload\n      sub(shl(0xe0, 0x01), 0x01)\n      and\n      shl(0xe0, 0xdff3ef03)\n      or\n      swap1\n      mstore\n        /* \"ownable.sol\":766:839  bigBank.call(abi.encodeWithSignature(\"printPerson((string,uint256))\", p)) */\n      mload\n      tag_42\n      swap2\n        /* \"ownable.sol\":779:838  abi.encodeWithSignature(\"printPerson((string,uint256))\", p) */\n      swap1\n        /* \"ownable.sol\":766:839  bigBank.call(abi.encodeWithSignature(\"printPerson((string,uint256))\", p)) */\n      tag_43\n      jump\t// in\n    tag_42:\n      0x00\n      mload(0x40)\n      dup1\n      dup4\n      sub\n      dup2\n      0x00\n      dup7\n      gas\n      call\n      swap2\n      pop\n      pop\n      returndatasize\n      dup1\n      0x00\n      dup2\n      eq\n      tag_46\n      jumpi\n      mload(0x40)\n      swap2\n      pop\n      and(add(returndatasize, 0x3f), not(0x1f))\n      dup3\n      add\n      0x40\n      mstore\n      returndatasize\n      dup3\n      mstore\n      returndatasize\n      0x00\n      0x20\n      dup5\n      add\n      returndatacopy\n      jump(tag_45)\n    tag_46:\n      0x60\n      swap2\n      pop\n    tag_45:\n      pop\n        /* \"ownable.sol\":748:839  (bool success,) = bigBank.call(abi.encodeWithSignature(\"printPerson((string,uint256))\", p)) */\n      pop\n      swap1\n      pop\n        /* \"ownable.sol\":857:864  success */\n      dup1\n        /* \"ownable.sol\":849:879  require(success, \"call error\") */\n      tag_47\n      jumpi\n      mload(0x40)\n      shl(0xe5, 0x461bcd)\n      dup2\n      mstore\n        /* \"#utility.yul\":2725:2727   */\n      0x20\n        /* \"ownable.sol\":849:879  require(success, \"call error\") */\n      0x04\n      dup3\n      add\n        /* \"#utility.yul\":2707:2728   */\n      mstore\n        /* \"#utility.yul\":2764:2766   */\n      0x0a\n        /* \"#utility.yul\":2744:2762   */\n      0x24\n      dup3\n      add\n        /* \"#utility.yul\":2737:2767   */\n      mstore\n      shl(0xb1, 0x31b0b6361032b93937b9)\n        /* \"#utility.yul\":2783:2801   */\n      0x44\n      dup3\n      add\n        /* \"#utility.yul\":2776:2816   */\n      mstore\n        /* \"#utility.yul\":2833:2851   */\n      0x64\n      add\n        /* \"ownable.sol\":849:879  require(success, \"call error\") */\n      tag_25\n        /* \"#utility.yul\":2523:2857   */\n      jump\n        /* \"ownable.sol\":849:879  require(success, \"call error\") */\n    tag_47:\n        /* \"ownable.sol\":690:886  {... */\n      pop\n      pop\n        /* \"ownable.sol\":643:886  function callLogPerson(address bigBank) public {... */\n      pop\n      jump\t// out\n        /* \"#utility.yul\":14:151   */\n    tag_50:\n      sub(shl(0xa0, 0x01), 0x01)\n        /* \"#utility.yul\":95:126   */\n      dup2\n      and\n        /* \"#utility.yul\":85:127   */\n      dup2\n      eq\n        /* \"#utility.yul\":75:145   */\n      tag_53\n      jumpi\n        /* \"#utility.yul\":141:142   */\n      0x00\n        /* \"#utility.yul\":138:139   */\n      dup1\n        /* \"#utility.yul\":131:143   */\n      revert\n        /* \"#utility.yul\":75:145   */\n    tag_53:\n        /* \"#utility.yul\":14:151   */\n      pop\n      jump\t// out\n        /* \"#utility.yul\":156:421   */\n    tag_16:\n        /* \"#utility.yul\":227:233   */\n      0x00\n        /* \"#utility.yul\":280:282   */\n      0x20\n        /* \"#utility.yul\":268:277   */\n      dup3\n        /* \"#utility.yul\":259:266   */\n      dup5\n        /* \"#utility.yul\":255:278   */\n      sub\n        /* \"#utility.yul\":251:283   */\n      slt\n        /* \"#utility.yul\":248:300   */\n      iszero\n      tag_55\n      jumpi\n        /* \"#utility.yul\":296:297   */\n      0x00\n        /* \"#utility.yul\":293:294   */\n      dup1\n        /* \"#utility.yul\":286:298   */\n      revert\n        /* \"#utility.yul\":248:300   */\n    tag_55:\n        /* \"#utility.yul\":335:344   */\n      dup2\n        /* \"#utility.yul\":322:345   */\n      calldataload\n        /* \"#utility.yul\":354:391   */\n      tag_56\n        /* \"#utility.yul\":385:390   */\n      dup2\n        /* \"#utility.yul\":354:391   */\n      tag_50\n      jump\t// in\n    tag_56:\n        /* \"#utility.yul\":410:415   */\n      swap4\n        /* \"#utility.yul\":156:421   */\n      swap3\n      pop\n      pop\n      pop\n      jump\t// out\n        /* \"#utility.yul\":1609:2212   */\n    tag_41:\n        /* \"#utility.yul\":1784:1786   */\n      0x20\n        /* \"#utility.yul\":1773:1782   */\n      dup2\n        /* \"#utility.yul\":1766:1787   */\n      mstore\n        /* \"#utility.yul\":1747:1751   */\n      0x00\n        /* \"#utility.yul\":1822:1828   */\n      dup3\n        /* \"#utility.yul\":1816:1829   */\n      mload\n        /* \"#utility.yul\":1865:1869   */\n      0x40\n        /* \"#utility.yul\":1860:1862   */\n      0x20\n        /* \"#utility.yul\":1849:1858   */\n      dup5\n        /* \"#utility.yul\":1845:1863   */\n      add\n        /* \"#utility.yul\":1838:1870   */\n      mstore\n        /* \"#utility.yul\":1899:1911   */\n      dup1\n        /* \"#utility.yul\":1893:1912   */\n      mload\n        /* \"#utility.yul\":1948:1954   */\n      dup1\n        /* \"#utility.yul\":1943:1945   */\n      0x60\n        /* \"#utility.yul\":1932:1941   */\n      dup6\n        /* \"#utility.yul\":1928:1946   */\n      add\n        /* \"#utility.yul\":1921:1955   */\n      mstore\n        /* \"#utility.yul\":2014:2020   */\n      dup1\n        /* \"#utility.yul\":2009:2011   */\n      0x20\n        /* \"#utility.yul\":1995:2007   */\n      dup4\n        /* \"#utility.yul\":1991:2012   */\n      add\n        /* \"#utility.yul\":1985:1988   */\n      0x80\n        /* \"#utility.yul\":1974:1983   */\n      dup7\n        /* \"#utility.yul\":1970:1989   */\n      add\n        /* \"#utility.yul\":1964:2021   */\n      mcopy\n        /* \"#utility.yul\":2071:2072   */\n      0x00\n        /* \"#utility.yul\":2065:2068   */\n      0x80\n        /* \"#utility.yul\":2056:2062   */\n      dup3\n        /* \"#utility.yul\":2045:2054   */\n      dup7\n        /* \"#utility.yul\":2041:2063   */\n      add\n        /* \"#utility.yul\":2037:2069   */\n      add\n        /* \"#utility.yul\":2030:2073   */\n      mstore\n        /* \"#utility.yul\":2129:2131   */\n      0x20\n        /* \"#utility.yul\":2121:2127   */\n      dup6\n        /* \"#utility.yul\":2117:2132   */\n      add\n        /* \"#utility.yul\":2111:2133   */\n      mload\n        /* \"#utility.yul\":2104:2108   */\n      0x40\n        /* \"#utility.yul\":2093:2102   */\n      dup6\n        /* \"#utility.yul\":2089:2109   */\n      add\n        /* \"#utility.yul\":2082:2134   */\n      mstore\n        /* \"#utility.yul\":2202:2205   */\n      0x80\n        /* \"#utility.yul\":2195:2197   */\n      0x1f\n        /* \"#utility.yul\":2191:2198   */\n      not\n        /* \"#utility.yul\":2186:2188   */\n      0x1f\n        /* \"#utility.yul\":2178:2184   */\n      dup4\n        /* \"#utility.yul\":2174:2189   */\n      add\n        /* \"#utility.yul\":2170:2199   */\n      and\n        /* \"#utility.yul\":2159:2168   */\n      dup6\n        /* \"#utility.yul\":2155:2200   */\n      add\n        /* \"#utility.yul\":2151:2206   */\n      add\n        /* \"#utility.yul\":2143:2206   */\n      swap3\n      pop\n      pop\n      pop\n        /* \"#utility.yul\":1609:2212   */\n      swap3\n      swap2\n      pop\n      pop\n      jump\t// out\n        /* \"#utility.yul\":2217:2518   */\n    tag_43:\n        /* \"#utility.yul\":2346:2349   */\n      0x00\n        /* \"#utility.yul\":2384:2390   */\n      dup3\n        /* \"#utility.yul\":2378:2391   */\n      mload\n        /* \"#utility.yul\":2430:2436   */\n      dup1\n        /* \"#utility.yul\":2423:2427   */\n      0x20\n        /* \"#utility.yul\":2415:2421   */\n      dup6\n        /* \"#utility.yul\":2411:2428   */\n      add\n        /* \"#utility.yul\":2406:2409   */\n      dup5\n        /* \"#utility.yul\":2400:2437   */\n      mcopy\n        /* \"#utility.yul\":2492:2493   */\n      0x00\n        /* \"#utility.yul\":2456:2472   */\n      swap3\n      add\n        /* \"#utility.yul\":2481:2494   */\n      swap2\n      dup3\n      mstore\n      pop\n        /* \"#utility.yul\":2456:2472   */\n      swap2\n        /* \"#utility.yul\":2217:2518   */\n      swap1\n      pop\n      jump\t// out\n\n    auxdata: 0xa2646970667358221220a9977e2b3cc3643bc0e30197445304d5faff4731da6f11cdc14e30293e58af4564736f6c634300081a0033\n}\n",
				"bytecode": {
					"linkReferences": {},
					"object": "60a0604052348015600e575f80fd5b50336080526080516103c061002a5f395f60e501526103c05ff3fe608060405260043610610034575f3560e01c80633cb40e161461003d5780635c79676a14610051578063eac11aba1461007057005b3661003b57005b005b348015610048575f80fd5b5061003b61008f565b34801561005c575f80fd5b5061003b61006b366004610309565b6101a5565b34801561007b575f80fd5b5061003b61008a366004610309565b6101f6565b47806100e25760405162461bcd60e51b815260206004820152601e60248201527f4e6f2062616c616e63652072656d61696e7320746f207769746864726177000060448201526064015b60405180910390fd5b5f7f00000000000000000000000000000000000000000000000000000000000000006001600160a01b0316826040515f6040518083038185875af1925050503d805f811461014b576040519150601f19603f3d011682016040523d82523d5f602084013e610150565b606091505b50509050806101a15760405162461bcd60e51b815260206004820152601b60248201527f4661696c656420746f20776974686472617720746f206f776e6572000000000060448201526064016100d9565b5050565b806001600160a01b0316633ccfd60b6040518163ffffffff1660e01b81526004015f604051808303815f87803b1580156101dd575f80fd5b505af11580156101ef573d5f803e3d5ffd5b5050505050565b60408051608081018252600581830190815264657177657160d81b60608301528152607b602082015290515f906001600160a01b0384169061023c90849060240161032b565b60408051601f198184030181529181526020820180516001600160e01b031663dff3ef0360e01b179052516102719190610374565b5f604051808303815f865af19150503d805f81146102aa576040519150601f19603f3d011682016040523d82523d5f602084013e6102af565b606091505b50509050806102ed5760405162461bcd60e51b815260206004820152600a60248201526931b0b6361032b93937b960b11b60448201526064016100d9565b505050565b6001600160a01b0381168114610306575f80fd5b50565b5f60208284031215610319575f80fd5b8135610324816102f2565b9392505050565b602081525f82516040602084015280518060608501528060208301608086015e5f60808286010152602085015160408501526080601f19601f8301168501019250505092915050565b5f82518060208501845e5f92019182525091905056fea2646970667358221220a9977e2b3cc3643bc0e30197445304d5faff4731da6f11cdc14e30293e58af4564736f6c634300081a0033",
					"opcodes": "PUSH1 0xA0 PUSH1 0x40 MSTORE CALLVALUE DUP1 ISZERO PUSH1 0xE JUMPI PUSH0 DUP1 REVERT JUMPDEST POP CALLER PUSH1 0x80 MSTORE PUSH1 0x80 MLOAD PUSH2 0x3C0 PUSH2 0x2A PUSH0 CODECOPY PUSH0 PUSH1 0xE5 ADD MSTORE PUSH2 0x3C0 PUSH0 RETURN INVALID PUSH1 0x80 PUSH1 0x40 MSTORE PUSH1 0x4 CALLDATASIZE LT PUSH2 0x34 JUMPI PUSH0 CALLDATALOAD PUSH1 0xE0 SHR DUP1 PUSH4 0x3CB40E16 EQ PUSH2 0x3D JUMPI DUP1 PUSH4 0x5C79676A EQ PUSH2 0x51 JUMPI DUP1 PUSH4 0xEAC11ABA EQ PUSH2 0x70 JUMPI STOP JUMPDEST CALLDATASIZE PUSH2 0x3B JUMPI STOP JUMPDEST STOP JUMPDEST CALLVALUE DUP1 ISZERO PUSH2 0x48 JUMPI PUSH0 DUP1 REVERT JUMPDEST POP PUSH2 0x3B PUSH2 0x8F JUMP JUMPDEST CALLVALUE DUP1 ISZERO PUSH2 0x5C JUMPI PUSH0 DUP1 REVERT JUMPDEST POP PUSH2 0x3B PUSH2 0x6B CALLDATASIZE PUSH1 0x4 PUSH2 0x309 JUMP JUMPDEST PUSH2 0x1A5 JUMP JUMPDEST CALLVALUE DUP1 ISZERO PUSH2 0x7B JUMPI PUSH0 DUP1 REVERT JUMPDEST POP PUSH2 0x3B PUSH2 0x8A CALLDATASIZE PUSH1 0x4 PUSH2 0x309 JUMP JUMPDEST PUSH2 0x1F6 JUMP JUMPDEST SELFBALANCE DUP1 PUSH2 0xE2 JUMPI PUSH1 0x40 MLOAD PUSH3 0x461BCD PUSH1 0xE5 SHL DUP2 MSTORE PUSH1 0x20 PUSH1 0x4 DUP3 ADD MSTORE PUSH1 0x1E PUSH1 0x24 DUP3 ADD MSTORE PUSH32 0x4E6F2062616C616E63652072656D61696E7320746F2077697468647261770000 PUSH1 0x44 DUP3 ADD MSTORE PUSH1 0x64 ADD JUMPDEST PUSH1 0x40 MLOAD DUP1 SWAP2 SUB SWAP1 REVERT JUMPDEST PUSH0 PUSH32 0x0 PUSH1 0x1 PUSH1 0x1 PUSH1 0xA0 SHL SUB AND DUP3 PUSH1 0x40 MLOAD PUSH0 PUSH1 0x40 MLOAD DUP1 DUP4 SUB DUP2 DUP6 DUP8 GAS CALL SWAP3 POP POP POP RETURNDATASIZE DUP1 PUSH0 DUP2 EQ PUSH2 0x14B JUMPI PUSH1 0x40 MLOAD SWAP2 POP PUSH1 0x1F NOT PUSH1 0x3F RETURNDATASIZE ADD AND DUP3 ADD PUSH1 0x40 MSTORE RETURNDATASIZE DUP3 MSTORE RETURNDATASIZE PUSH0 PUSH1 0x20 DUP5 ADD RETURNDATACOPY PUSH2 0x150 JUMP JUMPDEST PUSH1 0x60 SWAP2 POP JUMPDEST POP POP SWAP1 POP DUP1 PUSH2 0x1A1 JUMPI PUSH1 0x40 MLOAD PUSH3 0x461BCD PUSH1 0xE5 SHL DUP2 MSTORE PUSH1 0x20 PUSH1 0x4 DUP3 ADD MSTORE PUSH1 0x1B PUSH1 0x24 DUP3 ADD MSTORE PUSH32 0x4661696C656420746F20776974686472617720746F206F776E65720000000000 PUSH1 0x44 DUP3 ADD MSTORE PUSH1 0x64 ADD PUSH2 0xD9 JUMP JUMPDEST POP POP JUMP JUMPDEST DUP1 PUSH1 0x1 PUSH1 0x1 PUSH1 0xA0 SHL SUB AND PUSH4 0x3CCFD60B PUSH1 0x40 MLOAD DUP2 PUSH4 0xFFFFFFFF AND PUSH1 0xE0 SHL DUP2 MSTORE PUSH1 0x4 ADD PUSH0 PUSH1 0x40 MLOAD DUP1 DUP4 SUB DUP2 PUSH0 DUP8 DUP1 EXTCODESIZE ISZERO DUP1 ISZERO PUSH2 0x1DD JUMPI PUSH0 DUP1 REVERT JUMPDEST POP GAS CALL ISZERO DUP1 ISZERO PUSH2 0x1EF JUMPI RETURNDATASIZE PUSH0 DUP1 RETURNDATACOPY RETURNDATASIZE PUSH0 REVERT JUMPDEST POP POP POP POP POP JUMP JUMPDEST PUSH1 0x40 DUP1 MLOAD PUSH1 0x80 DUP2 ADD DUP3 MSTORE PUSH1 0x5 DUP2 DUP4 ADD SWAP1 DUP2 MSTORE PUSH5 0x6571776571 PUSH1 0xD8 SHL PUSH1 0x60 DUP4 ADD MSTORE DUP2 MSTORE PUSH1 0x7B PUSH1 0x20 DUP3 ADD MSTORE SWAP1 MLOAD PUSH0 SWAP1 PUSH1 0x1 PUSH1 0x1 PUSH1 0xA0 SHL SUB DUP5 AND SWAP1 PUSH2 0x23C SWAP1 DUP5 SWAP1 PUSH1 0x24 ADD PUSH2 0x32B JUMP JUMPDEST PUSH1 0x40 DUP1 MLOAD PUSH1 0x1F NOT DUP2 DUP5 SUB ADD DUP2 MSTORE SWAP2 DUP2 MSTORE PUSH1 0x20 DUP3 ADD DUP1 MLOAD PUSH1 0x1 PUSH1 0x1 PUSH1 0xE0 SHL SUB AND PUSH4 0xDFF3EF03 PUSH1 0xE0 SHL OR SWAP1 MSTORE MLOAD PUSH2 0x271 SWAP2 SWAP1 PUSH2 0x374 JUMP JUMPDEST PUSH0 PUSH1 0x40 MLOAD DUP1 DUP4 SUB DUP2 PUSH0 DUP7 GAS CALL SWAP2 POP POP RETURNDATASIZE DUP1 PUSH0 DUP2 EQ PUSH2 0x2AA JUMPI PUSH1 0x40 MLOAD SWAP2 POP PUSH1 0x1F NOT PUSH1 0x3F RETURNDATASIZE ADD AND DUP3 ADD PUSH1 0x40 MSTORE RETURNDATASIZE DUP3 MSTORE RETURNDATASIZE PUSH0 PUSH1 0x20 DUP5 ADD RETURNDATACOPY PUSH2 0x2AF JUMP JUMPDEST PUSH1 0x60 SWAP2 POP JUMPDEST POP POP SWAP1 POP DUP1 PUSH2 0x2ED JUMPI PUSH1 0x40 MLOAD PUSH3 0x461BCD PUSH1 0xE5 SHL DUP2 MSTORE PUSH1 0x20 PUSH1 0x4 DUP3 ADD MSTORE PUSH1 0xA PUSH1 0x24 DUP3 ADD MSTORE PUSH10 0x31B0B6361032B93937B9 PUSH1 0xB1 SHL PUSH1 0x44 DUP3 ADD MSTORE PUSH1 0x64 ADD PUSH2 0xD9 JUMP JUMPDEST POP POP POP JUMP JUMPDEST PUSH1 0x1 PUSH1 0x1 PUSH1 0xA0 SHL SUB DUP2 AND DUP2 EQ PUSH2 0x306 JUMPI PUSH0 DUP1 REVERT JUMPDEST POP JUMP JUMPDEST PUSH0 PUSH1 0x20 DUP3 DUP5 SUB SLT ISZERO PUSH2 0x319 JUMPI PUSH0 DUP1 REVERT JUMPDEST DUP2 CALLDATALOAD PUSH2 0x324 DUP2 PUSH2 0x2F2 JUMP JUMPDEST SWAP4 SWAP3 POP POP POP JUMP JUMPDEST PUSH1 0x20 DUP2 MSTORE PUSH0 DUP3 MLOAD PUSH1 0x40 PUSH1 0x20 DUP5 ADD MSTORE DUP1 MLOAD DUP1 PUSH1 0x60 DUP6 ADD MSTORE DUP1 PUSH1 0x20 DUP4 ADD PUSH1 0x80 DUP7 ADD MCOPY PUSH0 PUSH1 0x80 DUP3 DUP7 ADD ADD MSTORE PUSH1 0x20 DUP6 ADD MLOAD PUSH1 0x40 DUP6 ADD MSTORE PUSH1 0x80 PUSH1 0x1F NOT PUSH1 0x1F DUP4 ADD AND DUP6 ADD ADD SWAP3 POP POP POP SWAP3 SWAP2 POP POP JUMP JUMPDEST PUSH0 DUP3 MLOAD DUP1 PUSH1 0x20 DUP6 ADD DUP5 MCOPY PUSH0 SWAP3 ADD SWAP2 DUP3 MSTORE POP SWAP2 SWAP1 POP JUMP INVALID LOG2 PUSH5 0x6970667358 0x22 SLT KECCAK256 0xA9 SWAP8 PUSH31 0x2B3CC3643BC0E30197445304D5FAFF4731DA6F11CDC14E30293E58AF456473 PUSH16 0x6C634300081A00330000000000000000 "
				},
				"gasEstimates": {
					"creation": {
						"codeDepositCost": "192000",
						"executionCost": "infinite",
						"totalCost": "infinite"
					},
					"external": {
						"": "116",
						"callLogPerson(address)": "infinite",
						"withdrawFromBank(address)": "infinite",
						"withdrawToOwner()": "infinite"
					}
				},
				"methodIdentifiers": {
					"callLogPerson(address)": "eac11aba",
					"withdrawFromBank(address)": "5c79676a",
					"withdrawToOwner()": "3cb40e16"
				}
			},
			"storageLayout": {
				"storage": [],
				"types": null
			},
			"userdoc": {
				"kind": "user",
				"methods": {},
				"version": 1
			}
		}
	}
}