{
	"big-bank.sol": {
		"BigBank": {
			"abi": [
				{
					"inputs": [
						{
							"internalType": "uint256",
							"name": "value",
							"type": "uint256"
						}
					],
					"name": "LowerThanMinimumDeposit",
					"type": "error"
				},
				{
					"inputs": [],
					"name": "OnlyAdministratorCanOperate",
					"type": "error"
				},
				{
					"anonymous": false,
					"inputs": [
						{
							"components": [
								{
									"internalType": "string",
									"name": "name",
									"type": "string"
								},
								{
									"internalType": "uint8",
									"name": "age",
									"type": "uint8"
								}
							],
							"indexed": false,
							"internalType": "struct Person",
							"name": "person",
							"type": "tuple"
						}
					],
					"name": "LogPerson",
					"type": "event"
				},
				{
					"stateMutability": "payable",
					"type": "fallback"
				},
				{
					"inputs": [
						{
							"internalType": "address",
							"name": "",
							"type": "address"
						}
					],
					"name": "deposits",
					"outputs": [
						{
							"internalType": "uint256",
							"name": "",
							"type": "uint256"
						}
					],
					"stateMutability": "view",
					"type": "function"
				},
				{
					"inputs": [
						{
							"components": [
								{
									"internalType": "string",
									"name": "name",
									"type": "string"
								},
								{
									"internalType": "uint8",
									"name": "age",
									"type": "uint8"
								}
							],
							"internalType": "struct Person",
							"name": "person",
							"type": "tuple"
						}
					],
					"name": "printPerson",
					"outputs": [],
					"stateMutability": "nonpayable",
					"type": "function"
				},
				{
					"inputs": [
						{
							"internalType": "uint256",
							"name": "",
							"type": "uint256"
						}
					],
					"name": "top3Whales",
					"outputs": [
						{
							"internalType": "address",
							"name": "",
							"type": "address"
						}
					],
					"stateMutability": "view",
					"type": "function"
				},
				{
					"inputs": [
						{
							"internalType": "address payable",
							"name": "newAdmin",
							"type": "address"
						}
					],
					"name": "transferAdmin",
					"outputs": [],
					"stateMutability": "nonpayable",
					"type": "function"
				},
				{
					"inputs": [],
					"name": "withdraw",
					"outputs": [],
					"stateMutability": "nonpayable",
					"type": "function"
				},
				{
					"stateMutability": "payable",
					"type": "receive"
				}
			],
			"devdoc": {
				"kind": "dev",
				"methods": {},
				"version": 1
			},
			"evm": {
				"assembly": "    /* \"big-bank.sol\":186:730  contract BigBank is Bank {... */\n  mstore(0x40, 0x80)\n  callvalue\n  dup1\n  iszero\n  tag_1\n  jumpi\n  0x00\n  dup1\n  revert\ntag_1:\n  pop\n    /* \"bank.sol\":396:401  admin */\n  0x04\n    /* \"bank.sol\":396:423  admin = payable(msg.sender) */\n  dup1\n  sload\n  not(sub(shl(0xa0, 0x01), 0x01))\n  and\n    /* \"bank.sol\":412:422  msg.sender */\n  caller\n    /* \"bank.sol\":396:423  admin = payable(msg.sender) */\n  or\n  swap1\n  sstore\n    /* \"big-bank.sol\":186:730  contract BigBank is Bank {... */\n  dataSize(sub_0)\n  dup1\n  dataOffset(sub_0)\n  0x00\n  codecopy\n  0x00\n  return\nstop\n\nsub_0: assembly {\n        /* \"big-bank.sol\":186:730  contract BigBank is Bank {... */\n      mstore(0x40, 0x80)\n      jumpi(tag_1, lt(calldatasize, 0x04))\n      shr(0xe0, calldataload(0x00))\n      dup1\n      0x10374309\n      eq\n      tag_3\n      jumpi\n      dup1\n      0x3ccfd60b\n      eq\n      tag_4\n      jumpi\n      dup1\n      0x75829def\n      eq\n      tag_5\n      jumpi\n      dup1\n      0xa3cc1e5f\n      eq\n      tag_6\n      jumpi\n      dup1\n      0xfc7e286d\n      eq\n      tag_7\n      jumpi\n      jump(tag_2)\n    tag_1:\n      jumpi(tag_2, calldatasize)\n        /* \"bank.sol\":1768:1788  depositFromMsgInfo() */\n      tag_10\n        /* \"bank.sol\":1768:1786  depositFromMsgInfo */\n      tag_11\n        /* \"bank.sol\":1768:1788  depositFromMsgInfo() */\n      jump\t// in\n    tag_10:\n        /* \"big-bank.sol\":186:730  contract BigBank is Bank {... */\n      stop\n    tag_2:\n        /* \"bank.sol\":1847:1867  depositFromMsgInfo() */\n      tag_10\n        /* \"bank.sol\":1847:1865  depositFromMsgInfo */\n      tag_11\n        /* \"bank.sol\":1847:1867  depositFromMsgInfo() */\n      jump\t// in\n        /* \"bank.sol\":161:189  address[3] public top3Whales */\n    tag_3:\n      callvalue\n      dup1\n      iszero\n      tag_15\n      jumpi\n      0x00\n      dup1\n      revert\n    tag_15:\n      pop\n      tag_16\n      tag_17\n      calldatasize\n      0x04\n      tag_18\n      jump\t// in\n    tag_17:\n      tag_19\n      jump\t// in\n    tag_16:\n      mload(0x40)\n      sub(shl(0xa0, 0x01), 0x01)\n        /* \"#utility.yul\":363:395   */\n      swap1\n      swap2\n      and\n        /* \"#utility.yul\":345:396   */\n      dup2\n      mstore\n        /* \"#utility.yul\":333:335   */\n      0x20\n        /* \"#utility.yul\":318:336   */\n      add\n        /* \"bank.sol\":161:189  address[3] public top3Whales */\n    tag_20:\n      mload(0x40)\n      dup1\n      swap2\n      sub\n      swap1\n      return\n        /* \"bank.sol\":436:737  function withdraw() public onlyOwner {... */\n    tag_4:\n      callvalue\n      dup1\n      iszero\n      tag_22\n      jumpi\n      0x00\n      dup1\n      revert\n    tag_22:\n      pop\n      tag_10\n      tag_24\n      jump\t// in\n        /* \"big-bank.sol\":505:604  function transferAdmin(address payable newAdmin) public onlyOwner {... */\n    tag_5:\n      callvalue\n      dup1\n      iszero\n      tag_25\n      jumpi\n      0x00\n      dup1\n      revert\n    tag_25:\n      pop\n      tag_10\n      tag_27\n      calldatasize\n      0x04\n      tag_28\n      jump\t// in\n    tag_27:\n      tag_29\n      jump\t// in\n        /* \"big-bank.sol\":408:499  function printPerson(Person calldata person) public {... */\n    tag_6:\n      callvalue\n      dup1\n      iszero\n      tag_30\n      jumpi\n      0x00\n      dup1\n      revert\n    tag_30:\n      pop\n      tag_10\n      tag_32\n      calldatasize\n      0x04\n      tag_33\n      jump\t// in\n    tag_32:\n      tag_34\n      jump\t// in\n        /* \"bank.sol\":115:155  mapping(address => uint) public deposits */\n    tag_7:\n      callvalue\n      dup1\n      iszero\n      tag_35\n      jumpi\n      0x00\n      dup1\n      revert\n    tag_35:\n      pop\n      tag_36\n      tag_37\n      calldatasize\n      0x04\n      tag_28\n      jump\t// in\n    tag_37:\n      0x00\n      0x20\n      dup2\n      swap1\n      mstore\n      swap1\n      dup2\n      mstore\n      0x40\n      swap1\n      keccak256\n      sload\n      dup2\n      jump\n    tag_36:\n      mload(0x40)\n        /* \"#utility.yul\":1614:1639   */\n      swap1\n      dup2\n      mstore\n        /* \"#utility.yul\":1602:1604   */\n      0x20\n        /* \"#utility.yul\":1587:1605   */\n      add\n        /* \"bank.sol\":115:155  mapping(address => uint) public deposits */\n      tag_20\n        /* \"#utility.yul\":1468:1645   */\n      jump\n        /* \"big-bank.sol\":610:728  function depositFromMsgInfo() internal minimumValue(0.0001 ether) override {... */\n    tag_11:\n        /* \"big-bank.sol\":662:674  0.0001 ether */\n      0x5af3107a4000\n        /* \"big-bank.sol\":279:284  value */\n      dup1\n        /* \"big-bank.sol\":266:275  msg.value */\n      callvalue\n        /* \"big-bank.sol\":266:284  msg.value <= value */\n      gt\n        /* \"big-bank.sol\":262:348  if (msg.value <= value) {... */\n      tag_43\n      jumpi\n        /* \"big-bank.sol\":307:337  LowerThanMinimumDeposit(value) */\n      mload(0x40)\n      shl(0xe1, 0x36a6b01f)\n      dup2\n      mstore\n      0x04\n      dup2\n      add\n        /* \"#utility.yul\":1614:1639   */\n      dup3\n      swap1\n      mstore\n        /* \"#utility.yul\":1587:1605   */\n      0x24\n      add\n        /* \"big-bank.sol\":307:337  LowerThanMinimumDeposit(value) */\n    tag_44:\n      mload(0x40)\n      dup1\n      swap2\n      sub\n      swap1\n      revert\n        /* \"big-bank.sol\":262:348  if (msg.value <= value) {... */\n    tag_43:\n        /* \"big-bank.sol\":695:721  super.depositFromMsgInfo() */\n      tag_46\n        /* \"big-bank.sol\":695:719  super.depositFromMsgInfo */\n      tag_47\n        /* \"big-bank.sol\":695:721  super.depositFromMsgInfo() */\n      jump\t// in\n    tag_46:\n        /* \"big-bank.sol\":610:728  function depositFromMsgInfo() internal minimumValue(0.0001 ether) override {... */\n      pop\n      jump\t// out\n        /* \"bank.sol\":161:189  address[3] public top3Whales */\n    tag_19:\n      0x01\n      dup2\n      0x03\n      dup2\n      lt\n      tag_48\n      jumpi\n      0x00\n      dup1\n      revert\n    tag_48:\n      add\n      sload\n      sub(shl(0xa0, 0x01), 0x01)\n      and\n      swap1\n      pop\n      dup2\n      jump\t// out\n        /* \"bank.sol\":436:737  function withdraw() public onlyOwner {... */\n    tag_24:\n        /* \"bank.sol\":281:286  admin */\n      and(sub(shl(0xa0, 0x01), 0x01), sload(0x04))\n        /* \"bank.sol\":267:277  msg.sender */\n      caller\n        /* \"bank.sol\":267:286  msg.sender != admin */\n      eq\n        /* \"bank.sol\":263:349  if (msg.sender != admin) {... */\n      tag_51\n      jumpi\n        /* \"bank.sol\":309:338  OnlyAdministratorCanOperate() */\n      mload(0x40)\n      shl(0xe2, 0x019dce79)\n      dup2\n      mstore\n      0x04\n      add\n      mload(0x40)\n      dup1\n      swap2\n      sub\n      swap1\n      revert\n        /* \"bank.sol\":263:349  if (msg.sender != admin) {... */\n    tag_51:\n        /* \"bank.sol\":506:527  address(this).balance */\n      selfbalance\n        /* \"bank.sol\":545:564  depositsBalance > 0 */\n      dup1\n        /* \"bank.sol\":537:599  require(depositsBalance > 0, \"No balance remains to withdraw\") */\n      tag_53\n      jumpi\n      mload(0x40)\n      shl(0xe5, 0x461bcd)\n      dup2\n      mstore\n        /* \"#utility.yul\":1852:1854   */\n      0x20\n        /* \"bank.sol\":537:599  require(depositsBalance > 0, \"No balance remains to withdraw\") */\n      0x04\n      dup3\n      add\n        /* \"#utility.yul\":1834:1855   */\n      mstore\n        /* \"#utility.yul\":1891:1893   */\n      0x1e\n        /* \"#utility.yul\":1871:1889   */\n      0x24\n      dup3\n      add\n        /* \"#utility.yul\":1864:1894   */\n      mstore\n        /* \"#utility.yul\":1930:1962   */\n      0x4e6f2062616c616e63652072656d61696e7320746f2077697468647261770000\n        /* \"#utility.yul\":1910:1928   */\n      0x44\n      dup3\n      add\n        /* \"#utility.yul\":1903:1963   */\n      mstore\n        /* \"#utility.yul\":1980:1998   */\n      0x64\n      add\n        /* \"bank.sol\":537:599  require(depositsBalance > 0, \"No balance remains to withdraw\") */\n      tag_44\n        /* \"#utility.yul\":1650:2004   */\n      jump\n        /* \"bank.sol\":537:599  require(depositsBalance > 0, \"No balance remains to withdraw\") */\n    tag_53:\n        /* \"bank.sol\":627:632  admin */\n      sload(0x04)\n        /* \"bank.sol\":627:665  admin.call{value: depositsBalance}(\"\") */\n      mload(0x40)\n        /* \"bank.sol\":610:622  bool success */\n      0x00\n      swap2\n      sub(shl(0xa0, 0x01), 0x01)\n        /* \"bank.sol\":627:632  admin */\n      and\n      swap1\n        /* \"bank.sol\":645:660  depositsBalance */\n      dup4\n      swap1\n        /* \"bank.sol\":610:622  bool success */\n      dup4\n        /* \"bank.sol\":627:665  admin.call{value: depositsBalance}(\"\") */\n      dup2\n        /* \"bank.sol\":610:622  bool success */\n      dup2\n        /* \"bank.sol\":627:665  admin.call{value: depositsBalance}(\"\") */\n      dup2\n        /* \"bank.sol\":645:660  depositsBalance */\n      dup6\n        /* \"bank.sol\":627:632  admin */\n      dup8\n        /* \"bank.sol\":627:665  admin.call{value: depositsBalance}(\"\") */\n      gas\n      call\n      swap3\n      pop\n      pop\n      pop\n      returndatasize\n      dup1\n      0x00\n      dup2\n      eq\n      tag_60\n      jumpi\n      mload(0x40)\n      swap2\n      pop\n      and(add(returndatasize, 0x3f), not(0x1f))\n      dup3\n      add\n      0x40\n      mstore\n      returndatasize\n      dup3\n      mstore\n      returndatasize\n      0x00\n      0x20\n      dup5\n      add\n      returndatacopy\n      jump(tag_59)\n    tag_60:\n      0x60\n      swap2\n      pop\n    tag_59:\n      pop\n        /* \"bank.sol\":609:665  (bool success,) = admin.call{value: depositsBalance}(\"\") */\n      pop\n      swap1\n      pop\n        /* \"bank.sol\":683:690  success */\n      dup1\n        /* \"bank.sol\":675:730  require(success, \"Failed to withdraw all the deposits\") */\n      tag_61\n      jumpi\n      mload(0x40)\n      shl(0xe5, 0x461bcd)\n      dup2\n      mstore\n        /* \"#utility.yul\":2421:2423   */\n      0x20\n        /* \"bank.sol\":675:730  require(success, \"Failed to withdraw all the deposits\") */\n      0x04\n      dup3\n      add\n        /* \"#utility.yul\":2403:2424   */\n      mstore\n        /* \"#utility.yul\":2460:2462   */\n      0x23\n        /* \"#utility.yul\":2440:2458   */\n      0x24\n      dup3\n      add\n        /* \"#utility.yul\":2433:2463   */\n      mstore\n        /* \"#utility.yul\":2499:2533   */\n      0x4661696c656420746f20776974686472617720616c6c20746865206465706f73\n        /* \"#utility.yul\":2479:2497   */\n      0x44\n      dup3\n      add\n        /* \"#utility.yul\":2472:2534   */\n      mstore\n      shl(0xe8, 0x697473)\n        /* \"#utility.yul\":2550:2568   */\n      0x64\n      dup3\n      add\n        /* \"#utility.yul\":2543:2576   */\n      mstore\n        /* \"#utility.yul\":2593:2612   */\n      0x84\n      add\n        /* \"bank.sol\":675:730  require(success, \"Failed to withdraw all the deposits\") */\n      tag_44\n        /* \"#utility.yul\":2219:2618   */\n      jump\n        /* \"bank.sol\":675:730  require(success, \"Failed to withdraw all the deposits\") */\n    tag_61:\n        /* \"bank.sol\":473:737  {... */\n      pop\n      pop\n        /* \"bank.sol\":436:737  function withdraw() public onlyOwner {... */\n      jump\t// out\n        /* \"big-bank.sol\":505:604  function transferAdmin(address payable newAdmin) public onlyOwner {... */\n    tag_29:\n        /* \"bank.sol\":281:286  admin */\n      and(sub(shl(0xa0, 0x01), 0x01), sload(0x04))\n        /* \"bank.sol\":267:277  msg.sender */\n      caller\n        /* \"bank.sol\":267:286  msg.sender != admin */\n      eq\n        /* \"bank.sol\":263:349  if (msg.sender != admin) {... */\n      tag_65\n      jumpi\n        /* \"bank.sol\":309:338  OnlyAdministratorCanOperate() */\n      mload(0x40)\n      shl(0xe2, 0x019dce79)\n      dup2\n      mstore\n      0x04\n      add\n      mload(0x40)\n      dup1\n      swap2\n      sub\n      swap1\n      revert\n        /* \"bank.sol\":263:349  if (msg.sender != admin) {... */\n    tag_65:\n        /* \"big-bank.sol\":581:586  admin */\n      0x04\n        /* \"big-bank.sol\":581:597  admin = newAdmin */\n      dup1\n      sload\n      not(sub(shl(0xa0, 0x01), 0x01))\n      and\n      sub(shl(0xa0, 0x01), 0x01)\n      swap3\n      swap1\n      swap3\n      and\n      swap2\n      swap1\n      swap2\n      or\n      swap1\n      sstore\n        /* \"big-bank.sol\":505:604  function transferAdmin(address payable newAdmin) public onlyOwner {... */\n      jump\t// out\n        /* \"big-bank.sol\":408:499  function printPerson(Person calldata person) public {... */\n    tag_34:\n        /* \"big-bank.sol\":475:492  LogPerson(person) */\n      0x490d6e10cbfd4896502639503091929dd114bf5e5dd56035a5152cab1b02b55f\n        /* \"big-bank.sol\":485:491  person */\n      dup2\n        /* \"big-bank.sol\":475:492  LogPerson(person) */\n      mload(0x40)\n      tag_68\n      swap2\n      swap1\n      tag_69\n      jump\t// in\n    tag_68:\n      mload(0x40)\n      dup1\n      swap2\n      sub\n      swap1\n      log1\n        /* \"big-bank.sol\":408:499  function printPerson(Person calldata person) public {... */\n      pop\n      jump\t// out\n        /* \"bank.sol\":1623:1717  function depositFromMsgInfo() internal virtual {... */\n    tag_47:\n        /* \"bank.sol\":1680:1710  deposit(msg.sender, msg.value) */\n      tag_71\n        /* \"bank.sol\":1688:1698  msg.sender */\n      caller\n        /* \"bank.sol\":1700:1709  msg.value */\n      callvalue\n        /* \"bank.sol\":1680:1687  deposit */\n      tag_72\n        /* \"bank.sol\":1680:1710  deposit(msg.sender, msg.value) */\n      jump\t// in\n    tag_71:\n        /* \"bank.sol\":1623:1717  function depositFromMsgInfo() internal virtual {... */\n      jump\t// out\n        /* \"bank.sol\":743:1617  function deposit(address account, uint amount) private {... */\n    tag_72:\n      sub(shl(0xa0, 0x01), 0x01)\n        /* \"bank.sol\":808:825  deposits[account] */\n      dup3\n      and\n        /* \"bank.sol\":808:816  deposits */\n      0x00\n        /* \"bank.sol\":808:825  deposits[account] */\n      swap1\n      dup2\n      mstore\n      0x20\n      dup2\n      swap1\n      mstore\n      0x40\n      dup2\n      keccak256\n        /* \"bank.sol\":808:835  deposits[account] += amount */\n      dup1\n      sload\n        /* \"bank.sol\":829:835  amount */\n      dup4\n      swap3\n        /* \"bank.sol\":808:816  deposits */\n      swap1\n        /* \"bank.sol\":808:835  deposits[account] += amount */\n      tag_74\n      swap1\n        /* \"bank.sol\":829:835  amount */\n      dup5\n      swap1\n        /* \"bank.sol\":808:835  deposits[account] += amount */\n      tag_75\n      jump\t// in\n    tag_74:\n      swap1\n      swap2\n      sstore\n      pop\n      pop\n      sub(shl(0xa0, 0x01), 0x01)\n        /* \"bank.sol\":874:891  deposits[account] */\n      dup3\n      and\n        /* \"bank.sol\":845:871  uint currentAccountDeposit */\n      0x00\n        /* \"bank.sol\":874:891  deposits[account] */\n      swap1\n      dup2\n      mstore\n      0x20\n      dup2\n      swap1\n      mstore\n      0x40\n      dup1\n      dup3\n      keccak256\n      sload\n        /* \"bank.sol\":901:947  address[3] memory localTop3Whales = top3Whales */\n      dup2\n      mload\n      0x60\n      dup2\n      add\n      swap3\n      dup4\n      swap1\n      mstore\n        /* \"bank.sol\":874:891  deposits[account] */\n      swap1\n      swap3\n        /* \"bank.sol\":845:871  uint currentAccountDeposit */\n      swap2\n        /* \"bank.sol\":937:947  top3Whales */\n      0x01\n      swap1\n        /* \"bank.sol\":901:947  address[3] memory localTop3Whales = top3Whales */\n      0x03\n      swap1\n        /* \"bank.sol\":937:947  top3Whales */\n      dup3\n        /* \"bank.sol\":901:947  address[3] memory localTop3Whales = top3Whales */\n      dup5\n    tag_77:\n      dup2\n      sload\n      sub(shl(0xa0, 0x01), 0x01)\n      and\n      dup2\n      mstore\n      0x01\n      swap1\n      swap2\n      add\n      swap1\n      0x20\n      add\n      dup1\n      dup4\n      gt\n      tag_77\n      jumpi\n      pop\n      pop\n      pop\n      pop\n      pop\n      swap1\n      pop\n        /* \"bank.sol\":985:993  deposits */\n      0x00\n        /* \"bank.sol\":985:1013  deposits[localTop3Whales[0]] */\n      dup1\n        /* \"bank.sol\":994:1009  localTop3Whales */\n      dup3\n        /* \"bank.sol\":1010:1011  0 */\n      0x00\n        /* \"bank.sol\":994:1012  localTop3Whales[0] */\n      0x03\n      dup2\n      lt\n      tag_79\n      jumpi\n      tag_79\n      tag_80\n      jump\t// in\n    tag_79:\n      0x20\n      mul\n      add\n      mload\n      sub(shl(0xa0, 0x01), 0x01)\n        /* \"bank.sol\":985:1013  deposits[localTop3Whales[0]] */\n      and\n      sub(shl(0xa0, 0x01), 0x01)\n      and\n      dup2\n      mstore\n      0x20\n      add\n      swap1\n      dup2\n      mstore\n      0x20\n      add\n      0x00\n      keccak256\n      sload\n        /* \"bank.sol\":961:982  currentAccountDeposit */\n      dup3\n        /* \"bank.sol\":961:1013  currentAccountDeposit > deposits[localTop3Whales[0]] */\n      gt\n        /* \"bank.sol\":957:1573  if (currentAccountDeposit > deposits[localTop3Whales[0]]) {... */\n      iszero\n      tag_81\n      jumpi\n        /* \"bank.sol\":1050:1068  localTop3Whales[1] */\n      0x20\n      dup2\n      add\n      dup1\n      mload\n      sub(shl(0xa0, 0x01), 0x01)\n        /* \"bank.sol\":1029:1068  localTop3Whales[2] = localTop3Whales[1] */\n      swap1\n      dup2\n      and\n        /* \"bank.sol\":1029:1047  localTop3Whales[2] */\n      0x40\n      dup5\n      add\n        /* \"bank.sol\":1029:1068  localTop3Whales[2] = localTop3Whales[1] */\n      mstore\n        /* \"bank.sol\":1103:1121  localTop3Whales[0] */\n      dup3\n      mload\n        /* \"bank.sol\":1082:1121  localTop3Whales[1] = localTop3Whales[0] */\n      and\n      swap1\n      mstore\n        /* \"bank.sol\":1156:1163  account */\n      dup4\n        /* \"bank.sol\":1050:1065  localTop3Whales */\n      dup2\n      0x00\n        /* \"bank.sol\":1135:1153  localTop3Whales[0] */\n    tag_91:\n      sub(shl(0xa0, 0x01), 0x01)\n        /* \"bank.sol\":1135:1163  localTop3Whales[0] = account */\n      swap1\n      swap3\n      and\n        /* \"bank.sol\":1135:1153  localTop3Whales[0] */\n      0x20\n      swap3\n      swap1\n      swap3\n      mul\n      add\n        /* \"bank.sol\":1135:1163  localTop3Whales[0] = account */\n      mstore\n        /* \"bank.sol\":957:1573  if (currentAccountDeposit > deposits[localTop3Whales[0]]) {... */\n      jump(tag_111)\n    tag_81:\n        /* \"bank.sol\":1217:1235  localTop3Whales[1] */\n      0x20\n      dup1\n      dup3\n      add\n      mload\n      sub(shl(0xa0, 0x01), 0x01)\n        /* \"bank.sol\":1208:1236  deposits[localTop3Whales[1]] */\n      and\n        /* \"bank.sol\":1208:1216  deposits */\n      0x00\n        /* \"bank.sol\":1208:1236  deposits[localTop3Whales[1]] */\n      swap1\n      dup2\n      mstore\n      swap1\n      dup2\n      swap1\n      mstore\n      0x40\n      swap1\n      keccak256\n      sload\n        /* \"bank.sol\":1184:1236  currentAccountDeposit > deposits[localTop3Whales[1]] */\n      dup3\n      gt\n        /* \"bank.sol\":1184:1292  currentAccountDeposit > deposits[localTop3Whales[1]] && currentAccountDeposit < deposits[localTop3Whales[0]] */\n      dup1\n      iszero\n      tag_95\n      jumpi\n      pop\n        /* \"bank.sol\":1273:1291  localTop3Whales[0] */\n      dup1\n      mload\n      sub(shl(0xa0, 0x01), 0x01)\n        /* \"bank.sol\":1264:1292  deposits[localTop3Whales[0]] */\n      and\n        /* \"bank.sol\":1264:1272  deposits */\n      0x00\n        /* \"bank.sol\":1264:1292  deposits[localTop3Whales[0]] */\n      swap1\n      dup2\n      mstore\n        /* \"bank.sol\":1273:1291  localTop3Whales[0] */\n      0x20\n        /* \"bank.sol\":1264:1292  deposits[localTop3Whales[0]] */\n      dup2\n      swap1\n      mstore\n      0x40\n      swap1\n      keccak256\n      sload\n        /* \"bank.sol\":1240:1292  currentAccountDeposit < deposits[localTop3Whales[0]] */\n      dup3\n      lt\n        /* \"bank.sol\":1184:1292  currentAccountDeposit > deposits[localTop3Whales[1]] && currentAccountDeposit < deposits[localTop3Whales[0]] */\n    tag_95:\n        /* \"bank.sol\":1180:1573  if (currentAccountDeposit > deposits[localTop3Whales[1]] && currentAccountDeposit < deposits[localTop3Whales[0]]) {... */\n      iszero\n      tag_98\n      jumpi\n        /* \"bank.sol\":1329:1347  localTop3Whales[1] */\n      0x20\n      dup2\n      add\n      mload\n      sub(shl(0xa0, 0x01), 0x01)\n        /* \"bank.sol\":1308:1347  localTop3Whales[2] = localTop3Whales[1] */\n      and\n        /* \"bank.sol\":1308:1326  localTop3Whales[2] */\n      0x40\n      dup3\n      add\n        /* \"bank.sol\":1308:1347  localTop3Whales[2] = localTop3Whales[1] */\n      mstore\n        /* \"bank.sol\":1382:1389  account */\n      dup4\n        /* \"bank.sol\":1329:1344  localTop3Whales */\n      dup2\n        /* \"bank.sol\":1345:1346  1 */\n      0x01\n        /* \"bank.sol\":1361:1379  localTop3Whales[1] */\n      jump(tag_91)\n        /* \"bank.sol\":1180:1573  if (currentAccountDeposit > deposits[localTop3Whales[1]] && currentAccountDeposit < deposits[localTop3Whales[0]]) {... */\n    tag_98:\n        /* \"bank.sol\":1443:1461  localTop3Whales[2] */\n      0x40\n      dup1\n      dup3\n      add\n      mload\n      sub(shl(0xa0, 0x01), 0x01)\n        /* \"bank.sol\":1434:1462  deposits[localTop3Whales[2]] */\n      and\n        /* \"bank.sol\":1434:1442  deposits */\n      0x00\n        /* \"bank.sol\":1434:1462  deposits[localTop3Whales[2]] */\n      swap1\n      dup2\n      mstore\n        /* \"bank.sol\":1443:1461  localTop3Whales[2] */\n      0x20\n        /* \"bank.sol\":1434:1462  deposits[localTop3Whales[2]] */\n      dup2\n      swap1\n      mstore\n      keccak256\n      sload\n        /* \"bank.sol\":1410:1462  currentAccountDeposit > deposits[localTop3Whales[2]] */\n      dup3\n      gt\n        /* \"bank.sol\":1410:1518  currentAccountDeposit > deposits[localTop3Whales[2]] && currentAccountDeposit < deposits[localTop3Whales[1]] */\n      dup1\n      iszero\n      tag_108\n      jumpi\n      pop\n        /* \"bank.sol\":1499:1517  localTop3Whales[1] */\n      0x20\n      dup1\n      dup3\n      add\n      mload\n      sub(shl(0xa0, 0x01), 0x01)\n        /* \"bank.sol\":1490:1518  deposits[localTop3Whales[1]] */\n      and\n        /* \"bank.sol\":1490:1498  deposits */\n      0x00\n        /* \"bank.sol\":1490:1518  deposits[localTop3Whales[1]] */\n      swap1\n      dup2\n      mstore\n      swap1\n      dup2\n      swap1\n      mstore\n      0x40\n      swap1\n      keccak256\n      sload\n        /* \"bank.sol\":1466:1518  currentAccountDeposit < deposits[localTop3Whales[1]] */\n      dup3\n      lt\n        /* \"bank.sol\":1410:1518  currentAccountDeposit > deposits[localTop3Whales[2]] && currentAccountDeposit < deposits[localTop3Whales[1]] */\n    tag_108:\n        /* \"bank.sol\":1406:1573  if (currentAccountDeposit > deposits[localTop3Whales[2]] && currentAccountDeposit < deposits[localTop3Whales[1]]) {... */\n      iszero\n      tag_111\n      jumpi\n      sub(shl(0xa0, 0x01), 0x01)\n        /* \"bank.sol\":1534:1562  localTop3Whales[2] = account */\n      dup5\n      and\n        /* \"bank.sol\":1534:1552  localTop3Whales[2] */\n      0x40\n      dup3\n      add\n        /* \"bank.sol\":1534:1562  localTop3Whales[2] = account */\n      mstore\n        /* \"bank.sol\":1406:1573  if (currentAccountDeposit > deposits[localTop3Whales[2]] && currentAccountDeposit < deposits[localTop3Whales[1]]) {... */\n    tag_111:\n        /* \"bank.sol\":1582:1610  top3Whales = localTop3Whales */\n      tag_114\n        /* \"bank.sol\":1582:1592  top3Whales */\n      0x01\n        /* \"bank.sol\":1595:1610  localTop3Whales */\n      dup3\n        /* \"bank.sol\":1582:1610  top3Whales = localTop3Whales */\n      0x03\n      tag_115\n      jump\t// in\n    tag_114:\n      pop\n        /* \"bank.sol\":798:1617  {... */\n      pop\n      pop\n        /* \"bank.sol\":743:1617  function deposit(address account, uint amount) private {... */\n      pop\n      pop\n      jump\t// out\n    tag_115:\n      dup3\n      0x03\n      dup2\n      add\n      swap3\n      dup3\n      iszero\n      tag_118\n      jumpi\n      swap2\n      0x20\n      mul\n      dup3\n      add\n    tag_117:\n      dup3\n      dup2\n      gt\n      iszero\n      tag_118\n      jumpi\n      dup3\n      mload\n      dup3\n      sload\n      not(sub(shl(0xa0, 0x01), 0x01))\n      and\n      sub(shl(0xa0, 0x01), 0x01)\n      swap1\n      swap2\n      and\n      or\n      dup3\n      sstore\n      0x20\n      swap1\n      swap3\n      add\n      swap2\n      0x01\n      swap1\n      swap2\n      add\n      swap1\n      jump(tag_117)\n    tag_118:\n      pop\n      tag_119\n      swap3\n      swap2\n      pop\n      tag_120\n      jump\t// in\n    tag_119:\n      pop\n      swap1\n      jump\t// out\n    tag_120:\n    tag_121:\n      dup1\n      dup3\n      gt\n      iszero\n      tag_119\n      jumpi\n      0x00\n      dup2\n      sstore\n      0x01\n      add\n      jump(tag_121)\n        /* \"#utility.yul\":14:194   */\n    tag_18:\n        /* \"#utility.yul\":73:79   */\n      0x00\n        /* \"#utility.yul\":126:128   */\n      0x20\n        /* \"#utility.yul\":114:123   */\n      dup3\n        /* \"#utility.yul\":105:112   */\n      dup5\n        /* \"#utility.yul\":101:124   */\n      sub\n        /* \"#utility.yul\":97:129   */\n      slt\n        /* \"#utility.yul\":94:146   */\n      iszero\n      tag_128\n      jumpi\n        /* \"#utility.yul\":142:143   */\n      0x00\n        /* \"#utility.yul\":139:140   */\n      dup1\n        /* \"#utility.yul\":132:144   */\n      revert\n        /* \"#utility.yul\":94:146   */\n    tag_128:\n      pop\n        /* \"#utility.yul\":165:188   */\n      calldataload\n      swap2\n        /* \"#utility.yul\":14:194   */\n      swap1\n      pop\n      jump\t// out\n        /* \"#utility.yul\":407:546   */\n    tag_123:\n      sub(shl(0xa0, 0x01), 0x01)\n        /* \"#utility.yul\":490:521   */\n      dup2\n      and\n        /* \"#utility.yul\":480:522   */\n      dup2\n      eq\n        /* \"#utility.yul\":470:540   */\n      tag_46\n      jumpi\n        /* \"#utility.yul\":536:537   */\n      0x00\n        /* \"#utility.yul\":533:534   */\n      dup1\n        /* \"#utility.yul\":526:538   */\n      revert\n        /* \"#utility.yul\":551:814   */\n    tag_28:\n        /* \"#utility.yul\":618:624   */\n      0x00\n        /* \"#utility.yul\":671:673   */\n      0x20\n        /* \"#utility.yul\":659:668   */\n      dup3\n        /* \"#utility.yul\":650:657   */\n      dup5\n        /* \"#utility.yul\":646:669   */\n      sub\n        /* \"#utility.yul\":642:674   */\n      slt\n        /* \"#utility.yul\":639:691   */\n      iszero\n      tag_133\n      jumpi\n        /* \"#utility.yul\":687:688   */\n      0x00\n        /* \"#utility.yul\":684:685   */\n      dup1\n        /* \"#utility.yul\":677:689   */\n      revert\n        /* \"#utility.yul\":639:691   */\n    tag_133:\n        /* \"#utility.yul\":726:735   */\n      dup2\n        /* \"#utility.yul\":713:736   */\n      calldataload\n        /* \"#utility.yul\":745:784   */\n      tag_134\n        /* \"#utility.yul\":778:783   */\n      dup2\n        /* \"#utility.yul\":745:784   */\n      tag_123\n      jump\t// in\n    tag_134:\n        /* \"#utility.yul\":803:808   */\n      swap4\n        /* \"#utility.yul\":551:814   */\n      swap3\n      pop\n      pop\n      pop\n      jump\t// out\n        /* \"#utility.yul\":819:1203   */\n    tag_33:\n        /* \"#utility.yul\":903:909   */\n      0x00\n        /* \"#utility.yul\":956:958   */\n      0x20\n        /* \"#utility.yul\":944:953   */\n      dup3\n        /* \"#utility.yul\":935:942   */\n      dup5\n        /* \"#utility.yul\":931:954   */\n      sub\n        /* \"#utility.yul\":927:959   */\n      slt\n        /* \"#utility.yul\":924:976   */\n      iszero\n      tag_136\n      jumpi\n        /* \"#utility.yul\":972:973   */\n      0x00\n        /* \"#utility.yul\":969:970   */\n      dup1\n        /* \"#utility.yul\":962:974   */\n      revert\n        /* \"#utility.yul\":924:976   */\n    tag_136:\n        /* \"#utility.yul\":1012:1021   */\n      dup2\n        /* \"#utility.yul\":999:1022   */\n      calldataload\n        /* \"#utility.yul\":1045:1063   */\n      0xffffffffffffffff\n        /* \"#utility.yul\":1037:1043   */\n      dup2\n        /* \"#utility.yul\":1034:1064   */\n      gt\n        /* \"#utility.yul\":1031:1081   */\n      iszero\n      tag_137\n      jumpi\n        /* \"#utility.yul\":1077:1078   */\n      0x00\n        /* \"#utility.yul\":1074:1075   */\n      dup1\n        /* \"#utility.yul\":1067:1079   */\n      revert\n        /* \"#utility.yul\":1031:1081   */\n    tag_137:\n        /* \"#utility.yul\":1100:1122   */\n      dup3\n      add\n        /* \"#utility.yul\":1156:1158   */\n      0x40\n        /* \"#utility.yul\":1138:1154   */\n      dup2\n      dup6\n      sub\n        /* \"#utility.yul\":1134:1159   */\n      slt\n        /* \"#utility.yul\":1131:1176   */\n      iszero\n      tag_134\n      jumpi\n        /* \"#utility.yul\":1172:1173   */\n      0x00\n        /* \"#utility.yul\":1169:1170   */\n      dup1\n        /* \"#utility.yul\":1162:1174   */\n      revert\n        /* \"#utility.yul\":2623:2779   */\n    tag_124:\n        /* \"#utility.yul\":2689:2709   */\n      dup1\n      calldataload\n        /* \"#utility.yul\":2749:2753   */\n      0xff\n        /* \"#utility.yul\":2738:2754   */\n      dup2\n      and\n        /* \"#utility.yul\":2728:2755   */\n      dup2\n      eq\n        /* \"#utility.yul\":2718:2773   */\n      tag_147\n      jumpi\n        /* \"#utility.yul\":2769:2770   */\n      0x00\n        /* \"#utility.yul\":2766:2767   */\n      dup1\n        /* \"#utility.yul\":2759:2771   */\n      revert\n        /* \"#utility.yul\":2718:2773   */\n    tag_147:\n        /* \"#utility.yul\":2623:2779   */\n      swap2\n      swap1\n      pop\n      jump\t// out\n        /* \"#utility.yul\":2864:3860   */\n    tag_69:\n        /* \"#utility.yul\":3041:3043   */\n      0x20\n        /* \"#utility.yul\":3030:3039   */\n      dup2\n        /* \"#utility.yul\":3023:3044   */\n      mstore\n        /* \"#utility.yul\":3004:3008   */\n      0x00\n        /* \"#utility.yul\":3092:3098   */\n      dup3\n        /* \"#utility.yul\":3079:3099   */\n      calldataload\n        /* \"#utility.yul\":3179:3181   */\n      0x1e\n        /* \"#utility.yul\":3175:3182   */\n      not\n        /* \"#utility.yul\":3166:3172   */\n      dup5\n        /* \"#utility.yul\":3150:3164   */\n      calldatasize\n        /* \"#utility.yul\":3146:3173   */\n      sub\n        /* \"#utility.yul\":3142:3183   */\n      add\n        /* \"#utility.yul\":3122:3140   */\n      dup2\n        /* \"#utility.yul\":3118:3184   */\n      slt\n        /* \"#utility.yul\":3108:3202   */\n      tag_150\n      jumpi\n        /* \"#utility.yul\":3198:3199   */\n      0x00\n        /* \"#utility.yul\":3195:3196   */\n      dup1\n        /* \"#utility.yul\":3188:3200   */\n      revert\n        /* \"#utility.yul\":3108:3202   */\n    tag_150:\n        /* \"#utility.yul\":3224:3255   */\n      dup4\n      add\n        /* \"#utility.yul\":3332:3334   */\n      0x20\n        /* \"#utility.yul\":3321:3335   */\n      dup2\n      add\n      swap1\n        /* \"#utility.yul\":3278:3297   */\n      calldataload\n        /* \"#utility.yul\":3358:3376   */\n      0xffffffffffffffff\n        /* \"#utility.yul\":3347:3377   */\n      dup2\n      gt\n        /* \"#utility.yul\":3344:3394   */\n      iszero\n      tag_151\n      jumpi\n        /* \"#utility.yul\":3390:3391   */\n      0x00\n        /* \"#utility.yul\":3387:3388   */\n      dup1\n        /* \"#utility.yul\":3380:3392   */\n      revert\n        /* \"#utility.yul\":3344:3394   */\n    tag_151:\n        /* \"#utility.yul\":3439:3445   */\n      dup1\n        /* \"#utility.yul\":3423:3437   */\n      calldatasize\n        /* \"#utility.yul\":3419:3446   */\n      sub\n        /* \"#utility.yul\":3410:3417   */\n      dup3\n        /* \"#utility.yul\":3406:3447   */\n      sgt\n        /* \"#utility.yul\":3403:3464   */\n      iszero\n      tag_152\n      jumpi\n        /* \"#utility.yul\":3460:3461   */\n      0x00\n        /* \"#utility.yul\":3457:3458   */\n      dup1\n        /* \"#utility.yul\":3450:3462   */\n      revert\n        /* \"#utility.yul\":3403:3464   */\n    tag_152:\n        /* \"#utility.yul\":3500:3504   */\n      0x40\n        /* \"#utility.yul\":3495:3497   */\n      0x20\n        /* \"#utility.yul\":3484:3493   */\n      dup6\n        /* \"#utility.yul\":3480:3498   */\n      add\n        /* \"#utility.yul\":3473:3505   */\n      mstore\n        /* \"#utility.yul\":3541:3547   */\n      dup1\n        /* \"#utility.yul\":3536:3538   */\n      0x60\n        /* \"#utility.yul\":3525:3534   */\n      dup6\n        /* \"#utility.yul\":3521:3539   */\n      add\n        /* \"#utility.yul\":3514:3548   */\n      mstore\n        /* \"#utility.yul\":3600:3606   */\n      dup1\n        /* \"#utility.yul\":3591:3598   */\n      dup3\n        /* \"#utility.yul\":3585:3588   */\n      0x80\n        /* \"#utility.yul\":3574:3583   */\n      dup7\n        /* \"#utility.yul\":3570:3589   */\n      add\n        /* \"#utility.yul\":3557:3607   */\n      calldatacopy\n        /* \"#utility.yul\":3657:3658   */\n      0x00\n        /* \"#utility.yul\":3651:3654   */\n      0x80\n        /* \"#utility.yul\":3642:3648   */\n      dup3\n        /* \"#utility.yul\":3631:3640   */\n      dup7\n        /* \"#utility.yul\":3627:3649   */\n      add\n        /* \"#utility.yul\":3623:3655   */\n      add\n        /* \"#utility.yul\":3616:3659   */\n      mstore\n        /* \"#utility.yul\":3688:3721   */\n      tag_153\n        /* \"#utility.yul\":3717:3719   */\n      0x20\n        /* \"#utility.yul\":3709:3715   */\n      dup7\n        /* \"#utility.yul\":3705:3720   */\n      add\n        /* \"#utility.yul\":3688:3721   */\n      tag_124\n      jump\t// in\n    tag_153:\n        /* \"#utility.yul\":2851:2855   */\n      0xff\n        /* \"#utility.yul\":2840:2856   */\n      dup2\n      and\n        /* \"#utility.yul\":3776:3780   */\n      0x40\n        /* \"#utility.yul\":3761:3781   */\n      dup7\n      add\n        /* \"#utility.yul\":2828:2857   */\n      mstore\n        /* \"#utility.yul\":3668:3721   */\n      swap2\n      pop\n        /* \"#utility.yul\":3843:3845   */\n      0x1f\n        /* \"#utility.yul\":3822:3837   */\n      add\n      not(0x1f)\n        /* \"#utility.yul\":3818:3847   */\n      and\n        /* \"#utility.yul\":3803:3848   */\n      swap3\n      swap1\n      swap3\n      add\n        /* \"#utility.yul\":3850:3853   */\n      0x80\n        /* \"#utility.yul\":3799:3854   */\n      add\n      swap4\n        /* \"#utility.yul\":2864:3860   */\n      swap3\n      pop\n      pop\n      pop\n      jump\t// out\n        /* \"#utility.yul\":3865:4087   */\n    tag_75:\n        /* \"#utility.yul\":3930:3939   */\n      dup1\n      dup3\n      add\n        /* \"#utility.yul\":3951:3961   */\n      dup1\n      dup3\n      gt\n        /* \"#utility.yul\":3948:4081   */\n      iszero\n      tag_156\n      jumpi\n        /* \"#utility.yul\":4003:4013   */\n      0x4e487b71\n        /* \"#utility.yul\":3998:4001   */\n      0xe0\n        /* \"#utility.yul\":3994:4014   */\n      shl\n        /* \"#utility.yul\":3991:3992   */\n      0x00\n        /* \"#utility.yul\":3984:4015   */\n      mstore\n        /* \"#utility.yul\":4038:4042   */\n      0x11\n        /* \"#utility.yul\":4035:4036   */\n      0x04\n        /* \"#utility.yul\":4028:4043   */\n      mstore\n        /* \"#utility.yul\":4066:4070   */\n      0x24\n        /* \"#utility.yul\":4063:4064   */\n      0x00\n        /* \"#utility.yul\":4056:4071   */\n      revert\n        /* \"#utility.yul\":3948:4081   */\n    tag_156:\n        /* \"#utility.yul\":3865:4087   */\n      swap3\n      swap2\n      pop\n      pop\n      jump\t// out\n        /* \"#utility.yul\":4092:4219   */\n    tag_80:\n        /* \"#utility.yul\":4153:4163   */\n      0x4e487b71\n        /* \"#utility.yul\":4148:4151   */\n      0xe0\n        /* \"#utility.yul\":4144:4164   */\n      shl\n        /* \"#utility.yul\":4141:4142   */\n      0x00\n        /* \"#utility.yul\":4134:4165   */\n      mstore\n        /* \"#utility.yul\":4184:4188   */\n      0x32\n        /* \"#utility.yul\":4181:4182   */\n      0x04\n        /* \"#utility.yul\":4174:4189   */\n      mstore\n        /* \"#utility.yul\":4208:4212   */\n      0x24\n        /* \"#utility.yul\":4205:4206   */\n      0x00\n        /* \"#utility.yul\":4198:4213   */\n      revert\n\n    auxdata: 0xa2646970667358221220dbdf3b2aea4fe69e3be5637cef7f9c9c018e45439b61c070f6a4c9af767fc19b64736f6c634300081a0033\n}\n",
				"bytecode": {
					"linkReferences": {},
					"object": "6080604052348015600e575f80fd5b50600480546001600160a01b031916331790556107018061002e5f395ff3fe60806040526004361061004d575f3560e01c806310374309146100645780633ccfd60b146100a057806375829def146100b4578063a3cc1e5f146100d3578063fc7e286d146100f25761005c565b3661005c5761005a61012b565b005b61005a61012b565b34801561006f575f80fd5b5061008361007e36600461056f565b610165565b6040516001600160a01b0390911681526020015b60405180910390f35b3480156100ab575f80fd5b5061005a610184565b3480156100bf575f80fd5b5061005a6100ce36600461059a565b6102ad565b3480156100de575f80fd5b5061005a6100ed3660046105bc565b6102fa565b3480156100fd575f80fd5b5061011d61010c36600461059a565b5f6020819052908152604090205481565b604051908152602001610097565b655af3107a400080341161015a576040516336a6b01f60e11b8152600481018290526024015b60405180910390fd5b610162610334565b50565b60018160038110610174575f80fd5b01546001600160a01b0316905081565b6004546001600160a01b031633146101af5760405163019dce7960e21b815260040160405180910390fd5b47806101fd5760405162461bcd60e51b815260206004820152601e60248201527f4e6f2062616c616e63652072656d61696e7320746f20776974686472617700006044820152606401610151565b6004546040515f916001600160a01b03169083908381818185875af1925050503d805f8114610247576040519150601f19603f3d011682016040523d82523d5f602084013e61024c565b606091505b50509050806102a95760405162461bcd60e51b815260206004820152602360248201527f4661696c656420746f20776974686472617720616c6c20746865206465706f7360448201526269747360e81b6064820152608401610151565b5050565b6004546001600160a01b031633146102d85760405163019dce7960e21b815260040160405180910390fd5b600480546001600160a01b0319166001600160a01b0392909216919091179055565b7f490d6e10cbfd4896502639503091929dd114bf5e5dd56035a5152cab1b02b55f816040516103299190610608565b60405180910390a150565b61033e3334610340565b565b6001600160a01b0382165f9081526020819052604081208054839290610367908490610692565b90915550506001600160a01b0382165f90815260208190526040808220548151606081019283905290929160019060039082845b81546001600160a01b0316815260019091019060200180831161039b57505050505090505f80825f600381106103d3576103d36106b7565b60200201516001600160a01b03166001600160a01b031681526020019081526020015f2054821115610436576020810180516001600160a01b039081166040840152825116905283815f5b6001600160a01b0390921660209290920201526104ef565b6020808201516001600160a01b03165f90815290819052604090205482118015610477575080516001600160a01b03165f9081526020819052604090205482105b156104985760208101516001600160a01b031660408201528381600161041e565b6040808201516001600160a01b03165f90815260208190522054821180156104da57506020808201516001600160a01b03165f90815290819052604090205482105b156104ef576001600160a01b03841660408201525b6104fc6001826003610503565b5050505050565b826003810192821561054b579160200282015b8281111561054b57825182546001600160a01b0319166001600160a01b03909116178255602090920191600190910190610516565b5061055792915061055b565b5090565b5b80821115610557575f815560010161055c565b5f6020828403121561057f575f80fd5b5035919050565b6001600160a01b0381168114610162575f80fd5b5f602082840312156105aa575f80fd5b81356105b581610586565b9392505050565b5f602082840312156105cc575f80fd5b813567ffffffffffffffff8111156105e2575f80fd5b8201604081850312156105b5575f80fd5b803560ff81168114610603575f80fd5b919050565b602081525f8235601e19843603018112610620575f80fd5b830160208101903567ffffffffffffffff81111561063c575f80fd5b80360382131561064a575f80fd5b60406020850152806060850152808260808601375f60808286010152610672602086016105f3565b60ff811660408601529150601f01601f1916929092016080019392505050565b808201808211156106b157634e487b7160e01b5f52601160045260245ffd5b92915050565b634e487b7160e01b5f52603260045260245ffdfea2646970667358221220dbdf3b2aea4fe69e3be5637cef7f9c9c018e45439b61c070f6a4c9af767fc19b64736f6c634300081a0033",
					"opcodes": "PUSH1 0x80 PUSH1 0x40 MSTORE CALLVALUE DUP1 ISZERO PUSH1 0xE JUMPI PUSH0 DUP1 REVERT JUMPDEST POP PUSH1 0x4 DUP1 SLOAD PUSH1 0x1 PUSH1 0x1 PUSH1 0xA0 SHL SUB NOT AND CALLER OR SWAP1 SSTORE PUSH2 0x701 DUP1 PUSH2 0x2E PUSH0 CODECOPY PUSH0 RETURN INVALID PUSH1 0x80 PUSH1 0x40 MSTORE PUSH1 0x4 CALLDATASIZE LT PUSH2 0x4D JUMPI PUSH0 CALLDATALOAD PUSH1 0xE0 SHR DUP1 PUSH4 0x10374309 EQ PUSH2 0x64 JUMPI DUP1 PUSH4 0x3CCFD60B EQ PUSH2 0xA0 JUMPI DUP1 PUSH4 0x75829DEF EQ PUSH2 0xB4 JUMPI DUP1 PUSH4 0xA3CC1E5F EQ PUSH2 0xD3 JUMPI DUP1 PUSH4 0xFC7E286D EQ PUSH2 0xF2 JUMPI PUSH2 0x5C JUMP JUMPDEST CALLDATASIZE PUSH2 0x5C JUMPI PUSH2 0x5A PUSH2 0x12B JUMP JUMPDEST STOP JUMPDEST PUSH2 0x5A PUSH2 0x12B JUMP JUMPDEST CALLVALUE DUP1 ISZERO PUSH2 0x6F JUMPI PUSH0 DUP1 REVERT JUMPDEST POP PUSH2 0x83 PUSH2 0x7E CALLDATASIZE PUSH1 0x4 PUSH2 0x56F JUMP JUMPDEST PUSH2 0x165 JUMP JUMPDEST PUSH1 0x40 MLOAD PUSH1 0x1 PUSH1 0x1 PUSH1 0xA0 SHL SUB SWAP1 SWAP2 AND DUP2 MSTORE PUSH1 0x20 ADD JUMPDEST PUSH1 0x40 MLOAD DUP1 SWAP2 SUB SWAP1 RETURN JUMPDEST CALLVALUE DUP1 ISZERO PUSH2 0xAB JUMPI PUSH0 DUP1 REVERT JUMPDEST POP PUSH2 0x5A PUSH2 0x184 JUMP JUMPDEST CALLVALUE DUP1 ISZERO PUSH2 0xBF JUMPI PUSH0 DUP1 REVERT JUMPDEST POP PUSH2 0x5A PUSH2 0xCE CALLDATASIZE PUSH1 0x4 PUSH2 0x59A JUMP JUMPDEST PUSH2 0x2AD JUMP JUMPDEST CALLVALUE DUP1 ISZERO PUSH2 0xDE JUMPI PUSH0 DUP1 REVERT JUMPDEST POP PUSH2 0x5A PUSH2 0xED CALLDATASIZE PUSH1 0x4 PUSH2 0x5BC JUMP JUMPDEST PUSH2 0x2FA JUMP JUMPDEST CALLVALUE DUP1 ISZERO PUSH2 0xFD JUMPI PUSH0 DUP1 REVERT JUMPDEST POP PUSH2 0x11D PUSH2 0x10C CALLDATASIZE PUSH1 0x4 PUSH2 0x59A JUMP JUMPDEST PUSH0 PUSH1 0x20 DUP2 SWAP1 MSTORE SWAP1 DUP2 MSTORE PUSH1 0x40 SWAP1 KECCAK256 SLOAD DUP2 JUMP JUMPDEST PUSH1 0x40 MLOAD SWAP1 DUP2 MSTORE PUSH1 0x20 ADD PUSH2 0x97 JUMP JUMPDEST PUSH6 0x5AF3107A4000 DUP1 CALLVALUE GT PUSH2 0x15A JUMPI PUSH1 0x40 MLOAD PUSH4 0x36A6B01F PUSH1 0xE1 SHL DUP2 MSTORE PUSH1 0x4 DUP2 ADD DUP3 SWAP1 MSTORE PUSH1 0x24 ADD JUMPDEST PUSH1 0x40 MLOAD DUP1 SWAP2 SUB SWAP1 REVERT JUMPDEST PUSH2 0x162 PUSH2 0x334 JUMP JUMPDEST POP JUMP JUMPDEST PUSH1 0x1 DUP2 PUSH1 0x3 DUP2 LT PUSH2 0x174 JUMPI PUSH0 DUP1 REVERT JUMPDEST ADD SLOAD PUSH1 0x1 PUSH1 0x1 PUSH1 0xA0 SHL SUB AND SWAP1 POP DUP2 JUMP JUMPDEST PUSH1 0x4 SLOAD PUSH1 0x1 PUSH1 0x1 PUSH1 0xA0 SHL SUB AND CALLER EQ PUSH2 0x1AF JUMPI PUSH1 0x40 MLOAD PUSH4 0x19DCE79 PUSH1 0xE2 SHL DUP2 MSTORE PUSH1 0x4 ADD PUSH1 0x40 MLOAD DUP1 SWAP2 SUB SWAP1 REVERT JUMPDEST SELFBALANCE DUP1 PUSH2 0x1FD JUMPI PUSH1 0x40 MLOAD PUSH3 0x461BCD PUSH1 0xE5 SHL DUP2 MSTORE PUSH1 0x20 PUSH1 0x4 DUP3 ADD MSTORE PUSH1 0x1E PUSH1 0x24 DUP3 ADD MSTORE PUSH32 0x4E6F2062616C616E63652072656D61696E7320746F2077697468647261770000 PUSH1 0x44 DUP3 ADD MSTORE PUSH1 0x64 ADD PUSH2 0x151 JUMP JUMPDEST PUSH1 0x4 SLOAD PUSH1 0x40 MLOAD PUSH0 SWAP2 PUSH1 0x1 PUSH1 0x1 PUSH1 0xA0 SHL SUB AND SWAP1 DUP4 SWAP1 DUP4 DUP2 DUP2 DUP2 DUP6 DUP8 GAS CALL SWAP3 POP POP POP RETURNDATASIZE DUP1 PUSH0 DUP2 EQ PUSH2 0x247 JUMPI PUSH1 0x40 MLOAD SWAP2 POP PUSH1 0x1F NOT PUSH1 0x3F RETURNDATASIZE ADD AND DUP3 ADD PUSH1 0x40 MSTORE RETURNDATASIZE DUP3 MSTORE RETURNDATASIZE PUSH0 PUSH1 0x20 DUP5 ADD RETURNDATACOPY PUSH2 0x24C JUMP JUMPDEST PUSH1 0x60 SWAP2 POP JUMPDEST POP POP SWAP1 POP DUP1 PUSH2 0x2A9 JUMPI PUSH1 0x40 MLOAD PUSH3 0x461BCD PUSH1 0xE5 SHL DUP2 MSTORE PUSH1 0x20 PUSH1 0x4 DUP3 ADD MSTORE PUSH1 0x23 PUSH1 0x24 DUP3 ADD MSTORE PUSH32 0x4661696C656420746F20776974686472617720616C6C20746865206465706F73 PUSH1 0x44 DUP3 ADD MSTORE PUSH3 0x697473 PUSH1 0xE8 SHL PUSH1 0x64 DUP3 ADD MSTORE PUSH1 0x84 ADD PUSH2 0x151 JUMP JUMPDEST POP POP JUMP JUMPDEST PUSH1 0x4 SLOAD PUSH1 0x1 PUSH1 0x1 PUSH1 0xA0 SHL SUB AND CALLER EQ PUSH2 0x2D8 JUMPI PUSH1 0x40 MLOAD PUSH4 0x19DCE79 PUSH1 0xE2 SHL DUP2 MSTORE PUSH1 0x4 ADD PUSH1 0x40 MLOAD DUP1 SWAP2 SUB SWAP1 REVERT JUMPDEST PUSH1 0x4 DUP1 SLOAD PUSH1 0x1 PUSH1 0x1 PUSH1 0xA0 SHL SUB NOT AND PUSH1 0x1 PUSH1 0x1 PUSH1 0xA0 SHL SUB SWAP3 SWAP1 SWAP3 AND SWAP2 SWAP1 SWAP2 OR SWAP1 SSTORE JUMP JUMPDEST PUSH32 0x490D6E10CBFD4896502639503091929DD114BF5E5DD56035A5152CAB1B02B55F DUP2 PUSH1 0x40 MLOAD PUSH2 0x329 SWAP2 SWAP1 PUSH2 0x608 JUMP JUMPDEST PUSH1 0x40 MLOAD DUP1 SWAP2 SUB SWAP1 LOG1 POP JUMP JUMPDEST PUSH2 0x33E CALLER CALLVALUE PUSH2 0x340 JUMP JUMPDEST JUMP JUMPDEST PUSH1 0x1 PUSH1 0x1 PUSH1 0xA0 SHL SUB DUP3 AND PUSH0 SWAP1 DUP2 MSTORE PUSH1 0x20 DUP2 SWAP1 MSTORE PUSH1 0x40 DUP2 KECCAK256 DUP1 SLOAD DUP4 SWAP3 SWAP1 PUSH2 0x367 SWAP1 DUP5 SWAP1 PUSH2 0x692 JUMP JUMPDEST SWAP1 SWAP2 SSTORE POP POP PUSH1 0x1 PUSH1 0x1 PUSH1 0xA0 SHL SUB DUP3 AND PUSH0 SWAP1 DUP2 MSTORE PUSH1 0x20 DUP2 SWAP1 MSTORE PUSH1 0x40 DUP1 DUP3 KECCAK256 SLOAD DUP2 MLOAD PUSH1 0x60 DUP2 ADD SWAP3 DUP4 SWAP1 MSTORE SWAP1 SWAP3 SWAP2 PUSH1 0x1 SWAP1 PUSH1 0x3 SWAP1 DUP3 DUP5 JUMPDEST DUP2 SLOAD PUSH1 0x1 PUSH1 0x1 PUSH1 0xA0 SHL SUB AND DUP2 MSTORE PUSH1 0x1 SWAP1 SWAP2 ADD SWAP1 PUSH1 0x20 ADD DUP1 DUP4 GT PUSH2 0x39B JUMPI POP POP POP POP POP SWAP1 POP PUSH0 DUP1 DUP3 PUSH0 PUSH1 0x3 DUP2 LT PUSH2 0x3D3 JUMPI PUSH2 0x3D3 PUSH2 0x6B7 JUMP JUMPDEST PUSH1 0x20 MUL ADD MLOAD PUSH1 0x1 PUSH1 0x1 PUSH1 0xA0 SHL SUB AND PUSH1 0x1 PUSH1 0x1 PUSH1 0xA0 SHL SUB AND DUP2 MSTORE PUSH1 0x20 ADD SWAP1 DUP2 MSTORE PUSH1 0x20 ADD PUSH0 KECCAK256 SLOAD DUP3 GT ISZERO PUSH2 0x436 JUMPI PUSH1 0x20 DUP2 ADD DUP1 MLOAD PUSH1 0x1 PUSH1 0x1 PUSH1 0xA0 SHL SUB SWAP1 DUP2 AND PUSH1 0x40 DUP5 ADD MSTORE DUP3 MLOAD AND SWAP1 MSTORE DUP4 DUP2 PUSH0 JUMPDEST PUSH1 0x1 PUSH1 0x1 PUSH1 0xA0 SHL SUB SWAP1 SWAP3 AND PUSH1 0x20 SWAP3 SWAP1 SWAP3 MUL ADD MSTORE PUSH2 0x4EF JUMP JUMPDEST PUSH1 0x20 DUP1 DUP3 ADD MLOAD PUSH1 0x1 PUSH1 0x1 PUSH1 0xA0 SHL SUB AND PUSH0 SWAP1 DUP2 MSTORE SWAP1 DUP2 SWAP1 MSTORE PUSH1 0x40 SWAP1 KECCAK256 SLOAD DUP3 GT DUP1 ISZERO PUSH2 0x477 JUMPI POP DUP1 MLOAD PUSH1 0x1 PUSH1 0x1 PUSH1 0xA0 SHL SUB AND PUSH0 SWAP1 DUP2 MSTORE PUSH1 0x20 DUP2 SWAP1 MSTORE PUSH1 0x40 SWAP1 KECCAK256 SLOAD DUP3 LT JUMPDEST ISZERO PUSH2 0x498 JUMPI PUSH1 0x20 DUP2 ADD MLOAD PUSH1 0x1 PUSH1 0x1 PUSH1 0xA0 SHL SUB AND PUSH1 0x40 DUP3 ADD MSTORE DUP4 DUP2 PUSH1 0x1 PUSH2 0x41E JUMP JUMPDEST PUSH1 0x40 DUP1 DUP3 ADD MLOAD PUSH1 0x1 PUSH1 0x1 PUSH1 0xA0 SHL SUB AND PUSH0 SWAP1 DUP2 MSTORE PUSH1 0x20 DUP2 SWAP1 MSTORE KECCAK256 SLOAD DUP3 GT DUP1 ISZERO PUSH2 0x4DA JUMPI POP PUSH1 0x20 DUP1 DUP3 ADD MLOAD PUSH1 0x1 PUSH1 0x1 PUSH1 0xA0 SHL SUB AND PUSH0 SWAP1 DUP2 MSTORE SWAP1 DUP2 SWAP1 MSTORE PUSH1 0x40 SWAP1 KECCAK256 SLOAD DUP3 LT JUMPDEST ISZERO PUSH2 0x4EF JUMPI PUSH1 0x1 PUSH1 0x1 PUSH1 0xA0 SHL SUB DUP5 AND PUSH1 0x40 DUP3 ADD MSTORE JUMPDEST PUSH2 0x4FC PUSH1 0x1 DUP3 PUSH1 0x3 PUSH2 0x503 JUMP JUMPDEST POP POP POP POP POP JUMP JUMPDEST DUP3 PUSH1 0x3 DUP2 ADD SWAP3 DUP3 ISZERO PUSH2 0x54B JUMPI SWAP2 PUSH1 0x20 MUL DUP3 ADD JUMPDEST DUP3 DUP2 GT ISZERO PUSH2 0x54B JUMPI DUP3 MLOAD DUP3 SLOAD PUSH1 0x1 PUSH1 0x1 PUSH1 0xA0 SHL SUB NOT AND PUSH1 0x1 PUSH1 0x1 PUSH1 0xA0 SHL SUB SWAP1 SWAP2 AND OR DUP3 SSTORE PUSH1 0x20 SWAP1 SWAP3 ADD SWAP2 PUSH1 0x1 SWAP1 SWAP2 ADD SWAP1 PUSH2 0x516 JUMP JUMPDEST POP PUSH2 0x557 SWAP3 SWAP2 POP PUSH2 0x55B JUMP JUMPDEST POP SWAP1 JUMP JUMPDEST JUMPDEST DUP1 DUP3 GT ISZERO PUSH2 0x557 JUMPI PUSH0 DUP2 SSTORE PUSH1 0x1 ADD PUSH2 0x55C JUMP JUMPDEST PUSH0 PUSH1 0x20 DUP3 DUP5 SUB SLT ISZERO PUSH2 0x57F JUMPI PUSH0 DUP1 REVERT JUMPDEST POP CALLDATALOAD SWAP2 SWAP1 POP JUMP JUMPDEST PUSH1 0x1 PUSH1 0x1 PUSH1 0xA0 SHL SUB DUP2 AND DUP2 EQ PUSH2 0x162 JUMPI PUSH0 DUP1 REVERT JUMPDEST PUSH0 PUSH1 0x20 DUP3 DUP5 SUB SLT ISZERO PUSH2 0x5AA JUMPI PUSH0 DUP1 REVERT JUMPDEST DUP2 CALLDATALOAD PUSH2 0x5B5 DUP2 PUSH2 0x586 JUMP JUMPDEST SWAP4 SWAP3 POP POP POP JUMP JUMPDEST PUSH0 PUSH1 0x20 DUP3 DUP5 SUB SLT ISZERO PUSH2 0x5CC JUMPI PUSH0 DUP1 REVERT JUMPDEST DUP2 CALLDATALOAD PUSH8 0xFFFFFFFFFFFFFFFF DUP2 GT ISZERO PUSH2 0x5E2 JUMPI PUSH0 DUP1 REVERT JUMPDEST DUP3 ADD PUSH1 0x40 DUP2 DUP6 SUB SLT ISZERO PUSH2 0x5B5 JUMPI PUSH0 DUP1 REVERT JUMPDEST DUP1 CALLDATALOAD PUSH1 0xFF DUP2 AND DUP2 EQ PUSH2 0x603 JUMPI PUSH0 DUP1 REVERT JUMPDEST SWAP2 SWAP1 POP JUMP JUMPDEST PUSH1 0x20 DUP2 MSTORE PUSH0 DUP3 CALLDATALOAD PUSH1 0x1E NOT DUP5 CALLDATASIZE SUB ADD DUP2 SLT PUSH2 0x620 JUMPI PUSH0 DUP1 REVERT JUMPDEST DUP4 ADD PUSH1 0x20 DUP2 ADD SWAP1 CALLDATALOAD PUSH8 0xFFFFFFFFFFFFFFFF DUP2 GT ISZERO PUSH2 0x63C JUMPI PUSH0 DUP1 REVERT JUMPDEST DUP1 CALLDATASIZE SUB DUP3 SGT ISZERO PUSH2 0x64A JUMPI PUSH0 DUP1 REVERT JUMPDEST PUSH1 0x40 PUSH1 0x20 DUP6 ADD MSTORE DUP1 PUSH1 0x60 DUP6 ADD MSTORE DUP1 DUP3 PUSH1 0x80 DUP7 ADD CALLDATACOPY PUSH0 PUSH1 0x80 DUP3 DUP7 ADD ADD MSTORE PUSH2 0x672 PUSH1 0x20 DUP7 ADD PUSH2 0x5F3 JUMP JUMPDEST PUSH1 0xFF DUP2 AND PUSH1 0x40 DUP7 ADD MSTORE SWAP2 POP PUSH1 0x1F ADD PUSH1 0x1F NOT AND SWAP3 SWAP1 SWAP3 ADD PUSH1 0x80 ADD SWAP4 SWAP3 POP POP POP JUMP JUMPDEST DUP1 DUP3 ADD DUP1 DUP3 GT ISZERO PUSH2 0x6B1 JUMPI PUSH4 0x4E487B71 PUSH1 0xE0 SHL PUSH0 MSTORE PUSH1 0x11 PUSH1 0x4 MSTORE PUSH1 0x24 PUSH0 REVERT JUMPDEST SWAP3 SWAP2 POP POP JUMP JUMPDEST PUSH4 0x4E487B71 PUSH1 0xE0 SHL PUSH0 MSTORE PUSH1 0x32 PUSH1 0x4 MSTORE PUSH1 0x24 PUSH0 REVERT INVALID LOG2 PUSH5 0x6970667358 0x22 SLT KECCAK256 0xDB 0xDF EXTCODESIZE 0x2A 0xEA 0x4F 0xE6 SWAP15 EXTCODESIZE 0xE5 PUSH4 0x7CEF7F9C SWAP13 ADD DUP15 GASLIMIT NUMBER SWAP12 PUSH2 0xC070 0xF6 LOG4 0xC9 0xAF PUSH23 0x7FC19B64736F6C634300081A0033000000000000000000 "
				},
				"gasEstimates": {
					"creation": {
						"codeDepositCost": "358600",
						"executionCost": "24632",
						"totalCost": "383232"
					},
					"external": {
						"": "infinite",
						"deposits(address)": "2579",
						"printPerson((string,uint8))": "infinite",
						"top3Whales(uint256)": "2422",
						"transferAdmin(address)": "26725",
						"withdraw()": "infinite"
					},
					"internal": {
						"depositFromMsgInfo()": "infinite"
					}
				},
				"methodIdentifiers": {
					"deposits(address)": "fc7e286d",
					"printPerson((string,uint8))": "a3cc1e5f",
					"top3Whales(uint256)": "10374309",
					"transferAdmin(address)": "75829def",
					"withdraw()": "3ccfd60b"
				}
			},
			"storageLayout": {
				"storage": [
					{
						"astId": 7,
						"contract": "big-bank.sol:BigBank",
						"label": "deposits",
						"offset": 0,
						"slot": "0",
						"type": "t_mapping(t_address,t_uint256)"
					},
					{
						"astId": 11,
						"contract": "big-bank.sol:BigBank",
						"label": "top3Whales",
						"offset": 0,
						"slot": "1",
						"type": "t_array(t_address)3_storage"
					},
					{
						"astId": 13,
						"contract": "big-bank.sol:BigBank",
						"label": "admin",
						"offset": 0,
						"slot": "4",
						"type": "t_address_payable"
					}
				],
				"types": {
					"t_address": {
						"encoding": "inplace",
						"label": "address",
						"numberOfBytes": "20"
					},
					"t_address_payable": {
						"encoding": "inplace",
						"label": "address payable",
						"numberOfBytes": "20"
					},
					"t_array(t_address)3_storage": {
						"base": "t_address",
						"encoding": "inplace",
						"label": "address[3]",
						"numberOfBytes": "96"
					},
					"t_mapping(t_address,t_uint256)": {
						"encoding": "mapping",
						"key": "t_address",
						"label": "mapping(address => uint256)",
						"numberOfBytes": "32",
						"value": "t_uint256"
					},
					"t_uint256": {
						"encoding": "inplace",
						"label": "uint256",
						"numberOfBytes": "32"
					}
				}
			},
			"userdoc": {
				"kind": "user",
				"methods": {},
				"version": 1
			}
		}
	}
}