{
	"big-bank.sol": {
		"BigBank": {
			"abi": [
				{
					"inputs": [
						{
							"internalType": "uint256",
							"name": "value",
							"type": "uint256"
						}
					],
					"name": "LowerThanMinimumDeposit",
					"type": "error"
				},
				{
					"inputs": [],
					"name": "OnlyAdministratorCanOperate",
					"type": "error"
				},
				{
					"stateMutability": "payable",
					"type": "fallback"
				},
				{
					"inputs": [
						{
							"internalType": "address",
							"name": "",
							"type": "address"
						}
					],
					"name": "deposits",
					"outputs": [
						{
							"internalType": "uint256",
							"name": "",
							"type": "uint256"
						}
					],
					"stateMutability": "view",
					"type": "function"
				},
				{
					"inputs": [
						{
							"internalType": "uint256",
							"name": "",
							"type": "uint256"
						}
					],
					"name": "top3Whales",
					"outputs": [
						{
							"internalType": "address",
							"name": "",
							"type": "address"
						}
					],
					"stateMutability": "view",
					"type": "function"
				},
				{
					"inputs": [
						{
							"internalType": "address payable",
							"name": "newAdmin",
							"type": "address"
						}
					],
					"name": "transferAdmin",
					"outputs": [],
					"stateMutability": "nonpayable",
					"type": "function"
				},
				{
					"inputs": [],
					"name": "withdraw",
					"outputs": [],
					"stateMutability": "nonpayable",
					"type": "function"
				},
				{
					"stateMutability": "payable",
					"type": "receive"
				}
			],
			"devdoc": {
				"kind": "dev",
				"methods": {},
				"version": 1
			},
			"evm": {
				"assembly": "    /* \"big-bank.sol\":135:545  contract BigBank is Bank {... */\n  mstore(0x40, 0x80)\n  callvalue\n  dup1\n  iszero\n  tag_1\n  jumpi\n  0x00\n  dup1\n  revert\ntag_1:\n  pop\n    /* \"bank.sol\":396:401  admin */\n  0x04\n    /* \"bank.sol\":396:423  admin = payable(msg.sender) */\n  dup1\n  sload\n  not(sub(shl(0xa0, 0x01), 0x01))\n  and\n    /* \"bank.sol\":412:422  msg.sender */\n  caller\n    /* \"bank.sol\":396:423  admin = payable(msg.sender) */\n  or\n  swap1\n  sstore\n    /* \"big-bank.sol\":135:545  contract BigBank is Bank {... */\n  dataSize(sub_0)\n  dup1\n  dataOffset(sub_0)\n  0x00\n  codecopy\n  0x00\n  return\nstop\n\nsub_0: assembly {\n        /* \"big-bank.sol\":135:545  contract BigBank is Bank {... */\n      mstore(0x40, 0x80)\n      jumpi(tag_1, lt(calldatasize, 0x04))\n      shr(0xe0, calldataload(0x00))\n      dup1\n      0x10374309\n      eq\n      tag_3\n      jumpi\n      dup1\n      0x3ccfd60b\n      eq\n      tag_4\n      jumpi\n      dup1\n      0x75829def\n      eq\n      tag_5\n      jumpi\n      dup1\n      0xfc7e286d\n      eq\n      tag_6\n      jumpi\n      jump(tag_2)\n    tag_1:\n      jumpi(tag_2, calldatasize)\n        /* \"bank.sol\":1768:1788  depositFromMsgInfo() */\n      tag_9\n        /* \"bank.sol\":1768:1786  depositFromMsgInfo */\n      tag_10\n        /* \"bank.sol\":1768:1788  depositFromMsgInfo() */\n      jump\t// in\n    tag_9:\n        /* \"big-bank.sol\":135:545  contract BigBank is Bank {... */\n      stop\n    tag_2:\n        /* \"bank.sol\":1847:1867  depositFromMsgInfo() */\n      tag_9\n        /* \"bank.sol\":1847:1865  depositFromMsgInfo */\n      tag_10\n        /* \"bank.sol\":1847:1867  depositFromMsgInfo() */\n      jump\t// in\n        /* \"bank.sol\":161:189  address[3] public top3Whales */\n    tag_3:\n      callvalue\n      dup1\n      iszero\n      tag_14\n      jumpi\n      0x00\n      dup1\n      revert\n    tag_14:\n      pop\n      tag_15\n      tag_16\n      calldatasize\n      0x04\n      tag_17\n      jump\t// in\n    tag_16:\n      tag_18\n      jump\t// in\n    tag_15:\n      mload(0x40)\n      sub(shl(0xa0, 0x01), 0x01)\n        /* \"#utility.yul\":363:395   */\n      swap1\n      swap2\n      and\n        /* \"#utility.yul\":345:396   */\n      dup2\n      mstore\n        /* \"#utility.yul\":333:335   */\n      0x20\n        /* \"#utility.yul\":318:336   */\n      add\n        /* \"bank.sol\":161:189  address[3] public top3Whales */\n    tag_19:\n      mload(0x40)\n      dup1\n      swap2\n      sub\n      swap1\n      return\n        /* \"bank.sol\":436:737  function withdraw() public onlyOwner {... */\n    tag_4:\n      callvalue\n      dup1\n      iszero\n      tag_21\n      jumpi\n      0x00\n      dup1\n      revert\n    tag_21:\n      pop\n      tag_9\n      tag_23\n      jump\t// in\n        /* \"big-bank.sol\":320:419  function transferAdmin(address payable newAdmin) public onlyOwner {... */\n    tag_5:\n      callvalue\n      dup1\n      iszero\n      tag_24\n      jumpi\n      0x00\n      dup1\n      revert\n    tag_24:\n      pop\n      tag_9\n      tag_26\n      calldatasize\n      0x04\n      tag_27\n      jump\t// in\n    tag_26:\n      tag_28\n      jump\t// in\n        /* \"bank.sol\":115:155  mapping(address => uint) public deposits */\n    tag_6:\n      callvalue\n      dup1\n      iszero\n      tag_29\n      jumpi\n      0x00\n      dup1\n      revert\n    tag_29:\n      pop\n      tag_30\n      tag_31\n      calldatasize\n      0x04\n      tag_27\n      jump\t// in\n    tag_31:\n      0x00\n      0x20\n      dup2\n      swap1\n      mstore\n      swap1\n      dup2\n      mstore\n      0x40\n      swap1\n      keccak256\n      sload\n      dup2\n      jump\n    tag_30:\n      mload(0x40)\n        /* \"#utility.yul\":1225:1250   */\n      swap1\n      dup2\n      mstore\n        /* \"#utility.yul\":1213:1215   */\n      0x20\n        /* \"#utility.yul\":1198:1216   */\n      add\n        /* \"bank.sol\":115:155  mapping(address => uint) public deposits */\n      tag_19\n        /* \"#utility.yul\":1079:1256   */\n      jump\n        /* \"big-bank.sol\":425:543  function depositFromMsgInfo() internal minimumValue(0.0001 ether) override {... */\n    tag_10:\n        /* \"big-bank.sol\":477:489  0.0001 ether */\n      0x5af3107a4000\n        /* \"big-bank.sol\":228:233  value */\n      dup1\n        /* \"big-bank.sol\":215:224  msg.value */\n      callvalue\n        /* \"big-bank.sol\":215:233  msg.value <= value */\n      gt\n        /* \"big-bank.sol\":211:297  if (msg.value <= value) {... */\n      tag_37\n      jumpi\n        /* \"big-bank.sol\":256:286  LowerThanMinimumDeposit(value) */\n      mload(0x40)\n      shl(0xe1, 0x36a6b01f)\n      dup2\n      mstore\n      0x04\n      dup2\n      add\n        /* \"#utility.yul\":1225:1250   */\n      dup3\n      swap1\n      mstore\n        /* \"#utility.yul\":1198:1216   */\n      0x24\n      add\n        /* \"big-bank.sol\":256:286  LowerThanMinimumDeposit(value) */\n    tag_38:\n      mload(0x40)\n      dup1\n      swap2\n      sub\n      swap1\n      revert\n        /* \"big-bank.sol\":211:297  if (msg.value <= value) {... */\n    tag_37:\n        /* \"big-bank.sol\":510:536  super.depositFromMsgInfo() */\n      tag_40\n        /* \"big-bank.sol\":510:534  super.depositFromMsgInfo */\n      tag_41\n        /* \"big-bank.sol\":510:536  super.depositFromMsgInfo() */\n      jump\t// in\n    tag_40:\n        /* \"big-bank.sol\":425:543  function depositFromMsgInfo() internal minimumValue(0.0001 ether) override {... */\n      pop\n      jump\t// out\n        /* \"bank.sol\":161:189  address[3] public top3Whales */\n    tag_18:\n      0x01\n      dup2\n      0x03\n      dup2\n      lt\n      tag_42\n      jumpi\n      0x00\n      dup1\n      revert\n    tag_42:\n      add\n      sload\n      sub(shl(0xa0, 0x01), 0x01)\n      and\n      swap1\n      pop\n      dup2\n      jump\t// out\n        /* \"bank.sol\":436:737  function withdraw() public onlyOwner {... */\n    tag_23:\n        /* \"bank.sol\":281:286  admin */\n      and(sub(shl(0xa0, 0x01), 0x01), sload(0x04))\n        /* \"bank.sol\":267:277  msg.sender */\n      caller\n        /* \"bank.sol\":267:286  msg.sender != admin */\n      eq\n        /* \"bank.sol\":263:349  if (msg.sender != admin) {... */\n      tag_45\n      jumpi\n        /* \"bank.sol\":309:338  OnlyAdministratorCanOperate() */\n      mload(0x40)\n      shl(0xe2, 0x019dce79)\n      dup2\n      mstore\n      0x04\n      add\n      mload(0x40)\n      dup1\n      swap2\n      sub\n      swap1\n      revert\n        /* \"bank.sol\":263:349  if (msg.sender != admin) {... */\n    tag_45:\n        /* \"bank.sol\":506:527  address(this).balance */\n      selfbalance\n        /* \"bank.sol\":545:564  depositsBalance > 0 */\n      dup1\n        /* \"bank.sol\":537:599  require(depositsBalance > 0, \"No balance remains to withdraw\") */\n      tag_47\n      jumpi\n      mload(0x40)\n      shl(0xe5, 0x461bcd)\n      dup2\n      mstore\n        /* \"#utility.yul\":1463:1465   */\n      0x20\n        /* \"bank.sol\":537:599  require(depositsBalance > 0, \"No balance remains to withdraw\") */\n      0x04\n      dup3\n      add\n        /* \"#utility.yul\":1445:1466   */\n      mstore\n        /* \"#utility.yul\":1502:1504   */\n      0x1e\n        /* \"#utility.yul\":1482:1500   */\n      0x24\n      dup3\n      add\n        /* \"#utility.yul\":1475:1505   */\n      mstore\n        /* \"#utility.yul\":1541:1573   */\n      0x4e6f2062616c616e63652072656d61696e7320746f2077697468647261770000\n        /* \"#utility.yul\":1521:1539   */\n      0x44\n      dup3\n      add\n        /* \"#utility.yul\":1514:1574   */\n      mstore\n        /* \"#utility.yul\":1591:1609   */\n      0x64\n      add\n        /* \"bank.sol\":537:599  require(depositsBalance > 0, \"No balance remains to withdraw\") */\n      tag_38\n        /* \"#utility.yul\":1261:1615   */\n      jump\n        /* \"bank.sol\":537:599  require(depositsBalance > 0, \"No balance remains to withdraw\") */\n    tag_47:\n        /* \"bank.sol\":627:632  admin */\n      sload(0x04)\n        /* \"bank.sol\":627:665  admin.call{value: depositsBalance}(\"\") */\n      mload(0x40)\n        /* \"bank.sol\":610:622  bool success */\n      0x00\n      swap2\n      sub(shl(0xa0, 0x01), 0x01)\n        /* \"bank.sol\":627:632  admin */\n      and\n      swap1\n        /* \"bank.sol\":645:660  depositsBalance */\n      dup4\n      swap1\n        /* \"bank.sol\":610:622  bool success */\n      dup4\n        /* \"bank.sol\":627:665  admin.call{value: depositsBalance}(\"\") */\n      dup2\n        /* \"bank.sol\":610:622  bool success */\n      dup2\n        /* \"bank.sol\":627:665  admin.call{value: depositsBalance}(\"\") */\n      dup2\n        /* \"bank.sol\":645:660  depositsBalance */\n      dup6\n        /* \"bank.sol\":627:632  admin */\n      dup8\n        /* \"bank.sol\":627:665  admin.call{value: depositsBalance}(\"\") */\n      gas\n      call\n      swap3\n      pop\n      pop\n      pop\n      returndatasize\n      dup1\n      0x00\n      dup2\n      eq\n      tag_54\n      jumpi\n      mload(0x40)\n      swap2\n      pop\n      and(add(returndatasize, 0x3f), not(0x1f))\n      dup3\n      add\n      0x40\n      mstore\n      returndatasize\n      dup3\n      mstore\n      returndatasize\n      0x00\n      0x20\n      dup5\n      add\n      returndatacopy\n      jump(tag_53)\n    tag_54:\n      0x60\n      swap2\n      pop\n    tag_53:\n      pop\n        /* \"bank.sol\":609:665  (bool success,) = admin.call{value: depositsBalance}(\"\") */\n      pop\n      swap1\n      pop\n        /* \"bank.sol\":683:690  success */\n      dup1\n        /* \"bank.sol\":675:730  require(success, \"Failed to withdraw all the deposits\") */\n      tag_55\n      jumpi\n      mload(0x40)\n      shl(0xe5, 0x461bcd)\n      dup2\n      mstore\n        /* \"#utility.yul\":2032:2034   */\n      0x20\n        /* \"bank.sol\":675:730  require(success, \"Failed to withdraw all the deposits\") */\n      0x04\n      dup3\n      add\n        /* \"#utility.yul\":2014:2035   */\n      mstore\n        /* \"#utility.yul\":2071:2073   */\n      0x23\n        /* \"#utility.yul\":2051:2069   */\n      0x24\n      dup3\n      add\n        /* \"#utility.yul\":2044:2074   */\n      mstore\n        /* \"#utility.yul\":2110:2144   */\n      0x4661696c656420746f20776974686472617720616c6c20746865206465706f73\n        /* \"#utility.yul\":2090:2108   */\n      0x44\n      dup3\n      add\n        /* \"#utility.yul\":2083:2145   */\n      mstore\n      shl(0xe8, 0x697473)\n        /* \"#utility.yul\":2161:2179   */\n      0x64\n      dup3\n      add\n        /* \"#utility.yul\":2154:2187   */\n      mstore\n        /* \"#utility.yul\":2204:2223   */\n      0x84\n      add\n        /* \"bank.sol\":675:730  require(success, \"Failed to withdraw all the deposits\") */\n      tag_38\n        /* \"#utility.yul\":1830:2229   */\n      jump\n        /* \"bank.sol\":675:730  require(success, \"Failed to withdraw all the deposits\") */\n    tag_55:\n        /* \"bank.sol\":473:737  {... */\n      pop\n      pop\n        /* \"bank.sol\":436:737  function withdraw() public onlyOwner {... */\n      jump\t// out\n        /* \"big-bank.sol\":320:419  function transferAdmin(address payable newAdmin) public onlyOwner {... */\n    tag_28:\n        /* \"bank.sol\":281:286  admin */\n      and(sub(shl(0xa0, 0x01), 0x01), sload(0x04))\n        /* \"bank.sol\":267:277  msg.sender */\n      caller\n        /* \"bank.sol\":267:286  msg.sender != admin */\n      eq\n        /* \"bank.sol\":263:349  if (msg.sender != admin) {... */\n      tag_59\n      jumpi\n        /* \"bank.sol\":309:338  OnlyAdministratorCanOperate() */\n      mload(0x40)\n      shl(0xe2, 0x019dce79)\n      dup2\n      mstore\n      0x04\n      add\n      mload(0x40)\n      dup1\n      swap2\n      sub\n      swap1\n      revert\n        /* \"bank.sol\":263:349  if (msg.sender != admin) {... */\n    tag_59:\n        /* \"big-bank.sol\":396:401  admin */\n      0x04\n        /* \"big-bank.sol\":396:412  admin = newAdmin */\n      dup1\n      sload\n      not(sub(shl(0xa0, 0x01), 0x01))\n      and\n      sub(shl(0xa0, 0x01), 0x01)\n      swap3\n      swap1\n      swap3\n      and\n      swap2\n      swap1\n      swap2\n      or\n      swap1\n      sstore\n        /* \"big-bank.sol\":320:419  function transferAdmin(address payable newAdmin) public onlyOwner {... */\n      jump\t// out\n        /* \"bank.sol\":1623:1717  function depositFromMsgInfo() internal virtual {... */\n    tag_41:\n        /* \"bank.sol\":1680:1710  deposit(msg.sender, msg.value) */\n      tag_62\n        /* \"bank.sol\":1688:1698  msg.sender */\n      caller\n        /* \"bank.sol\":1700:1709  msg.value */\n      callvalue\n        /* \"bank.sol\":1680:1687  deposit */\n      tag_63\n        /* \"bank.sol\":1680:1710  deposit(msg.sender, msg.value) */\n      jump\t// in\n    tag_62:\n        /* \"bank.sol\":1623:1717  function depositFromMsgInfo() internal virtual {... */\n      jump\t// out\n        /* \"bank.sol\":743:1617  function deposit(address account, uint amount) private {... */\n    tag_63:\n      sub(shl(0xa0, 0x01), 0x01)\n        /* \"bank.sol\":808:825  deposits[account] */\n      dup3\n      and\n        /* \"bank.sol\":808:816  deposits */\n      0x00\n        /* \"bank.sol\":808:825  deposits[account] */\n      swap1\n      dup2\n      mstore\n      0x20\n      dup2\n      swap1\n      mstore\n      0x40\n      dup2\n      keccak256\n        /* \"bank.sol\":808:835  deposits[account] += amount */\n      dup1\n      sload\n        /* \"bank.sol\":829:835  amount */\n      dup4\n      swap3\n        /* \"bank.sol\":808:816  deposits */\n      swap1\n        /* \"bank.sol\":808:835  deposits[account] += amount */\n      tag_65\n      swap1\n        /* \"bank.sol\":829:835  amount */\n      dup5\n      swap1\n        /* \"bank.sol\":808:835  deposits[account] += amount */\n      tag_66\n      jump\t// in\n    tag_65:\n      swap1\n      swap2\n      sstore\n      pop\n      pop\n      sub(shl(0xa0, 0x01), 0x01)\n        /* \"bank.sol\":874:891  deposits[account] */\n      dup3\n      and\n        /* \"bank.sol\":845:871  uint currentAccountDeposit */\n      0x00\n        /* \"bank.sol\":874:891  deposits[account] */\n      swap1\n      dup2\n      mstore\n      0x20\n      dup2\n      swap1\n      mstore\n      0x40\n      dup1\n      dup3\n      keccak256\n      sload\n        /* \"bank.sol\":901:947  address[3] memory localTop3Whales = top3Whales */\n      dup2\n      mload\n      0x60\n      dup2\n      add\n      swap3\n      dup4\n      swap1\n      mstore\n        /* \"bank.sol\":874:891  deposits[account] */\n      swap1\n      swap3\n        /* \"bank.sol\":845:871  uint currentAccountDeposit */\n      swap2\n        /* \"bank.sol\":937:947  top3Whales */\n      0x01\n      swap1\n        /* \"bank.sol\":901:947  address[3] memory localTop3Whales = top3Whales */\n      0x03\n      swap1\n        /* \"bank.sol\":937:947  top3Whales */\n      dup3\n        /* \"bank.sol\":901:947  address[3] memory localTop3Whales = top3Whales */\n      dup5\n    tag_68:\n      dup2\n      sload\n      sub(shl(0xa0, 0x01), 0x01)\n      and\n      dup2\n      mstore\n      0x01\n      swap1\n      swap2\n      add\n      swap1\n      0x20\n      add\n      dup1\n      dup4\n      gt\n      tag_68\n      jumpi\n      pop\n      pop\n      pop\n      pop\n      pop\n      swap1\n      pop\n        /* \"bank.sol\":985:993  deposits */\n      0x00\n        /* \"bank.sol\":985:1013  deposits[localTop3Whales[0]] */\n      dup1\n        /* \"bank.sol\":994:1009  localTop3Whales */\n      dup3\n        /* \"bank.sol\":1010:1011  0 */\n      0x00\n        /* \"bank.sol\":994:1012  localTop3Whales[0] */\n      0x03\n      dup2\n      lt\n      tag_70\n      jumpi\n      tag_70\n      tag_71\n      jump\t// in\n    tag_70:\n      0x20\n      mul\n      add\n      mload\n      sub(shl(0xa0, 0x01), 0x01)\n        /* \"bank.sol\":985:1013  deposits[localTop3Whales[0]] */\n      and\n      sub(shl(0xa0, 0x01), 0x01)\n      and\n      dup2\n      mstore\n      0x20\n      add\n      swap1\n      dup2\n      mstore\n      0x20\n      add\n      0x00\n      keccak256\n      sload\n        /* \"bank.sol\":961:982  currentAccountDeposit */\n      dup3\n        /* \"bank.sol\":961:1013  currentAccountDeposit > deposits[localTop3Whales[0]] */\n      gt\n        /* \"bank.sol\":957:1573  if (currentAccountDeposit > deposits[localTop3Whales[0]]) {... */\n      iszero\n      tag_72\n      jumpi\n        /* \"bank.sol\":1050:1068  localTop3Whales[1] */\n      0x20\n      dup2\n      add\n      dup1\n      mload\n      sub(shl(0xa0, 0x01), 0x01)\n        /* \"bank.sol\":1029:1068  localTop3Whales[2] = localTop3Whales[1] */\n      swap1\n      dup2\n      and\n        /* \"bank.sol\":1029:1047  localTop3Whales[2] */\n      0x40\n      dup5\n      add\n        /* \"bank.sol\":1029:1068  localTop3Whales[2] = localTop3Whales[1] */\n      mstore\n        /* \"bank.sol\":1103:1121  localTop3Whales[0] */\n      dup3\n      mload\n        /* \"bank.sol\":1082:1121  localTop3Whales[1] = localTop3Whales[0] */\n      and\n      swap1\n      mstore\n        /* \"bank.sol\":1156:1163  account */\n      dup4\n        /* \"bank.sol\":1050:1065  localTop3Whales */\n      dup2\n      0x00\n        /* \"bank.sol\":1135:1153  localTop3Whales[0] */\n    tag_82:\n      sub(shl(0xa0, 0x01), 0x01)\n        /* \"bank.sol\":1135:1163  localTop3Whales[0] = account */\n      swap1\n      swap3\n      and\n        /* \"bank.sol\":1135:1153  localTop3Whales[0] */\n      0x20\n      swap3\n      swap1\n      swap3\n      mul\n      add\n        /* \"bank.sol\":1135:1163  localTop3Whales[0] = account */\n      mstore\n        /* \"bank.sol\":957:1573  if (currentAccountDeposit > deposits[localTop3Whales[0]]) {... */\n      jump(tag_102)\n    tag_72:\n        /* \"bank.sol\":1217:1235  localTop3Whales[1] */\n      0x20\n      dup1\n      dup3\n      add\n      mload\n      sub(shl(0xa0, 0x01), 0x01)\n        /* \"bank.sol\":1208:1236  deposits[localTop3Whales[1]] */\n      and\n        /* \"bank.sol\":1208:1216  deposits */\n      0x00\n        /* \"bank.sol\":1208:1236  deposits[localTop3Whales[1]] */\n      swap1\n      dup2\n      mstore\n      swap1\n      dup2\n      swap1\n      mstore\n      0x40\n      swap1\n      keccak256\n      sload\n        /* \"bank.sol\":1184:1236  currentAccountDeposit > deposits[localTop3Whales[1]] */\n      dup3\n      gt\n        /* \"bank.sol\":1184:1292  currentAccountDeposit > deposits[localTop3Whales[1]] && currentAccountDeposit < deposits[localTop3Whales[0]] */\n      dup1\n      iszero\n      tag_86\n      jumpi\n      pop\n        /* \"bank.sol\":1273:1291  localTop3Whales[0] */\n      dup1\n      mload\n      sub(shl(0xa0, 0x01), 0x01)\n        /* \"bank.sol\":1264:1292  deposits[localTop3Whales[0]] */\n      and\n        /* \"bank.sol\":1264:1272  deposits */\n      0x00\n        /* \"bank.sol\":1264:1292  deposits[localTop3Whales[0]] */\n      swap1\n      dup2\n      mstore\n        /* \"bank.sol\":1273:1291  localTop3Whales[0] */\n      0x20\n        /* \"bank.sol\":1264:1292  deposits[localTop3Whales[0]] */\n      dup2\n      swap1\n      mstore\n      0x40\n      swap1\n      keccak256\n      sload\n        /* \"bank.sol\":1240:1292  currentAccountDeposit < deposits[localTop3Whales[0]] */\n      dup3\n      lt\n        /* \"bank.sol\":1184:1292  currentAccountDeposit > deposits[localTop3Whales[1]] && currentAccountDeposit < deposits[localTop3Whales[0]] */\n    tag_86:\n        /* \"bank.sol\":1180:1573  if (currentAccountDeposit > deposits[localTop3Whales[1]] && currentAccountDeposit < deposits[localTop3Whales[0]]) {... */\n      iszero\n      tag_89\n      jumpi\n        /* \"bank.sol\":1329:1347  localTop3Whales[1] */\n      0x20\n      dup2\n      add\n      mload\n      sub(shl(0xa0, 0x01), 0x01)\n        /* \"bank.sol\":1308:1347  localTop3Whales[2] = localTop3Whales[1] */\n      and\n        /* \"bank.sol\":1308:1326  localTop3Whales[2] */\n      0x40\n      dup3\n      add\n        /* \"bank.sol\":1308:1347  localTop3Whales[2] = localTop3Whales[1] */\n      mstore\n        /* \"bank.sol\":1382:1389  account */\n      dup4\n        /* \"bank.sol\":1329:1344  localTop3Whales */\n      dup2\n        /* \"bank.sol\":1345:1346  1 */\n      0x01\n        /* \"bank.sol\":1361:1379  localTop3Whales[1] */\n      jump(tag_82)\n        /* \"bank.sol\":1180:1573  if (currentAccountDeposit > deposits[localTop3Whales[1]] && currentAccountDeposit < deposits[localTop3Whales[0]]) {... */\n    tag_89:\n        /* \"bank.sol\":1443:1461  localTop3Whales[2] */\n      0x40\n      dup1\n      dup3\n      add\n      mload\n      sub(shl(0xa0, 0x01), 0x01)\n        /* \"bank.sol\":1434:1462  deposits[localTop3Whales[2]] */\n      and\n        /* \"bank.sol\":1434:1442  deposits */\n      0x00\n        /* \"bank.sol\":1434:1462  deposits[localTop3Whales[2]] */\n      swap1\n      dup2\n      mstore\n        /* \"bank.sol\":1443:1461  localTop3Whales[2] */\n      0x20\n        /* \"bank.sol\":1434:1462  deposits[localTop3Whales[2]] */\n      dup2\n      swap1\n      mstore\n      keccak256\n      sload\n        /* \"bank.sol\":1410:1462  currentAccountDeposit > deposits[localTop3Whales[2]] */\n      dup3\n      gt\n        /* \"bank.sol\":1410:1518  currentAccountDeposit > deposits[localTop3Whales[2]] && currentAccountDeposit < deposits[localTop3Whales[1]] */\n      dup1\n      iszero\n      tag_99\n      jumpi\n      pop\n        /* \"bank.sol\":1499:1517  localTop3Whales[1] */\n      0x20\n      dup1\n      dup3\n      add\n      mload\n      sub(shl(0xa0, 0x01), 0x01)\n        /* \"bank.sol\":1490:1518  deposits[localTop3Whales[1]] */\n      and\n        /* \"bank.sol\":1490:1498  deposits */\n      0x00\n        /* \"bank.sol\":1490:1518  deposits[localTop3Whales[1]] */\n      swap1\n      dup2\n      mstore\n      swap1\n      dup2\n      swap1\n      mstore\n      0x40\n      swap1\n      keccak256\n      sload\n        /* \"bank.sol\":1466:1518  currentAccountDeposit < deposits[localTop3Whales[1]] */\n      dup3\n      lt\n        /* \"bank.sol\":1410:1518  currentAccountDeposit > deposits[localTop3Whales[2]] && currentAccountDeposit < deposits[localTop3Whales[1]] */\n    tag_99:\n        /* \"bank.sol\":1406:1573  if (currentAccountDeposit > deposits[localTop3Whales[2]] && currentAccountDeposit < deposits[localTop3Whales[1]]) {... */\n      iszero\n      tag_102\n      jumpi\n      sub(shl(0xa0, 0x01), 0x01)\n        /* \"bank.sol\":1534:1562  localTop3Whales[2] = account */\n      dup5\n      and\n        /* \"bank.sol\":1534:1552  localTop3Whales[2] */\n      0x40\n      dup3\n      add\n        /* \"bank.sol\":1534:1562  localTop3Whales[2] = account */\n      mstore\n        /* \"bank.sol\":1406:1573  if (currentAccountDeposit > deposits[localTop3Whales[2]] && currentAccountDeposit < deposits[localTop3Whales[1]]) {... */\n    tag_102:\n        /* \"bank.sol\":1582:1610  top3Whales = localTop3Whales */\n      tag_105\n        /* \"bank.sol\":1582:1592  top3Whales */\n      0x01\n        /* \"bank.sol\":1595:1610  localTop3Whales */\n      dup3\n        /* \"bank.sol\":1582:1610  top3Whales = localTop3Whales */\n      0x03\n      tag_106\n      jump\t// in\n    tag_105:\n      pop\n        /* \"bank.sol\":798:1617  {... */\n      pop\n      pop\n        /* \"bank.sol\":743:1617  function deposit(address account, uint amount) private {... */\n      pop\n      pop\n      jump\t// out\n    tag_106:\n      dup3\n      0x03\n      dup2\n      add\n      swap3\n      dup3\n      iszero\n      tag_109\n      jumpi\n      swap2\n      0x20\n      mul\n      dup3\n      add\n    tag_108:\n      dup3\n      dup2\n      gt\n      iszero\n      tag_109\n      jumpi\n      dup3\n      mload\n      dup3\n      sload\n      not(sub(shl(0xa0, 0x01), 0x01))\n      and\n      sub(shl(0xa0, 0x01), 0x01)\n      swap1\n      swap2\n      and\n      or\n      dup3\n      sstore\n      0x20\n      swap1\n      swap3\n      add\n      swap2\n      0x01\n      swap1\n      swap2\n      add\n      swap1\n      jump(tag_108)\n    tag_109:\n      pop\n      tag_110\n      swap3\n      swap2\n      pop\n      tag_111\n      jump\t// in\n    tag_110:\n      pop\n      swap1\n      jump\t// out\n    tag_111:\n    tag_112:\n      dup1\n      dup3\n      gt\n      iszero\n      tag_110\n      jumpi\n      0x00\n      dup2\n      sstore\n      0x01\n      add\n      jump(tag_112)\n        /* \"#utility.yul\":14:194   */\n    tag_17:\n        /* \"#utility.yul\":73:79   */\n      0x00\n        /* \"#utility.yul\":126:128   */\n      0x20\n        /* \"#utility.yul\":114:123   */\n      dup3\n        /* \"#utility.yul\":105:112   */\n      dup5\n        /* \"#utility.yul\":101:124   */\n      sub\n        /* \"#utility.yul\":97:129   */\n      slt\n        /* \"#utility.yul\":94:146   */\n      iszero\n      tag_117\n      jumpi\n        /* \"#utility.yul\":142:143   */\n      0x00\n        /* \"#utility.yul\":139:140   */\n      dup1\n        /* \"#utility.yul\":132:144   */\n      revert\n        /* \"#utility.yul\":94:146   */\n    tag_117:\n      pop\n        /* \"#utility.yul\":165:188   */\n      calldataload\n      swap2\n        /* \"#utility.yul\":14:194   */\n      swap1\n      pop\n      jump\t// out\n        /* \"#utility.yul\":407:546   */\n    tag_114:\n      sub(shl(0xa0, 0x01), 0x01)\n        /* \"#utility.yul\":490:521   */\n      dup2\n      and\n        /* \"#utility.yul\":480:522   */\n      dup2\n      eq\n        /* \"#utility.yul\":470:540   */\n      tag_40\n      jumpi\n        /* \"#utility.yul\":536:537   */\n      0x00\n        /* \"#utility.yul\":533:534   */\n      dup1\n        /* \"#utility.yul\":526:538   */\n      revert\n        /* \"#utility.yul\":551:814   */\n    tag_27:\n        /* \"#utility.yul\":618:624   */\n      0x00\n        /* \"#utility.yul\":671:673   */\n      0x20\n        /* \"#utility.yul\":659:668   */\n      dup3\n        /* \"#utility.yul\":650:657   */\n      dup5\n        /* \"#utility.yul\":646:669   */\n      sub\n        /* \"#utility.yul\":642:674   */\n      slt\n        /* \"#utility.yul\":639:691   */\n      iszero\n      tag_122\n      jumpi\n        /* \"#utility.yul\":687:688   */\n      0x00\n        /* \"#utility.yul\":684:685   */\n      dup1\n        /* \"#utility.yul\":677:689   */\n      revert\n        /* \"#utility.yul\":639:691   */\n    tag_122:\n        /* \"#utility.yul\":726:735   */\n      dup2\n        /* \"#utility.yul\":713:736   */\n      calldataload\n        /* \"#utility.yul\":745:784   */\n      tag_123\n        /* \"#utility.yul\":778:783   */\n      dup2\n        /* \"#utility.yul\":745:784   */\n      tag_114\n      jump\t// in\n    tag_123:\n        /* \"#utility.yul\":803:808   */\n      swap4\n        /* \"#utility.yul\":551:814   */\n      swap3\n      pop\n      pop\n      pop\n      jump\t// out\n        /* \"#utility.yul\":2234:2456   */\n    tag_66:\n        /* \"#utility.yul\":2299:2308   */\n      dup1\n      dup3\n      add\n        /* \"#utility.yul\":2320:2330   */\n      dup1\n      dup3\n      gt\n        /* \"#utility.yul\":2317:2450   */\n      iszero\n      tag_132\n      jumpi\n        /* \"#utility.yul\":2372:2382   */\n      0x4e487b71\n        /* \"#utility.yul\":2367:2370   */\n      0xe0\n        /* \"#utility.yul\":2363:2383   */\n      shl\n        /* \"#utility.yul\":2360:2361   */\n      0x00\n        /* \"#utility.yul\":2353:2384   */\n      mstore\n        /* \"#utility.yul\":2407:2411   */\n      0x11\n        /* \"#utility.yul\":2404:2405   */\n      0x04\n        /* \"#utility.yul\":2397:2412   */\n      mstore\n        /* \"#utility.yul\":2435:2439   */\n      0x24\n        /* \"#utility.yul\":2432:2433   */\n      0x00\n        /* \"#utility.yul\":2425:2440   */\n      revert\n        /* \"#utility.yul\":2317:2450   */\n    tag_132:\n        /* \"#utility.yul\":2234:2456   */\n      swap3\n      swap2\n      pop\n      pop\n      jump\t// out\n        /* \"#utility.yul\":2461:2588   */\n    tag_71:\n        /* \"#utility.yul\":2522:2532   */\n      0x4e487b71\n        /* \"#utility.yul\":2517:2520   */\n      0xe0\n        /* \"#utility.yul\":2513:2533   */\n      shl\n        /* \"#utility.yul\":2510:2511   */\n      0x00\n        /* \"#utility.yul\":2503:2534   */\n      mstore\n        /* \"#utility.yul\":2553:2557   */\n      0x32\n        /* \"#utility.yul\":2550:2551   */\n      0x04\n        /* \"#utility.yul\":2543:2558   */\n      mstore\n        /* \"#utility.yul\":2577:2581   */\n      0x24\n        /* \"#utility.yul\":2574:2575   */\n      0x00\n        /* \"#utility.yul\":2567:2582   */\n      revert\n\n    auxdata: 0xa2646970667358221220c2ad111f878f64556a9be974ac3e303e35e861bd0ee306f418913ca577557b0164736f6c634300081a0033\n}\n",
				"bytecode": {
					"linkReferences": {},
					"object": "6080604052348015600e575f80fd5b50600480546001600160a01b031916331790556105c78061002e5f395ff3fe608060405260043610610042575f3560e01c806310374309146100595780633ccfd60b1461009557806375829def146100a9578063fc7e286d146100c857610051565b366100515761004f610101565b005b61004f610101565b348015610064575f80fd5b5061007861007336600461050b565b61013b565b6040516001600160a01b0390911681526020015b60405180910390f35b3480156100a0575f80fd5b5061004f61015a565b3480156100b4575f80fd5b5061004f6100c3366004610536565b610283565b3480156100d3575f80fd5b506100f36100e2366004610536565b5f6020819052908152604090205481565b60405190815260200161008c565b655af3107a4000803411610130576040516336a6b01f60e11b8152600481018290526024015b60405180910390fd5b6101386102d0565b50565b6001816003811061014a575f80fd5b01546001600160a01b0316905081565b6004546001600160a01b031633146101855760405163019dce7960e21b815260040160405180910390fd5b47806101d35760405162461bcd60e51b815260206004820152601e60248201527f4e6f2062616c616e63652072656d61696e7320746f20776974686472617700006044820152606401610127565b6004546040515f916001600160a01b03169083908381818185875af1925050503d805f811461021d576040519150601f19603f3d011682016040523d82523d5f602084013e610222565b606091505b505090508061027f5760405162461bcd60e51b815260206004820152602360248201527f4661696c656420746f20776974686472617720616c6c20746865206465706f7360448201526269747360e81b6064820152608401610127565b5050565b6004546001600160a01b031633146102ae5760405163019dce7960e21b815260040160405180910390fd5b600480546001600160a01b0319166001600160a01b0392909216919091179055565b6102da33346102dc565b565b6001600160a01b0382165f9081526020819052604081208054839290610303908490610558565b90915550506001600160a01b0382165f90815260208190526040808220548151606081019283905290929160019060039082845b81546001600160a01b0316815260019091019060200180831161033757505050505090505f80825f6003811061036f5761036f61057d565b60200201516001600160a01b03166001600160a01b031681526020019081526020015f20548211156103d2576020810180516001600160a01b039081166040840152825116905283815f5b6001600160a01b03909216602092909202015261048b565b6020808201516001600160a01b03165f90815290819052604090205482118015610413575080516001600160a01b03165f9081526020819052604090205482105b156104345760208101516001600160a01b03166040820152838160016103ba565b6040808201516001600160a01b03165f908152602081905220548211801561047657506020808201516001600160a01b03165f90815290819052604090205482105b1561048b576001600160a01b03841660408201525b610498600182600361049f565b5050505050565b82600381019282156104e7579160200282015b828111156104e757825182546001600160a01b0319166001600160a01b039091161782556020909201916001909101906104b2565b506104f39291506104f7565b5090565b5b808211156104f3575f81556001016104f8565b5f6020828403121561051b575f80fd5b5035919050565b6001600160a01b0381168114610138575f80fd5b5f60208284031215610546575f80fd5b813561055181610522565b9392505050565b8082018082111561057757634e487b7160e01b5f52601160045260245ffd5b92915050565b634e487b7160e01b5f52603260045260245ffdfea2646970667358221220c2ad111f878f64556a9be974ac3e303e35e861bd0ee306f418913ca577557b0164736f6c634300081a0033",
					"opcodes": "PUSH1 0x80 PUSH1 0x40 MSTORE CALLVALUE DUP1 ISZERO PUSH1 0xE JUMPI PUSH0 DUP1 REVERT JUMPDEST POP PUSH1 0x4 DUP1 SLOAD PUSH1 0x1 PUSH1 0x1 PUSH1 0xA0 SHL SUB NOT AND CALLER OR SWAP1 SSTORE PUSH2 0x5C7 DUP1 PUSH2 0x2E PUSH0 CODECOPY PUSH0 RETURN INVALID PUSH1 0x80 PUSH1 0x40 MSTORE PUSH1 0x4 CALLDATASIZE LT PUSH2 0x42 JUMPI PUSH0 CALLDATALOAD PUSH1 0xE0 SHR DUP1 PUSH4 0x10374309 EQ PUSH2 0x59 JUMPI DUP1 PUSH4 0x3CCFD60B EQ PUSH2 0x95 JUMPI DUP1 PUSH4 0x75829DEF EQ PUSH2 0xA9 JUMPI DUP1 PUSH4 0xFC7E286D EQ PUSH2 0xC8 JUMPI PUSH2 0x51 JUMP JUMPDEST CALLDATASIZE PUSH2 0x51 JUMPI PUSH2 0x4F PUSH2 0x101 JUMP JUMPDEST STOP JUMPDEST PUSH2 0x4F PUSH2 0x101 JUMP JUMPDEST CALLVALUE DUP1 ISZERO PUSH2 0x64 JUMPI PUSH0 DUP1 REVERT JUMPDEST POP PUSH2 0x78 PUSH2 0x73 CALLDATASIZE PUSH1 0x4 PUSH2 0x50B JUMP JUMPDEST PUSH2 0x13B JUMP JUMPDEST PUSH1 0x40 MLOAD PUSH1 0x1 PUSH1 0x1 PUSH1 0xA0 SHL SUB SWAP1 SWAP2 AND DUP2 MSTORE PUSH1 0x20 ADD JUMPDEST PUSH1 0x40 MLOAD DUP1 SWAP2 SUB SWAP1 RETURN JUMPDEST CALLVALUE DUP1 ISZERO PUSH2 0xA0 JUMPI PUSH0 DUP1 REVERT JUMPDEST POP PUSH2 0x4F PUSH2 0x15A JUMP JUMPDEST CALLVALUE DUP1 ISZERO PUSH2 0xB4 JUMPI PUSH0 DUP1 REVERT JUMPDEST POP PUSH2 0x4F PUSH2 0xC3 CALLDATASIZE PUSH1 0x4 PUSH2 0x536 JUMP JUMPDEST PUSH2 0x283 JUMP JUMPDEST CALLVALUE DUP1 ISZERO PUSH2 0xD3 JUMPI PUSH0 DUP1 REVERT JUMPDEST POP PUSH2 0xF3 PUSH2 0xE2 CALLDATASIZE PUSH1 0x4 PUSH2 0x536 JUMP JUMPDEST PUSH0 PUSH1 0x20 DUP2 SWAP1 MSTORE SWAP1 DUP2 MSTORE PUSH1 0x40 SWAP1 KECCAK256 SLOAD DUP2 JUMP JUMPDEST PUSH1 0x40 MLOAD SWAP1 DUP2 MSTORE PUSH1 0x20 ADD PUSH2 0x8C JUMP JUMPDEST PUSH6 0x5AF3107A4000 DUP1 CALLVALUE GT PUSH2 0x130 JUMPI PUSH1 0x40 MLOAD PUSH4 0x36A6B01F PUSH1 0xE1 SHL DUP2 MSTORE PUSH1 0x4 DUP2 ADD DUP3 SWAP1 MSTORE PUSH1 0x24 ADD JUMPDEST PUSH1 0x40 MLOAD DUP1 SWAP2 SUB SWAP1 REVERT JUMPDEST PUSH2 0x138 PUSH2 0x2D0 JUMP JUMPDEST POP JUMP JUMPDEST PUSH1 0x1 DUP2 PUSH1 0x3 DUP2 LT PUSH2 0x14A JUMPI PUSH0 DUP1 REVERT JUMPDEST ADD SLOAD PUSH1 0x1 PUSH1 0x1 PUSH1 0xA0 SHL SUB AND SWAP1 POP DUP2 JUMP JUMPDEST PUSH1 0x4 SLOAD PUSH1 0x1 PUSH1 0x1 PUSH1 0xA0 SHL SUB AND CALLER EQ PUSH2 0x185 JUMPI PUSH1 0x40 MLOAD PUSH4 0x19DCE79 PUSH1 0xE2 SHL DUP2 MSTORE PUSH1 0x4 ADD PUSH1 0x40 MLOAD DUP1 SWAP2 SUB SWAP1 REVERT JUMPDEST SELFBALANCE DUP1 PUSH2 0x1D3 JUMPI PUSH1 0x40 MLOAD PUSH3 0x461BCD PUSH1 0xE5 SHL DUP2 MSTORE PUSH1 0x20 PUSH1 0x4 DUP3 ADD MSTORE PUSH1 0x1E PUSH1 0x24 DUP3 ADD MSTORE PUSH32 0x4E6F2062616C616E63652072656D61696E7320746F2077697468647261770000 PUSH1 0x44 DUP3 ADD MSTORE PUSH1 0x64 ADD PUSH2 0x127 JUMP JUMPDEST PUSH1 0x4 SLOAD PUSH1 0x40 MLOAD PUSH0 SWAP2 PUSH1 0x1 PUSH1 0x1 PUSH1 0xA0 SHL SUB AND SWAP1 DUP4 SWAP1 DUP4 DUP2 DUP2 DUP2 DUP6 DUP8 GAS CALL SWAP3 POP POP POP RETURNDATASIZE DUP1 PUSH0 DUP2 EQ PUSH2 0x21D JUMPI PUSH1 0x40 MLOAD SWAP2 POP PUSH1 0x1F NOT PUSH1 0x3F RETURNDATASIZE ADD AND DUP3 ADD PUSH1 0x40 MSTORE RETURNDATASIZE DUP3 MSTORE RETURNDATASIZE PUSH0 PUSH1 0x20 DUP5 ADD RETURNDATACOPY PUSH2 0x222 JUMP JUMPDEST PUSH1 0x60 SWAP2 POP JUMPDEST POP POP SWAP1 POP DUP1 PUSH2 0x27F JUMPI PUSH1 0x40 MLOAD PUSH3 0x461BCD PUSH1 0xE5 SHL DUP2 MSTORE PUSH1 0x20 PUSH1 0x4 DUP3 ADD MSTORE PUSH1 0x23 PUSH1 0x24 DUP3 ADD MSTORE PUSH32 0x4661696C656420746F20776974686472617720616C6C20746865206465706F73 PUSH1 0x44 DUP3 ADD MSTORE PUSH3 0x697473 PUSH1 0xE8 SHL PUSH1 0x64 DUP3 ADD MSTORE PUSH1 0x84 ADD PUSH2 0x127 JUMP JUMPDEST POP POP JUMP JUMPDEST PUSH1 0x4 SLOAD PUSH1 0x1 PUSH1 0x1 PUSH1 0xA0 SHL SUB AND CALLER EQ PUSH2 0x2AE JUMPI PUSH1 0x40 MLOAD PUSH4 0x19DCE79 PUSH1 0xE2 SHL DUP2 MSTORE PUSH1 0x4 ADD PUSH1 0x40 MLOAD DUP1 SWAP2 SUB SWAP1 REVERT JUMPDEST PUSH1 0x4 DUP1 SLOAD PUSH1 0x1 PUSH1 0x1 PUSH1 0xA0 SHL SUB NOT AND PUSH1 0x1 PUSH1 0x1 PUSH1 0xA0 SHL SUB SWAP3 SWAP1 SWAP3 AND SWAP2 SWAP1 SWAP2 OR SWAP1 SSTORE JUMP JUMPDEST PUSH2 0x2DA CALLER CALLVALUE PUSH2 0x2DC JUMP JUMPDEST JUMP JUMPDEST PUSH1 0x1 PUSH1 0x1 PUSH1 0xA0 SHL SUB DUP3 AND PUSH0 SWAP1 DUP2 MSTORE PUSH1 0x20 DUP2 SWAP1 MSTORE PUSH1 0x40 DUP2 KECCAK256 DUP1 SLOAD DUP4 SWAP3 SWAP1 PUSH2 0x303 SWAP1 DUP5 SWAP1 PUSH2 0x558 JUMP JUMPDEST SWAP1 SWAP2 SSTORE POP POP PUSH1 0x1 PUSH1 0x1 PUSH1 0xA0 SHL SUB DUP3 AND PUSH0 SWAP1 DUP2 MSTORE PUSH1 0x20 DUP2 SWAP1 MSTORE PUSH1 0x40 DUP1 DUP3 KECCAK256 SLOAD DUP2 MLOAD PUSH1 0x60 DUP2 ADD SWAP3 DUP4 SWAP1 MSTORE SWAP1 SWAP3 SWAP2 PUSH1 0x1 SWAP1 PUSH1 0x3 SWAP1 DUP3 DUP5 JUMPDEST DUP2 SLOAD PUSH1 0x1 PUSH1 0x1 PUSH1 0xA0 SHL SUB AND DUP2 MSTORE PUSH1 0x1 SWAP1 SWAP2 ADD SWAP1 PUSH1 0x20 ADD DUP1 DUP4 GT PUSH2 0x337 JUMPI POP POP POP POP POP SWAP1 POP PUSH0 DUP1 DUP3 PUSH0 PUSH1 0x3 DUP2 LT PUSH2 0x36F JUMPI PUSH2 0x36F PUSH2 0x57D JUMP JUMPDEST PUSH1 0x20 MUL ADD MLOAD PUSH1 0x1 PUSH1 0x1 PUSH1 0xA0 SHL SUB AND PUSH1 0x1 PUSH1 0x1 PUSH1 0xA0 SHL SUB AND DUP2 MSTORE PUSH1 0x20 ADD SWAP1 DUP2 MSTORE PUSH1 0x20 ADD PUSH0 KECCAK256 SLOAD DUP3 GT ISZERO PUSH2 0x3D2 JUMPI PUSH1 0x20 DUP2 ADD DUP1 MLOAD PUSH1 0x1 PUSH1 0x1 PUSH1 0xA0 SHL SUB SWAP1 DUP2 AND PUSH1 0x40 DUP5 ADD MSTORE DUP3 MLOAD AND SWAP1 MSTORE DUP4 DUP2 PUSH0 JUMPDEST PUSH1 0x1 PUSH1 0x1 PUSH1 0xA0 SHL SUB SWAP1 SWAP3 AND PUSH1 0x20 SWAP3 SWAP1 SWAP3 MUL ADD MSTORE PUSH2 0x48B JUMP JUMPDEST PUSH1 0x20 DUP1 DUP3 ADD MLOAD PUSH1 0x1 PUSH1 0x1 PUSH1 0xA0 SHL SUB AND PUSH0 SWAP1 DUP2 MSTORE SWAP1 DUP2 SWAP1 MSTORE PUSH1 0x40 SWAP1 KECCAK256 SLOAD DUP3 GT DUP1 ISZERO PUSH2 0x413 JUMPI POP DUP1 MLOAD PUSH1 0x1 PUSH1 0x1 PUSH1 0xA0 SHL SUB AND PUSH0 SWAP1 DUP2 MSTORE PUSH1 0x20 DUP2 SWAP1 MSTORE PUSH1 0x40 SWAP1 KECCAK256 SLOAD DUP3 LT JUMPDEST ISZERO PUSH2 0x434 JUMPI PUSH1 0x20 DUP2 ADD MLOAD PUSH1 0x1 PUSH1 0x1 PUSH1 0xA0 SHL SUB AND PUSH1 0x40 DUP3 ADD MSTORE DUP4 DUP2 PUSH1 0x1 PUSH2 0x3BA JUMP JUMPDEST PUSH1 0x40 DUP1 DUP3 ADD MLOAD PUSH1 0x1 PUSH1 0x1 PUSH1 0xA0 SHL SUB AND PUSH0 SWAP1 DUP2 MSTORE PUSH1 0x20 DUP2 SWAP1 MSTORE KECCAK256 SLOAD DUP3 GT DUP1 ISZERO PUSH2 0x476 JUMPI POP PUSH1 0x20 DUP1 DUP3 ADD MLOAD PUSH1 0x1 PUSH1 0x1 PUSH1 0xA0 SHL SUB AND PUSH0 SWAP1 DUP2 MSTORE SWAP1 DUP2 SWAP1 MSTORE PUSH1 0x40 SWAP1 KECCAK256 SLOAD DUP3 LT JUMPDEST ISZERO PUSH2 0x48B JUMPI PUSH1 0x1 PUSH1 0x1 PUSH1 0xA0 SHL SUB DUP5 AND PUSH1 0x40 DUP3 ADD MSTORE JUMPDEST PUSH2 0x498 PUSH1 0x1 DUP3 PUSH1 0x3 PUSH2 0x49F JUMP JUMPDEST POP POP POP POP POP JUMP JUMPDEST DUP3 PUSH1 0x3 DUP2 ADD SWAP3 DUP3 ISZERO PUSH2 0x4E7 JUMPI SWAP2 PUSH1 0x20 MUL DUP3 ADD JUMPDEST DUP3 DUP2 GT ISZERO PUSH2 0x4E7 JUMPI DUP3 MLOAD DUP3 SLOAD PUSH1 0x1 PUSH1 0x1 PUSH1 0xA0 SHL SUB NOT AND PUSH1 0x1 PUSH1 0x1 PUSH1 0xA0 SHL SUB SWAP1 SWAP2 AND OR DUP3 SSTORE PUSH1 0x20 SWAP1 SWAP3 ADD SWAP2 PUSH1 0x1 SWAP1 SWAP2 ADD SWAP1 PUSH2 0x4B2 JUMP JUMPDEST POP PUSH2 0x4F3 SWAP3 SWAP2 POP PUSH2 0x4F7 JUMP JUMPDEST POP SWAP1 JUMP JUMPDEST JUMPDEST DUP1 DUP3 GT ISZERO PUSH2 0x4F3 JUMPI PUSH0 DUP2 SSTORE PUSH1 0x1 ADD PUSH2 0x4F8 JUMP JUMPDEST PUSH0 PUSH1 0x20 DUP3 DUP5 SUB SLT ISZERO PUSH2 0x51B JUMPI PUSH0 DUP1 REVERT JUMPDEST POP CALLDATALOAD SWAP2 SWAP1 POP JUMP JUMPDEST PUSH1 0x1 PUSH1 0x1 PUSH1 0xA0 SHL SUB DUP2 AND DUP2 EQ PUSH2 0x138 JUMPI PUSH0 DUP1 REVERT JUMPDEST PUSH0 PUSH1 0x20 DUP3 DUP5 SUB SLT ISZERO PUSH2 0x546 JUMPI PUSH0 DUP1 REVERT JUMPDEST DUP2 CALLDATALOAD PUSH2 0x551 DUP2 PUSH2 0x522 JUMP JUMPDEST SWAP4 SWAP3 POP POP POP JUMP JUMPDEST DUP1 DUP3 ADD DUP1 DUP3 GT ISZERO PUSH2 0x577 JUMPI PUSH4 0x4E487B71 PUSH1 0xE0 SHL PUSH0 MSTORE PUSH1 0x11 PUSH1 0x4 MSTORE PUSH1 0x24 PUSH0 REVERT JUMPDEST SWAP3 SWAP2 POP POP JUMP JUMPDEST PUSH4 0x4E487B71 PUSH1 0xE0 SHL PUSH0 MSTORE PUSH1 0x32 PUSH1 0x4 MSTORE PUSH1 0x24 PUSH0 REVERT INVALID LOG2 PUSH5 0x6970667358 0x22 SLT KECCAK256 0xC2 0xAD GT 0x1F DUP8 DUP16 PUSH5 0x556A9BE974 0xAC RETURNDATACOPY ADDRESS RETURNDATACOPY CALLDATALOAD 0xE8 PUSH2 0xBD0E 0xE3 MOD DELEGATECALL XOR SWAP2 EXTCODECOPY 0xA5 PUSH24 0x557B0164736F6C634300081A003300000000000000000000 "
				},
				"gasEstimates": {
					"creation": {
						"codeDepositCost": "295800",
						"executionCost": "24570",
						"totalCost": "320370"
					},
					"external": {
						"": "infinite",
						"deposits(address)": "2557",
						"top3Whales(uint256)": "2422",
						"transferAdmin(address)": "26725",
						"withdraw()": "infinite"
					},
					"internal": {
						"depositFromMsgInfo()": "infinite"
					}
				},
				"methodIdentifiers": {
					"deposits(address)": "fc7e286d",
					"top3Whales(uint256)": "10374309",
					"transferAdmin(address)": "75829def",
					"withdraw()": "3ccfd60b"
				}
			},
			"storageLayout": {
				"storage": [
					{
						"astId": 7,
						"contract": "big-bank.sol:BigBank",
						"label": "deposits",
						"offset": 0,
						"slot": "0",
						"type": "t_mapping(t_address,t_uint256)"
					},
					{
						"astId": 11,
						"contract": "big-bank.sol:BigBank",
						"label": "top3Whales",
						"offset": 0,
						"slot": "1",
						"type": "t_array(t_address)3_storage"
					},
					{
						"astId": 13,
						"contract": "big-bank.sol:BigBank",
						"label": "admin",
						"offset": 0,
						"slot": "4",
						"type": "t_address_payable"
					}
				],
				"types": {
					"t_address": {
						"encoding": "inplace",
						"label": "address",
						"numberOfBytes": "20"
					},
					"t_address_payable": {
						"encoding": "inplace",
						"label": "address payable",
						"numberOfBytes": "20"
					},
					"t_array(t_address)3_storage": {
						"base": "t_address",
						"encoding": "inplace",
						"label": "address[3]",
						"numberOfBytes": "96"
					},
					"t_mapping(t_address,t_uint256)": {
						"encoding": "mapping",
						"key": "t_address",
						"label": "mapping(address => uint256)",
						"numberOfBytes": "32",
						"value": "t_uint256"
					},
					"t_uint256": {
						"encoding": "inplace",
						"label": "uint256",
						"numberOfBytes": "32"
					}
				}
			},
			"userdoc": {
				"kind": "user",
				"methods": {},
				"version": 1
			}
		}
	}
}