{
	"token-bank.sol": {
		"TokenBank": {
			"abi": [
				{
					"inputs": [
						{
							"internalType": "contract TestToken",
							"name": "_token",
							"type": "address"
						}
					],
					"stateMutability": "nonpayable",
					"type": "constructor"
				},
				{
					"inputs": [
						{
							"internalType": "uint256",
							"name": "amount",
							"type": "uint256"
						}
					],
					"name": "deposit",
					"outputs": [],
					"stateMutability": "nonpayable",
					"type": "function"
				},
				{
					"inputs": [
						{
							"internalType": "address",
							"name": "",
							"type": "address"
						}
					],
					"name": "deposits",
					"outputs": [
						{
							"internalType": "uint256",
							"name": "",
							"type": "uint256"
						}
					],
					"stateMutability": "view",
					"type": "function"
				},
				{
					"inputs": [],
					"name": "token",
					"outputs": [
						{
							"internalType": "contract TestToken",
							"name": "",
							"type": "address"
						}
					],
					"stateMutability": "view",
					"type": "function"
				},
				{
					"inputs": [
						{
							"internalType": "uint256",
							"name": "amount",
							"type": "uint256"
						}
					],
					"name": "withdraw",
					"outputs": [],
					"stateMutability": "nonpayable",
					"type": "function"
				}
			],
			"devdoc": {
				"kind": "dev",
				"methods": {},
				"version": 1
			},
			"evm": {
				"assembly": "    /* \"token-bank.sol\":104:824  contract TokenBank {... */\n  mstore(0x40, 0x80)\n    /* \"token-bank.sol\":205:266  constructor(TestToken _token) {... */\n  callvalue\n  dup1\n  iszero\n  tag_1\n  jumpi\n  0x00\n  dup1\n  revert\ntag_1:\n  pop\n  mload(0x40)\n  sub(codesize, bytecodeSize)\n  dup1\n  bytecodeSize\n  dup4\n  codecopy\n  dup2\n  add\n  0x40\n  dup2\n  swap1\n  mstore\n  tag_2\n  swap2\n  tag_3\n  jump\t// in\ntag_2:\n    /* \"token-bank.sol\":245:250  token */\n  0x00\n    /* \"token-bank.sol\":245:259  token = _token */\n  dup1\n  sload\n  not(sub(shl(0xa0, 0x01), 0x01))\n  and\n  sub(shl(0xa0, 0x01), 0x01)\n  swap3\n  swap1\n  swap3\n  and\n  swap2\n  swap1\n  swap2\n  or\n  swap1\n  sstore\n    /* \"token-bank.sol\":104:824  contract TokenBank {... */\n  jump(tag_7)\n    /* \"#utility.yul\":14:322   */\ntag_3:\n    /* \"#utility.yul\":102:108   */\n  0x00\n    /* \"#utility.yul\":155:157   */\n  0x20\n    /* \"#utility.yul\":143:152   */\n  dup3\n    /* \"#utility.yul\":134:141   */\n  dup5\n    /* \"#utility.yul\":130:153   */\n  sub\n    /* \"#utility.yul\":126:158   */\n  slt\n    /* \"#utility.yul\":123:175   */\n  iszero\n  tag_9\n  jumpi\n    /* \"#utility.yul\":171:172   */\n  0x00\n    /* \"#utility.yul\":168:169   */\n  dup1\n    /* \"#utility.yul\":161:173   */\n  revert\n    /* \"#utility.yul\":123:175   */\ntag_9:\n    /* \"#utility.yul\":197:213   */\n  dup2\n  mload\n  sub(shl(0xa0, 0x01), 0x01)\n    /* \"#utility.yul\":242:273   */\n  dup2\n  and\n    /* \"#utility.yul\":232:274   */\n  dup2\n  eq\n    /* \"#utility.yul\":222:292   */\n  tag_10\n  jumpi\n    /* \"#utility.yul\":288:289   */\n  0x00\n    /* \"#utility.yul\":285:286   */\n  dup1\n    /* \"#utility.yul\":278:290   */\n  revert\n    /* \"#utility.yul\":222:292   */\ntag_10:\n    /* \"#utility.yul\":311:316   */\n  swap4\n    /* \"#utility.yul\":14:322   */\n  swap3\n  pop\n  pop\n  pop\n  jump\t// out\ntag_7:\n    /* \"token-bank.sol\":104:824  contract TokenBank {... */\n  dataSize(sub_0)\n  dup1\n  dataOffset(sub_0)\n  0x00\n  codecopy\n  0x00\n  return\nstop\n\nsub_0: assembly {\n        /* \"token-bank.sol\":104:824  contract TokenBank {... */\n      mstore(0x40, 0x80)\n      callvalue\n      dup1\n      iszero\n      tag_1\n      jumpi\n      0x00\n      dup1\n      revert\n    tag_1:\n      pop\n      jumpi(tag_2, lt(calldatasize, 0x04))\n      shr(0xe0, calldataload(0x00))\n      dup1\n      0x2e1a7d4d\n      eq\n      tag_3\n      jumpi\n      dup1\n      0xb6b55f25\n      eq\n      tag_4\n      jumpi\n      dup1\n      0xfc0c546a\n      eq\n      tag_5\n      jumpi\n      dup1\n      0xfc7e286d\n      eq\n      tag_6\n      jumpi\n    tag_2:\n      0x00\n      dup1\n      revert\n        /* \"token-bank.sol\":602:822  function withdraw(uint256 amount) public {... */\n    tag_3:\n      tag_7\n      tag_8\n      calldatasize\n      0x04\n      tag_9\n      jump\t// in\n    tag_8:\n      tag_10\n      jump\t// in\n    tag_7:\n      stop\n        /* \"token-bank.sol\":336:596  function deposit(uint256 amount) public {... */\n    tag_4:\n      tag_7\n      tag_12\n      calldatasize\n      0x04\n      tag_9\n      jump\t// in\n    tag_12:\n      tag_13\n      jump\t// in\n        /* \"token-bank.sol\":130:152  TestToken public token */\n    tag_5:\n      sload(0x00)\n      tag_14\n      swap1\n      sub(shl(0xa0, 0x01), 0x01)\n      and\n      dup2\n      jump\n    tag_14:\n      mload(0x40)\n      sub(shl(0xa0, 0x01), 0x01)\n        /* \"#utility.yul\":381:413   */\n      swap1\n      swap2\n      and\n        /* \"#utility.yul\":363:414   */\n      dup2\n      mstore\n        /* \"#utility.yul\":351:353   */\n      0x20\n        /* \"#utility.yul\":336:354   */\n      add\n        /* \"token-bank.sol\":130:152  TestToken public token */\n    tag_16:\n      mload(0x40)\n      dup1\n      swap2\n      sub\n      swap1\n      return\n        /* \"token-bank.sol\":158:198  mapping(address => uint) public deposits */\n    tag_6:\n      tag_18\n      tag_19\n      calldatasize\n      0x04\n      tag_20\n      jump\t// in\n    tag_19:\n      mstore(0x20, 0x01)\n      0x00\n      swap1\n      dup2\n      mstore\n      0x40\n      swap1\n      keccak256\n      sload\n      dup2\n      jump\n    tag_18:\n      mload(0x40)\n        /* \"#utility.yul\":862:887   */\n      swap1\n      dup2\n      mstore\n        /* \"#utility.yul\":850:852   */\n      0x20\n        /* \"#utility.yul\":835:853   */\n      add\n        /* \"token-bank.sol\":158:198  mapping(address => uint) public deposits */\n      tag_16\n        /* \"#utility.yul\":716:893   */\n      jump\n        /* \"token-bank.sol\":602:822  function withdraw(uint256 amount) public {... */\n    tag_10:\n        /* \"token-bank.sol\":670:680  msg.sender */\n      caller\n        /* \"token-bank.sol\":661:681  deposits[msg.sender] */\n      0x00\n      swap1\n      dup2\n      mstore\n        /* \"token-bank.sol\":661:669  deposits */\n      0x01\n        /* \"token-bank.sol\":661:681  deposits[msg.sender] */\n      0x20\n      mstore\n      0x40\n      swap1\n      keccak256\n      sload\n        /* \"token-bank.sol\":661:691  deposits[msg.sender] >= amount */\n      dup2\n      gt\n      iszero\n        /* \"token-bank.sol\":653:731  require(deposits[msg.sender] >= amount, \"No enough token balance to withdraw\") */\n      tag_25\n      jumpi\n      mload(0x40)\n      shl(0xe5, 0x461bcd)\n      dup2\n      mstore\n        /* \"#utility.yul\":1100:1102   */\n      0x20\n        /* \"token-bank.sol\":653:731  require(deposits[msg.sender] >= amount, \"No enough token balance to withdraw\") */\n      0x04\n      dup3\n      add\n        /* \"#utility.yul\":1082:1103   */\n      mstore\n        /* \"#utility.yul\":1139:1141   */\n      0x23\n        /* \"#utility.yul\":1119:1137   */\n      0x24\n      dup3\n      add\n        /* \"#utility.yul\":1112:1142   */\n      mstore\n        /* \"#utility.yul\":1178:1212   */\n      0x4e6f20656e6f75676820746f6b656e2062616c616e636520746f207769746864\n        /* \"#utility.yul\":1158:1176   */\n      0x44\n      dup3\n      add\n        /* \"#utility.yul\":1151:1213   */\n      mstore\n      shl(0xe8, 0x726177)\n        /* \"#utility.yul\":1229:1247   */\n      0x64\n      dup3\n      add\n        /* \"#utility.yul\":1222:1255   */\n      mstore\n        /* \"#utility.yul\":1272:1291   */\n      0x84\n      add\n        /* \"token-bank.sol\":653:731  require(deposits[msg.sender] >= amount, \"No enough token balance to withdraw\") */\n    tag_26:\n      mload(0x40)\n      dup1\n      swap2\n      sub\n      swap1\n      revert\n    tag_25:\n        /* \"token-bank.sol\":741:746  token */\n      sload(0x00)\n        /* \"token-bank.sol\":741:775  token.transfer(msg.sender, amount) */\n      mload(0x40)\n      shl(0xe0, 0xa9059cbb)\n      dup2\n      mstore\n        /* \"token-bank.sol\":756:766  msg.sender */\n      caller\n        /* \"token-bank.sol\":741:775  token.transfer(msg.sender, amount) */\n      0x04\n      dup3\n      add\n        /* \"#utility.yul\":1476:1527   */\n      mstore\n        /* \"#utility.yul\":1543:1561   */\n      0x24\n      dup2\n      add\n        /* \"#utility.yul\":1536:1570   */\n      dup4\n      swap1\n      mstore\n      sub(shl(0xa0, 0x01), 0x01)\n        /* \"token-bank.sol\":741:746  token */\n      swap1\n      swap2\n      and\n      swap1\n        /* \"token-bank.sol\":741:755  token.transfer */\n      0xa9059cbb\n      swap1\n        /* \"#utility.yul\":1449:1467   */\n      0x44\n      add\n        /* \"token-bank.sol\":741:775  token.transfer(msg.sender, amount) */\n      0x20\n      mload(0x40)\n      dup1\n      dup4\n      sub\n      dup2\n      0x00\n      dup8\n      gas\n      call\n      iszero\n      dup1\n      iszero\n      tag_31\n      jumpi\n      returndatasize\n      0x00\n      dup1\n      returndatacopy\n      revert(0x00, returndatasize)\n    tag_31:\n      pop\n      pop\n      pop\n      pop\n      mload(0x40)\n      returndatasize\n      not(0x1f)\n      0x1f\n      dup3\n      add\n      and\n      dup3\n      add\n      dup1\n      0x40\n      mstore\n      pop\n      dup2\n      add\n      swap1\n      tag_32\n      swap2\n      swap1\n      tag_33\n      jump\t// in\n    tag_32:\n      pop\n        /* \"token-bank.sol\":794:804  msg.sender */\n      caller\n        /* \"token-bank.sol\":785:805  deposits[msg.sender] */\n      0x00\n      swap1\n      dup2\n      mstore\n        /* \"token-bank.sol\":785:793  deposits */\n      0x01\n        /* \"token-bank.sol\":785:805  deposits[msg.sender] */\n      0x20\n      mstore\n      0x40\n      dup2\n      keccak256\n        /* \"token-bank.sol\":785:815  deposits[msg.sender] -= amount */\n      dup1\n      sload\n        /* \"token-bank.sol\":809:815  amount */\n      dup4\n      swap3\n        /* \"token-bank.sol\":785:805  deposits[msg.sender] */\n      swap1\n        /* \"token-bank.sol\":785:815  deposits[msg.sender] -= amount */\n      tag_34\n      swap1\n        /* \"token-bank.sol\":809:815  amount */\n      dup5\n      swap1\n        /* \"token-bank.sol\":785:815  deposits[msg.sender] -= amount */\n      tag_35\n      jump\t// in\n    tag_34:\n      swap1\n      swap2\n      sstore\n      pop\n      pop\n      pop\n        /* \"token-bank.sol\":602:822  function withdraw(uint256 amount) public {... */\n      jump\t// out\n        /* \"token-bank.sol\":336:596  function deposit(uint256 amount) public {... */\n    tag_13:\n        /* \"token-bank.sol\":404:409  token */\n      sload(0x00)\n        /* \"token-bank.sol\":404:446  token.allowance(msg.sender, address(this)) */\n      mload(0x40)\n      shl(0xe1, 0x6eb1769f)\n      dup2\n      mstore\n        /* \"token-bank.sol\":420:430  msg.sender */\n      caller\n        /* \"token-bank.sol\":404:446  token.allowance(msg.sender, address(this)) */\n      0x04\n      dup3\n      add\n        /* \"#utility.yul\":2302:2353   */\n      mstore\n        /* \"token-bank.sol\":440:444  this */\n      address\n        /* \"#utility.yul\":2369:2387   */\n      0x24\n      dup3\n      add\n        /* \"#utility.yul\":2362:2422   */\n      mstore\n      sub(shl(0xa0, 0x01), 0x01)\n        /* \"token-bank.sol\":404:409  token */\n      swap1\n      swap2\n      and\n      swap1\n        /* \"token-bank.sol\":404:419  token.allowance */\n      0xdd62ed3e\n      swap1\n        /* \"#utility.yul\":2275:2293   */\n      0x44\n      add\n        /* \"token-bank.sol\":404:446  token.allowance(msg.sender, address(this)) */\n      0x20\n      mload(0x40)\n      dup1\n      dup4\n      sub\n      dup2\n      dup7\n      gas\n      staticcall\n      iszero\n      dup1\n      iszero\n      tag_40\n      jumpi\n      returndatasize\n      0x00\n      dup1\n      returndatacopy\n      revert(0x00, returndatasize)\n    tag_40:\n      pop\n      pop\n      pop\n      pop\n      mload(0x40)\n      returndatasize\n      not(0x1f)\n      0x1f\n      dup3\n      add\n      and\n      dup3\n      add\n      dup1\n      0x40\n      mstore\n      pop\n      dup2\n      add\n      swap1\n      tag_41\n      swap2\n      swap1\n      tag_42\n      jump\t// in\n    tag_41:\n        /* \"token-bank.sol\":394:400  amount */\n      dup2\n        /* \"token-bank.sol\":394:446  amount <= token.allowance(msg.sender, address(this)) */\n      gt\n      iszero\n        /* \"token-bank.sol\":386:486  require(amount <= token.allowance(msg.sender, address(this)), \"No enough token approved to deposit\") */\n      tag_43\n      jumpi\n      mload(0x40)\n      shl(0xe5, 0x461bcd)\n      dup2\n      mstore\n        /* \"#utility.yul\":2824:2826   */\n      0x20\n        /* \"token-bank.sol\":386:486  require(amount <= token.allowance(msg.sender, address(this)), \"No enough token approved to deposit\") */\n      0x04\n      dup3\n      add\n        /* \"#utility.yul\":2806:2827   */\n      mstore\n        /* \"#utility.yul\":2863:2865   */\n      0x23\n        /* \"#utility.yul\":2843:2861   */\n      0x24\n      dup3\n      add\n        /* \"#utility.yul\":2836:2866   */\n      mstore\n        /* \"#utility.yul\":2902:2936   */\n      0x4e6f20656e6f75676820746f6b656e20617070726f76656420746f206465706f\n        /* \"#utility.yul\":2882:2900   */\n      0x44\n      dup3\n      add\n        /* \"#utility.yul\":2875:2937   */\n      mstore\n      shl(0xea, 0x1cda5d)\n        /* \"#utility.yul\":2953:2971   */\n      0x64\n      dup3\n      add\n        /* \"#utility.yul\":2946:2979   */\n      mstore\n        /* \"#utility.yul\":2996:3015   */\n      0x84\n      add\n        /* \"token-bank.sol\":386:486  require(amount <= token.allowance(msg.sender, address(this)), \"No enough token approved to deposit\") */\n      tag_26\n        /* \"#utility.yul\":2622:3021   */\n      jump\n        /* \"token-bank.sol\":386:486  require(amount <= token.allowance(msg.sender, address(this)), \"No enough token approved to deposit\") */\n    tag_43:\n        /* \"token-bank.sol\":496:501  token */\n      sload(0x00)\n        /* \"token-bank.sol\":496:549  token.transferFrom(msg.sender, address(this), amount) */\n      mload(0x40)\n      shl(0xe0, 0x23b872dd)\n      dup2\n      mstore\n        /* \"token-bank.sol\":515:525  msg.sender */\n      caller\n        /* \"token-bank.sol\":496:549  token.transferFrom(msg.sender, address(this), amount) */\n      0x04\n      dup3\n      add\n        /* \"#utility.yul\":3228:3279   */\n      mstore\n        /* \"token-bank.sol\":535:539  this */\n      address\n        /* \"#utility.yul\":3295:3313   */\n      0x24\n      dup3\n      add\n        /* \"#utility.yul\":3288:3348   */\n      mstore\n        /* \"#utility.yul\":3364:3382   */\n      0x44\n      dup2\n      add\n        /* \"#utility.yul\":3357:3391   */\n      dup4\n      swap1\n      mstore\n      sub(shl(0xa0, 0x01), 0x01)\n        /* \"token-bank.sol\":496:501  token */\n      swap1\n      swap2\n      and\n      swap1\n        /* \"token-bank.sol\":496:514  token.transferFrom */\n      0x23b872dd\n      swap1\n        /* \"#utility.yul\":3201:3219   */\n      0x64\n      add\n        /* \"token-bank.sol\":496:549  token.transferFrom(msg.sender, address(this), amount) */\n      0x20\n      mload(0x40)\n      dup1\n      dup4\n      sub\n      dup2\n      0x00\n      dup8\n      gas\n      call\n      iszero\n      dup1\n      iszero\n      tag_49\n      jumpi\n      returndatasize\n      0x00\n      dup1\n      returndatacopy\n      revert(0x00, returndatasize)\n    tag_49:\n      pop\n      pop\n      pop\n      pop\n      mload(0x40)\n      returndatasize\n      not(0x1f)\n      0x1f\n      dup3\n      add\n      and\n      dup3\n      add\n      dup1\n      0x40\n      mstore\n      pop\n      dup2\n      add\n      swap1\n      tag_50\n      swap2\n      swap1\n      tag_33\n      jump\t// in\n    tag_50:\n      pop\n        /* \"token-bank.sol\":568:578  msg.sender */\n      caller\n        /* \"token-bank.sol\":559:579  deposits[msg.sender] */\n      0x00\n      swap1\n      dup2\n      mstore\n        /* \"token-bank.sol\":559:567  deposits */\n      0x01\n        /* \"token-bank.sol\":559:579  deposits[msg.sender] */\n      0x20\n      mstore\n      0x40\n      dup2\n      keccak256\n        /* \"token-bank.sol\":559:589  deposits[msg.sender] += amount */\n      dup1\n      sload\n        /* \"token-bank.sol\":583:589  amount */\n      dup4\n      swap3\n        /* \"token-bank.sol\":559:579  deposits[msg.sender] */\n      swap1\n        /* \"token-bank.sol\":559:589  deposits[msg.sender] += amount */\n      tag_34\n      swap1\n        /* \"token-bank.sol\":583:589  amount */\n      dup5\n      swap1\n        /* \"token-bank.sol\":559:589  deposits[msg.sender] += amount */\n      tag_52\n      jump\t// in\n        /* \"#utility.yul\":14:194   */\n    tag_9:\n        /* \"#utility.yul\":73:79   */\n      0x00\n        /* \"#utility.yul\":126:128   */\n      0x20\n        /* \"#utility.yul\":114:123   */\n      dup3\n        /* \"#utility.yul\":105:112   */\n      dup5\n        /* \"#utility.yul\":101:124   */\n      sub\n        /* \"#utility.yul\":97:129   */\n      slt\n        /* \"#utility.yul\":94:146   */\n      iszero\n      tag_56\n      jumpi\n        /* \"#utility.yul\":142:143   */\n      0x00\n        /* \"#utility.yul\":139:140   */\n      dup1\n        /* \"#utility.yul\":132:144   */\n      revert\n        /* \"#utility.yul\":94:146   */\n    tag_56:\n      pop\n        /* \"#utility.yul\":165:188   */\n      calldataload\n      swap2\n        /* \"#utility.yul\":14:194   */\n      swap1\n      pop\n      jump\t// out\n        /* \"#utility.yul\":425:711   */\n    tag_20:\n        /* \"#utility.yul\":484:490   */\n      0x00\n        /* \"#utility.yul\":537:539   */\n      0x20\n        /* \"#utility.yul\":525:534   */\n      dup3\n        /* \"#utility.yul\":516:523   */\n      dup5\n        /* \"#utility.yul\":512:535   */\n      sub\n        /* \"#utility.yul\":508:540   */\n      slt\n        /* \"#utility.yul\":505:557   */\n      iszero\n      tag_59\n      jumpi\n        /* \"#utility.yul\":553:554   */\n      0x00\n        /* \"#utility.yul\":550:551   */\n      dup1\n        /* \"#utility.yul\":543:555   */\n      revert\n        /* \"#utility.yul\":505:557   */\n    tag_59:\n        /* \"#utility.yul\":579:602   */\n      dup2\n      calldataload\n      sub(shl(0xa0, 0x01), 0x01)\n        /* \"#utility.yul\":631:662   */\n      dup2\n      and\n        /* \"#utility.yul\":621:663   */\n      dup2\n      eq\n        /* \"#utility.yul\":611:681   */\n      tag_60\n      jumpi\n        /* \"#utility.yul\":677:678   */\n      0x00\n        /* \"#utility.yul\":674:675   */\n      dup1\n        /* \"#utility.yul\":667:679   */\n      revert\n        /* \"#utility.yul\":611:681   */\n    tag_60:\n        /* \"#utility.yul\":700:705   */\n      swap4\n        /* \"#utility.yul\":425:711   */\n      swap3\n      pop\n      pop\n      pop\n      jump\t// out\n        /* \"#utility.yul\":1581:1858   */\n    tag_33:\n        /* \"#utility.yul\":1648:1654   */\n      0x00\n        /* \"#utility.yul\":1701:1703   */\n      0x20\n        /* \"#utility.yul\":1689:1698   */\n      dup3\n        /* \"#utility.yul\":1680:1687   */\n      dup5\n        /* \"#utility.yul\":1676:1699   */\n      sub\n        /* \"#utility.yul\":1672:1704   */\n      slt\n        /* \"#utility.yul\":1669:1721   */\n      iszero\n      tag_65\n      jumpi\n        /* \"#utility.yul\":1717:1718   */\n      0x00\n        /* \"#utility.yul\":1714:1715   */\n      dup1\n        /* \"#utility.yul\":1707:1719   */\n      revert\n        /* \"#utility.yul\":1669:1721   */\n    tag_65:\n        /* \"#utility.yul\":1749:1758   */\n      dup2\n        /* \"#utility.yul\":1743:1759   */\n      mload\n        /* \"#utility.yul\":1802:1807   */\n      dup1\n        /* \"#utility.yul\":1795:1808   */\n      iszero\n        /* \"#utility.yul\":1788:1809   */\n      iszero\n        /* \"#utility.yul\":1781:1786   */\n      dup2\n        /* \"#utility.yul\":1778:1810   */\n      eq\n        /* \"#utility.yul\":1768:1828   */\n      tag_60\n      jumpi\n        /* \"#utility.yul\":1824:1825   */\n      0x00\n        /* \"#utility.yul\":1821:1822   */\n      dup1\n        /* \"#utility.yul\":1814:1826   */\n      revert\n        /* \"#utility.yul\":1863:1990   */\n    tag_53:\n        /* \"#utility.yul\":1924:1934   */\n      0x4e487b71\n        /* \"#utility.yul\":1919:1922   */\n      0xe0\n        /* \"#utility.yul\":1915:1935   */\n      shl\n        /* \"#utility.yul\":1912:1913   */\n      0x00\n        /* \"#utility.yul\":1905:1936   */\n      mstore\n        /* \"#utility.yul\":1955:1959   */\n      0x11\n        /* \"#utility.yul\":1952:1953   */\n      0x04\n        /* \"#utility.yul\":1945:1960   */\n      mstore\n        /* \"#utility.yul\":1979:1983   */\n      0x24\n        /* \"#utility.yul\":1976:1977   */\n      0x00\n        /* \"#utility.yul\":1969:1984   */\n      revert\n        /* \"#utility.yul\":1995:2123   */\n    tag_35:\n        /* \"#utility.yul\":2062:2071   */\n      dup2\n      dup2\n      sub\n        /* \"#utility.yul\":2083:2094   */\n      dup2\n      dup2\n      gt\n        /* \"#utility.yul\":2080:2117   */\n      iszero\n      tag_70\n      jumpi\n        /* \"#utility.yul\":2097:2115   */\n      tag_70\n      tag_53\n      jump\t// in\n    tag_70:\n        /* \"#utility.yul\":1995:2123   */\n      swap3\n      swap2\n      pop\n      pop\n      jump\t// out\n        /* \"#utility.yul\":2433:2617   */\n    tag_42:\n        /* \"#utility.yul\":2503:2509   */\n      0x00\n        /* \"#utility.yul\":2556:2558   */\n      0x20\n        /* \"#utility.yul\":2544:2553   */\n      dup3\n        /* \"#utility.yul\":2535:2542   */\n      dup5\n        /* \"#utility.yul\":2531:2554   */\n      sub\n        /* \"#utility.yul\":2527:2559   */\n      slt\n        /* \"#utility.yul\":2524:2576   */\n      iszero\n      tag_73\n      jumpi\n        /* \"#utility.yul\":2572:2573   */\n      0x00\n        /* \"#utility.yul\":2569:2570   */\n      dup1\n        /* \"#utility.yul\":2562:2574   */\n      revert\n        /* \"#utility.yul\":2524:2576   */\n    tag_73:\n      pop\n        /* \"#utility.yul\":2595:2611   */\n      mload\n      swap2\n        /* \"#utility.yul\":2433:2617   */\n      swap1\n      pop\n      jump\t// out\n        /* \"#utility.yul\":3402:3527   */\n    tag_52:\n        /* \"#utility.yul\":3467:3476   */\n      dup1\n      dup3\n      add\n        /* \"#utility.yul\":3488:3498   */\n      dup1\n      dup3\n      gt\n        /* \"#utility.yul\":3485:3521   */\n      iszero\n      tag_70\n      jumpi\n        /* \"#utility.yul\":3501:3519   */\n      tag_70\n      tag_53\n      jump\t// in\n\n    auxdata: 0xa2646970667358221220ccbc3658464ca5e2773bf16db40600766b8f059ad42b230149a15f9f821531e164736f6c634300081a0033\n}\n",
				"bytecode": {
					"linkReferences": {},
					"object": "6080604052348015600e575f80fd5b506040516104af3803806104af833981016040819052602b91604e565b5f80546001600160a01b0319166001600160a01b03929092169190911790556079565b5f60208284031215605d575f80fd5b81516001600160a01b03811681146072575f80fd5b9392505050565b610429806100865f395ff3fe608060405234801561000f575f80fd5b506004361061004a575f3560e01c80632e1a7d4d1461004e578063b6b55f2514610063578063fc0c546a14610076578063fc7e286d146100a5575b5f80fd5b61006161005c366004610339565b6100d2565b005b610061610071366004610339565b6101d9565b5f54610088906001600160a01b031681565b6040516001600160a01b0390911681526020015b60405180910390f35b6100c46100b3366004610350565b60016020525f908152604090205481565b60405190815260200161009c565b335f908152600160205260409020548111156101415760405162461bcd60e51b815260206004820152602360248201527f4e6f20656e6f75676820746f6b656e2062616c616e636520746f20776974686460448201526272617760e81b60648201526084015b60405180910390fd5b5f5460405163a9059cbb60e01b8152336004820152602481018390526001600160a01b039091169063a9059cbb906044016020604051808303815f875af115801561018e573d5f803e3d5ffd5b505050506040513d601f19601f820116820180604052508101906101b2919061037d565b50335f90815260016020526040812080548392906101d19084906103b0565b909155505050565b5f54604051636eb1769f60e11b81523360048201523060248201526001600160a01b039091169063dd62ed3e90604401602060405180830381865afa158015610224573d5f803e3d5ffd5b505050506040513d601f19601f8201168201806040525081019061024891906103c9565b8111156102a35760405162461bcd60e51b815260206004820152602360248201527f4e6f20656e6f75676820746f6b656e20617070726f76656420746f206465706f6044820152621cda5d60ea1b6064820152608401610138565b5f546040516323b872dd60e01b8152336004820152306024820152604481018390526001600160a01b03909116906323b872dd906064016020604051808303815f875af11580156102f6573d5f803e3d5ffd5b505050506040513d601f19601f8201168201806040525081019061031a919061037d565b50335f90815260016020526040812080548392906101d19084906103e0565b5f60208284031215610349575f80fd5b5035919050565b5f60208284031215610360575f80fd5b81356001600160a01b0381168114610376575f80fd5b9392505050565b5f6020828403121561038d575f80fd5b81518015158114610376575f80fd5b634e487b7160e01b5f52601160045260245ffd5b818103818111156103c3576103c361039c565b92915050565b5f602082840312156103d9575f80fd5b5051919050565b808201808211156103c3576103c361039c56fea2646970667358221220ccbc3658464ca5e2773bf16db40600766b8f059ad42b230149a15f9f821531e164736f6c634300081a0033",
					"opcodes": "PUSH1 0x80 PUSH1 0x40 MSTORE CALLVALUE DUP1 ISZERO PUSH1 0xE JUMPI PUSH0 DUP1 REVERT JUMPDEST POP PUSH1 0x40 MLOAD PUSH2 0x4AF CODESIZE SUB DUP1 PUSH2 0x4AF DUP4 CODECOPY DUP2 ADD PUSH1 0x40 DUP2 SWAP1 MSTORE PUSH1 0x2B SWAP2 PUSH1 0x4E JUMP JUMPDEST PUSH0 DUP1 SLOAD PUSH1 0x1 PUSH1 0x1 PUSH1 0xA0 SHL SUB NOT AND PUSH1 0x1 PUSH1 0x1 PUSH1 0xA0 SHL SUB SWAP3 SWAP1 SWAP3 AND SWAP2 SWAP1 SWAP2 OR SWAP1 SSTORE PUSH1 0x79 JUMP JUMPDEST PUSH0 PUSH1 0x20 DUP3 DUP5 SUB SLT ISZERO PUSH1 0x5D JUMPI PUSH0 DUP1 REVERT JUMPDEST DUP2 MLOAD PUSH1 0x1 PUSH1 0x1 PUSH1 0xA0 SHL SUB DUP2 AND DUP2 EQ PUSH1 0x72 JUMPI PUSH0 DUP1 REVERT JUMPDEST SWAP4 SWAP3 POP POP POP JUMP JUMPDEST PUSH2 0x429 DUP1 PUSH2 0x86 PUSH0 CODECOPY PUSH0 RETURN INVALID PUSH1 0x80 PUSH1 0x40 MSTORE CALLVALUE DUP1 ISZERO PUSH2 0xF JUMPI PUSH0 DUP1 REVERT JUMPDEST POP PUSH1 0x4 CALLDATASIZE LT PUSH2 0x4A JUMPI PUSH0 CALLDATALOAD PUSH1 0xE0 SHR DUP1 PUSH4 0x2E1A7D4D EQ PUSH2 0x4E JUMPI DUP1 PUSH4 0xB6B55F25 EQ PUSH2 0x63 JUMPI DUP1 PUSH4 0xFC0C546A EQ PUSH2 0x76 JUMPI DUP1 PUSH4 0xFC7E286D EQ PUSH2 0xA5 JUMPI JUMPDEST PUSH0 DUP1 REVERT JUMPDEST PUSH2 0x61 PUSH2 0x5C CALLDATASIZE PUSH1 0x4 PUSH2 0x339 JUMP JUMPDEST PUSH2 0xD2 JUMP JUMPDEST STOP JUMPDEST PUSH2 0x61 PUSH2 0x71 CALLDATASIZE PUSH1 0x4 PUSH2 0x339 JUMP JUMPDEST PUSH2 0x1D9 JUMP JUMPDEST PUSH0 SLOAD PUSH2 0x88 SWAP1 PUSH1 0x1 PUSH1 0x1 PUSH1 0xA0 SHL SUB AND DUP2 JUMP JUMPDEST PUSH1 0x40 MLOAD PUSH1 0x1 PUSH1 0x1 PUSH1 0xA0 SHL SUB SWAP1 SWAP2 AND DUP2 MSTORE PUSH1 0x20 ADD JUMPDEST PUSH1 0x40 MLOAD DUP1 SWAP2 SUB SWAP1 RETURN JUMPDEST PUSH2 0xC4 PUSH2 0xB3 CALLDATASIZE PUSH1 0x4 PUSH2 0x350 JUMP JUMPDEST PUSH1 0x1 PUSH1 0x20 MSTORE PUSH0 SWAP1 DUP2 MSTORE PUSH1 0x40 SWAP1 KECCAK256 SLOAD DUP2 JUMP JUMPDEST PUSH1 0x40 MLOAD SWAP1 DUP2 MSTORE PUSH1 0x20 ADD PUSH2 0x9C JUMP JUMPDEST CALLER PUSH0 SWAP1 DUP2 MSTORE PUSH1 0x1 PUSH1 0x20 MSTORE PUSH1 0x40 SWAP1 KECCAK256 SLOAD DUP2 GT ISZERO PUSH2 0x141 JUMPI PUSH1 0x40 MLOAD PUSH3 0x461BCD PUSH1 0xE5 SHL DUP2 MSTORE PUSH1 0x20 PUSH1 0x4 DUP3 ADD MSTORE PUSH1 0x23 PUSH1 0x24 DUP3 ADD MSTORE PUSH32 0x4E6F20656E6F75676820746F6B656E2062616C616E636520746F207769746864 PUSH1 0x44 DUP3 ADD MSTORE PUSH3 0x726177 PUSH1 0xE8 SHL PUSH1 0x64 DUP3 ADD MSTORE PUSH1 0x84 ADD JUMPDEST PUSH1 0x40 MLOAD DUP1 SWAP2 SUB SWAP1 REVERT JUMPDEST PUSH0 SLOAD PUSH1 0x40 MLOAD PUSH4 0xA9059CBB PUSH1 0xE0 SHL DUP2 MSTORE CALLER PUSH1 0x4 DUP3 ADD MSTORE PUSH1 0x24 DUP2 ADD DUP4 SWAP1 MSTORE PUSH1 0x1 PUSH1 0x1 PUSH1 0xA0 SHL SUB SWAP1 SWAP2 AND SWAP1 PUSH4 0xA9059CBB SWAP1 PUSH1 0x44 ADD PUSH1 0x20 PUSH1 0x40 MLOAD DUP1 DUP4 SUB DUP2 PUSH0 DUP8 GAS CALL ISZERO DUP1 ISZERO PUSH2 0x18E JUMPI RETURNDATASIZE PUSH0 DUP1 RETURNDATACOPY RETURNDATASIZE PUSH0 REVERT JUMPDEST POP POP POP POP PUSH1 0x40 MLOAD RETURNDATASIZE PUSH1 0x1F NOT PUSH1 0x1F DUP3 ADD AND DUP3 ADD DUP1 PUSH1 0x40 MSTORE POP DUP2 ADD SWAP1 PUSH2 0x1B2 SWAP2 SWAP1 PUSH2 0x37D JUMP JUMPDEST POP CALLER PUSH0 SWAP1 DUP2 MSTORE PUSH1 0x1 PUSH1 0x20 MSTORE PUSH1 0x40 DUP2 KECCAK256 DUP1 SLOAD DUP4 SWAP3 SWAP1 PUSH2 0x1D1 SWAP1 DUP5 SWAP1 PUSH2 0x3B0 JUMP JUMPDEST SWAP1 SWAP2 SSTORE POP POP POP JUMP JUMPDEST PUSH0 SLOAD PUSH1 0x40 MLOAD PUSH4 0x6EB1769F PUSH1 0xE1 SHL DUP2 MSTORE CALLER PUSH1 0x4 DUP3 ADD MSTORE ADDRESS PUSH1 0x24 DUP3 ADD MSTORE PUSH1 0x1 PUSH1 0x1 PUSH1 0xA0 SHL SUB SWAP1 SWAP2 AND SWAP1 PUSH4 0xDD62ED3E SWAP1 PUSH1 0x44 ADD PUSH1 0x20 PUSH1 0x40 MLOAD DUP1 DUP4 SUB DUP2 DUP7 GAS STATICCALL ISZERO DUP1 ISZERO PUSH2 0x224 JUMPI RETURNDATASIZE PUSH0 DUP1 RETURNDATACOPY RETURNDATASIZE PUSH0 REVERT JUMPDEST POP POP POP POP PUSH1 0x40 MLOAD RETURNDATASIZE PUSH1 0x1F NOT PUSH1 0x1F DUP3 ADD AND DUP3 ADD DUP1 PUSH1 0x40 MSTORE POP DUP2 ADD SWAP1 PUSH2 0x248 SWAP2 SWAP1 PUSH2 0x3C9 JUMP JUMPDEST DUP2 GT ISZERO PUSH2 0x2A3 JUMPI PUSH1 0x40 MLOAD PUSH3 0x461BCD PUSH1 0xE5 SHL DUP2 MSTORE PUSH1 0x20 PUSH1 0x4 DUP3 ADD MSTORE PUSH1 0x23 PUSH1 0x24 DUP3 ADD MSTORE PUSH32 0x4E6F20656E6F75676820746F6B656E20617070726F76656420746F206465706F PUSH1 0x44 DUP3 ADD MSTORE PUSH3 0x1CDA5D PUSH1 0xEA SHL PUSH1 0x64 DUP3 ADD MSTORE PUSH1 0x84 ADD PUSH2 0x138 JUMP JUMPDEST PUSH0 SLOAD PUSH1 0x40 MLOAD PUSH4 0x23B872DD PUSH1 0xE0 SHL DUP2 MSTORE CALLER PUSH1 0x4 DUP3 ADD MSTORE ADDRESS PUSH1 0x24 DUP3 ADD MSTORE PUSH1 0x44 DUP2 ADD DUP4 SWAP1 MSTORE PUSH1 0x1 PUSH1 0x1 PUSH1 0xA0 SHL SUB SWAP1 SWAP2 AND SWAP1 PUSH4 0x23B872DD SWAP1 PUSH1 0x64 ADD PUSH1 0x20 PUSH1 0x40 MLOAD DUP1 DUP4 SUB DUP2 PUSH0 DUP8 GAS CALL ISZERO DUP1 ISZERO PUSH2 0x2F6 JUMPI RETURNDATASIZE PUSH0 DUP1 RETURNDATACOPY RETURNDATASIZE PUSH0 REVERT JUMPDEST POP POP POP POP PUSH1 0x40 MLOAD RETURNDATASIZE PUSH1 0x1F NOT PUSH1 0x1F DUP3 ADD AND DUP3 ADD DUP1 PUSH1 0x40 MSTORE POP DUP2 ADD SWAP1 PUSH2 0x31A SWAP2 SWAP1 PUSH2 0x37D JUMP JUMPDEST POP CALLER PUSH0 SWAP1 DUP2 MSTORE PUSH1 0x1 PUSH1 0x20 MSTORE PUSH1 0x40 DUP2 KECCAK256 DUP1 SLOAD DUP4 SWAP3 SWAP1 PUSH2 0x1D1 SWAP1 DUP5 SWAP1 PUSH2 0x3E0 JUMP JUMPDEST PUSH0 PUSH1 0x20 DUP3 DUP5 SUB SLT ISZERO PUSH2 0x349 JUMPI PUSH0 DUP1 REVERT JUMPDEST POP CALLDATALOAD SWAP2 SWAP1 POP JUMP JUMPDEST PUSH0 PUSH1 0x20 DUP3 DUP5 SUB SLT ISZERO PUSH2 0x360 JUMPI PUSH0 DUP1 REVERT JUMPDEST DUP2 CALLDATALOAD PUSH1 0x1 PUSH1 0x1 PUSH1 0xA0 SHL SUB DUP2 AND DUP2 EQ PUSH2 0x376 JUMPI PUSH0 DUP1 REVERT JUMPDEST SWAP4 SWAP3 POP POP POP JUMP JUMPDEST PUSH0 PUSH1 0x20 DUP3 DUP5 SUB SLT ISZERO PUSH2 0x38D JUMPI PUSH0 DUP1 REVERT JUMPDEST DUP2 MLOAD DUP1 ISZERO ISZERO DUP2 EQ PUSH2 0x376 JUMPI PUSH0 DUP1 REVERT JUMPDEST PUSH4 0x4E487B71 PUSH1 0xE0 SHL PUSH0 MSTORE PUSH1 0x11 PUSH1 0x4 MSTORE PUSH1 0x24 PUSH0 REVERT JUMPDEST DUP2 DUP2 SUB DUP2 DUP2 GT ISZERO PUSH2 0x3C3 JUMPI PUSH2 0x3C3 PUSH2 0x39C JUMP JUMPDEST SWAP3 SWAP2 POP POP JUMP JUMPDEST PUSH0 PUSH1 0x20 DUP3 DUP5 SUB SLT ISZERO PUSH2 0x3D9 JUMPI PUSH0 DUP1 REVERT JUMPDEST POP MLOAD SWAP2 SWAP1 POP JUMP JUMPDEST DUP1 DUP3 ADD DUP1 DUP3 GT ISZERO PUSH2 0x3C3 JUMPI PUSH2 0x3C3 PUSH2 0x39C JUMP INVALID LOG2 PUSH5 0x6970667358 0x22 SLT KECCAK256 0xCC 0xBC CALLDATASIZE PC CHAINID 0x4C 0xA5 0xE2 PUSH24 0x3BF16DB40600766B8F059AD42B230149A15F9F821531E164 PUSH20 0x6F6C634300081A00330000000000000000000000 "
				},
				"gasEstimates": {
					"creation": {
						"codeDepositCost": "213000",
						"executionCost": "infinite",
						"totalCost": "infinite"
					},
					"external": {
						"deposit(uint256)": "infinite",
						"deposits(address)": "2525",
						"token()": "2346",
						"withdraw(uint256)": "infinite"
					}
				},
				"methodIdentifiers": {
					"deposit(uint256)": "b6b55f25",
					"deposits(address)": "fc7e286d",
					"token()": "fc0c546a",
					"withdraw(uint256)": "2e1a7d4d"
				}
			},
			"storageLayout": {
				"storage": [
					{
						"astId": 1091,
						"contract": "token-bank.sol:TokenBank",
						"label": "token",
						"offset": 0,
						"slot": "0",
						"type": "t_contract(TestToken)1040"
					},
					{
						"astId": 1095,
						"contract": "token-bank.sol:TokenBank",
						"label": "deposits",
						"offset": 0,
						"slot": "1",
						"type": "t_mapping(t_address,t_uint256)"
					}
				],
				"types": {
					"t_address": {
						"encoding": "inplace",
						"label": "address",
						"numberOfBytes": "20"
					},
					"t_contract(TestToken)1040": {
						"encoding": "inplace",
						"label": "contract TestToken",
						"numberOfBytes": "20"
					},
					"t_mapping(t_address,t_uint256)": {
						"encoding": "mapping",
						"key": "t_address",
						"label": "mapping(address => uint256)",
						"numberOfBytes": "32",
						"value": "t_uint256"
					},
					"t_uint256": {
						"encoding": "inplace",
						"label": "uint256",
						"numberOfBytes": "32"
					}
				}
			},
			"userdoc": {
				"kind": "user",
				"methods": {},
				"version": 1
			}
		}
	}
}