{
	"abi.sol": {
		"Abi": {
			"abi": [
				{
					"inputs": [],
					"name": "encodeABI",
					"outputs": [
						{
							"internalType": "bytes",
							"name": "",
							"type": "bytes"
						}
					],
					"stateMutability": "view",
					"type": "function"
				}
			],
			"devdoc": {
				"kind": "dev",
				"methods": {},
				"version": 1
			},
			"evm": {
				"assembly": "    /* \"abi.sol\":57:228  contract Abi {... */\n  mstore(0x40, 0x80)\n  callvalue\n  dup1\n  iszero\n  tag_1\n  jumpi\n  0x00\n  dup1\n  revert\ntag_1:\n  pop\n  dataSize(sub_0)\n  dup1\n  dataOffset(sub_0)\n  0x00\n  codecopy\n  0x00\n  return\nstop\n\nsub_0: assembly {\n        /* \"abi.sol\":57:228  contract Abi {... */\n      mstore(0x40, 0x80)\n      callvalue\n      dup1\n      iszero\n      tag_1\n      jumpi\n      0x00\n      dup1\n      revert\n    tag_1:\n      pop\n      jumpi(tag_2, lt(calldatasize, 0x04))\n      shr(0xe0, calldataload(0x00))\n      dup1\n      0xf30f89df\n      eq\n      tag_3\n      jumpi\n    tag_2:\n      0x00\n      dup1\n      revert\n        /* \"abi.sol\":76:226  function encodeABI() public view returns (bytes memory) {... */\n    tag_3:\n      tag_4\n        /* \"abi.sol\":149:219  abi.encodeWithSignature(\"transfer(address,uint256)\", address(this), 1) */\n      mload(0x40)\n        /* \"abi.sol\":210:214  this */\n      address\n        /* \"abi.sol\":149:219  abi.encodeWithSignature(\"transfer(address,uint256)\", address(this), 1) */\n      0x24\n      dup3\n      add\n        /* \"#utility.yul\":615:666   */\n      mstore\n        /* \"abi.sol\":217:218  1 */\n      0x01\n        /* \"#utility.yul\":682:700   */\n      0x44\n      dup3\n      add\n        /* \"#utility.yul\":675:720   */\n      mstore\n        /* \"abi.sol\":118:130  bytes memory */\n      0x60\n      swap1\n        /* \"#utility.yul\":588:606   */\n      0x64\n      add\n        /* \"abi.sol\":149:219  abi.encodeWithSignature(\"transfer(address,uint256)\", address(this), 1) */\n      0x40\n      dup1\n      mload\n      not(0x1f)\n      dup2\n      dup5\n      sub\n      add\n      dup2\n      mstore\n      swap2\n      swap1\n      mstore\n      0x20\n      dup2\n      add\n      dup1\n      mload\n      sub(shl(0xe0, 0x01), 0x01)\n      and\n      shl(0xe0, 0xa9059cbb)\n      or\n      swap1\n      mstore\n      swap2\n        /* \"abi.sol\":76:226  function encodeABI() public view returns (bytes memory) {... */\n      swap1\n      pop\n      jump\n    tag_4:\n      mload(0x40)\n      tag_6\n      swap2\n      swap1\n      tag_7\n      jump\t// in\n    tag_6:\n      mload(0x40)\n      dup1\n      swap2\n      sub\n      swap1\n      return\n        /* \"#utility.yul\":14:430   */\n    tag_7:\n        /* \"#utility.yul\":161:163   */\n      0x20\n        /* \"#utility.yul\":150:159   */\n      dup2\n        /* \"#utility.yul\":143:164   */\n      mstore\n        /* \"#utility.yul\":124:128   */\n      0x00\n        /* \"#utility.yul\":193:199   */\n      dup3\n        /* \"#utility.yul\":187:200   */\n      mload\n        /* \"#utility.yul\":236:242   */\n      dup1\n        /* \"#utility.yul\":231:233   */\n      0x20\n        /* \"#utility.yul\":220:229   */\n      dup5\n        /* \"#utility.yul\":216:234   */\n      add\n        /* \"#utility.yul\":209:243   */\n      mstore\n        /* \"#utility.yul\":295:301   */\n      dup1\n        /* \"#utility.yul\":290:292   */\n      0x20\n        /* \"#utility.yul\":282:288   */\n      dup6\n        /* \"#utility.yul\":278:293   */\n      add\n        /* \"#utility.yul\":273:275   */\n      0x40\n        /* \"#utility.yul\":262:271   */\n      dup6\n        /* \"#utility.yul\":258:276   */\n      add\n        /* \"#utility.yul\":252:302   */\n      mcopy\n        /* \"#utility.yul\":351:352   */\n      0x00\n        /* \"#utility.yul\":346:348   */\n      0x40\n        /* \"#utility.yul\":337:343   */\n      dup3\n        /* \"#utility.yul\":326:335   */\n      dup6\n        /* \"#utility.yul\":322:344   */\n      add\n        /* \"#utility.yul\":318:349   */\n      add\n        /* \"#utility.yul\":311:353   */\n      mstore\n        /* \"#utility.yul\":421:423   */\n      0x40\n        /* \"#utility.yul\":414:416   */\n      0x1f\n        /* \"#utility.yul\":410:417   */\n      not\n        /* \"#utility.yul\":405:407   */\n      0x1f\n        /* \"#utility.yul\":397:403   */\n      dup4\n        /* \"#utility.yul\":393:408   */\n      add\n        /* \"#utility.yul\":389:418   */\n      and\n        /* \"#utility.yul\":378:387   */\n      dup5\n        /* \"#utility.yul\":374:419   */\n      add\n        /* \"#utility.yul\":370:424   */\n      add\n        /* \"#utility.yul\":362:424   */\n      swap2\n      pop\n      pop\n        /* \"#utility.yul\":14:430   */\n      swap3\n      swap2\n      pop\n      pop\n      jump\t// out\n\n    auxdata: 0xa26469706673582212203dbd6c0f9080b658ad8b73ddc3f1a71c495382aa6e9c6dc55edbf9599ed3dd9264736f6c634300081a0033\n}\n",
				"bytecode": {
					"linkReferences": {},
					"object": "6080604052348015600e575f80fd5b5060f08061001b5f395ff3fe6080604052348015600e575f80fd5b50600436106026575f3560e01c8063f30f89df14602a575b5f80fd5b60716040513060248201526001604482015260609060640160408051601f198184030181529190526020810180516001600160e01b031663a9059cbb60e01b179052919050565b604051607c91906085565b60405180910390f35b602081525f82518060208401528060208501604085015e5f604082850101526040601f19601f8301168401019150509291505056fea26469706673582212203dbd6c0f9080b658ad8b73ddc3f1a71c495382aa6e9c6dc55edbf9599ed3dd9264736f6c634300081a0033",
					"opcodes": "PUSH1 0x80 PUSH1 0x40 MSTORE CALLVALUE DUP1 ISZERO PUSH1 0xE JUMPI PUSH0 DUP1 REVERT JUMPDEST POP PUSH1 0xF0 DUP1 PUSH2 0x1B PUSH0 CODECOPY PUSH0 RETURN INVALID PUSH1 0x80 PUSH1 0x40 MSTORE CALLVALUE DUP1 ISZERO PUSH1 0xE JUMPI PUSH0 DUP1 REVERT JUMPDEST POP PUSH1 0x4 CALLDATASIZE LT PUSH1 0x26 JUMPI PUSH0 CALLDATALOAD PUSH1 0xE0 SHR DUP1 PUSH4 0xF30F89DF EQ PUSH1 0x2A JUMPI JUMPDEST PUSH0 DUP1 REVERT JUMPDEST PUSH1 0x71 PUSH1 0x40 MLOAD ADDRESS PUSH1 0x24 DUP3 ADD MSTORE PUSH1 0x1 PUSH1 0x44 DUP3 ADD MSTORE PUSH1 0x60 SWAP1 PUSH1 0x64 ADD PUSH1 0x40 DUP1 MLOAD PUSH1 0x1F NOT DUP2 DUP5 SUB ADD DUP2 MSTORE SWAP2 SWAP1 MSTORE PUSH1 0x20 DUP2 ADD DUP1 MLOAD PUSH1 0x1 PUSH1 0x1 PUSH1 0xE0 SHL SUB AND PUSH4 0xA9059CBB PUSH1 0xE0 SHL OR SWAP1 MSTORE SWAP2 SWAP1 POP JUMP JUMPDEST PUSH1 0x40 MLOAD PUSH1 0x7C SWAP2 SWAP1 PUSH1 0x85 JUMP JUMPDEST PUSH1 0x40 MLOAD DUP1 SWAP2 SUB SWAP1 RETURN JUMPDEST PUSH1 0x20 DUP2 MSTORE PUSH0 DUP3 MLOAD DUP1 PUSH1 0x20 DUP5 ADD MSTORE DUP1 PUSH1 0x20 DUP6 ADD PUSH1 0x40 DUP6 ADD MCOPY PUSH0 PUSH1 0x40 DUP3 DUP6 ADD ADD MSTORE PUSH1 0x40 PUSH1 0x1F NOT PUSH1 0x1F DUP4 ADD AND DUP5 ADD ADD SWAP2 POP POP SWAP3 SWAP2 POP POP JUMP INVALID LOG2 PUSH5 0x6970667358 0x22 SLT KECCAK256 RETURNDATASIZE 0xBD PUSH13 0xF9080B658AD8B73DDC3F1A71C BLOBHASH MSTORE8 DUP3 0xAA PUSH15 0x9C6DC55EDBF9599ED3DD9264736F6C PUSH4 0x4300081A STOP CALLER "
				},
				"gasEstimates": {
					"creation": {
						"codeDepositCost": "48000",
						"executionCost": "97",
						"totalCost": "48097"
					},
					"external": {
						"encodeABI()": "infinite"
					}
				},
				"methodIdentifiers": {
					"encodeABI()": "f30f89df"
				}
			},
			"storageLayout": {
				"storage": [],
				"types": null
			},
			"userdoc": {
				"kind": "user",
				"methods": {},
				"version": 1
			}
		}
	}
}