{
	"bank.sol": {
		"Bank": {
			"abi": [
				{
					"inputs": [],
					"stateMutability": "nonpayable",
					"type": "constructor"
				},
				{
					"stateMutability": "payable",
					"type": "fallback"
				},
				{
					"inputs": [
						{
							"internalType": "address",
							"name": "",
							"type": "address"
						}
					],
					"name": "deposits",
					"outputs": [
						{
							"internalType": "uint256",
							"name": "",
							"type": "uint256"
						}
					],
					"stateMutability": "view",
					"type": "function"
				},
				{
					"inputs": [],
					"name": "getTop3Whales",
					"outputs": [
						{
							"components": [
								{
									"internalType": "address",
									"name": "addr",
									"type": "address"
								},
								{
									"internalType": "uint256",
									"name": "depositBalance",
									"type": "uint256"
								}
							],
							"internalType": "struct Whale[3]",
							"name": "whales",
							"type": "tuple[3]"
						}
					],
					"stateMutability": "view",
					"type": "function"
				},
				{
					"inputs": [
						{
							"internalType": "uint256",
							"name": "",
							"type": "uint256"
						}
					],
					"name": "top3Whales",
					"outputs": [
						{
							"internalType": "address",
							"name": "",
							"type": "address"
						}
					],
					"stateMutability": "view",
					"type": "function"
				},
				{
					"inputs": [],
					"name": "withdraw",
					"outputs": [],
					"stateMutability": "nonpayable",
					"type": "function"
				},
				{
					"stateMutability": "payable",
					"type": "receive"
				}
			],
			"devdoc": {
				"kind": "dev",
				"methods": {},
				"version": 1
			},
			"evm": {
				"assembly": "    /* \"bank.sol\":118:2028  contract Bank {... */\n  mstore(0x40, 0xa0)\n    /* \"bank.sol\":264:322  constructor() {... */\n  callvalue\n  dup1\n  iszero\n  tag_1\n  jumpi\n  0x00\n  dup1\n  revert\ntag_1:\n  pop\n    /* \"bank.sol\":304:314  msg.sender */\n  caller\n    /* \"bank.sol\":288:315  admin = payable(msg.sender) */\n  0x80\n  mstore\n    /* \"bank.sol\":118:2028  contract Bank {... */\n  mload(0x80)\n  codecopy(0x00, dataOffset(sub_0), dataSize(sub_0))\n  0x00\n  assignImmutable(\"0x277ab82e5a4641341820a4a2933a62c1de997e42e92548657ae21b3728d580fe\")\n  return(0x00, dataSize(sub_0))\nstop\n\nsub_0: assembly {\n        /* \"bank.sol\":118:2028  contract Bank {... */\n      mstore(0x40, 0x80)\n      jumpi(tag_1, lt(calldatasize, 0x04))\n      shr(0xe0, calldataload(0x00))\n      dup1\n      0x10374309\n      eq\n      tag_3\n      jumpi\n      dup1\n      0x3ccfd60b\n      eq\n      tag_4\n      jumpi\n      dup1\n      0xaf7364a2\n      eq\n      tag_5\n      jumpi\n      dup1\n      0xfc7e286d\n      eq\n      tag_6\n      jumpi\n      jump(tag_2)\n    tag_1:\n      jumpi(tag_2, calldatasize)\n        /* \"bank.sol\":1908:1938  deposit(msg.sender, msg.value) */\n      tag_9\n        /* \"bank.sol\":1916:1926  msg.sender */\n      caller\n        /* \"bank.sol\":1928:1937  msg.value */\n      callvalue\n        /* \"bank.sol\":1908:1915  deposit */\n      tag_10\n        /* \"bank.sol\":1908:1938  deposit(msg.sender, msg.value) */\n      jump\t// in\n    tag_9:\n        /* \"bank.sol\":118:2028  contract Bank {... */\n      stop\n    tag_2:\n        /* \"bank.sol\":1989:2019  deposit(msg.sender, msg.value) */\n      tag_9\n        /* \"bank.sol\":1997:2007  msg.sender */\n      caller\n        /* \"bank.sol\":2009:2018  msg.value */\n      callvalue\n        /* \"bank.sol\":1989:1996  deposit */\n      tag_10\n        /* \"bank.sol\":1989:2019  deposit(msg.sender, msg.value) */\n      jump\t// in\n        /* \"bank.sol\":184:212  address[3] public top3Whales */\n    tag_3:\n      callvalue\n      dup1\n      iszero\n      tag_14\n      jumpi\n      0x00\n      dup1\n      revert\n    tag_14:\n      pop\n      tag_15\n      tag_16\n      calldatasize\n      0x04\n      tag_17\n      jump\t// in\n    tag_16:\n      tag_18\n      jump\t// in\n    tag_15:\n      mload(0x40)\n      sub(shl(0xa0, 0x01), 0x01)\n        /* \"#utility.yul\":363:395   */\n      swap1\n      swap2\n      and\n        /* \"#utility.yul\":345:396   */\n      dup2\n      mstore\n        /* \"#utility.yul\":333:335   */\n      0x20\n        /* \"#utility.yul\":318:336   */\n      add\n        /* \"bank.sol\":184:212  address[3] public top3Whales */\n    tag_19:\n      mload(0x40)\n      dup1\n      swap2\n      sub\n      swap1\n      return\n        /* \"bank.sol\":600:985  function withdraw() public {... */\n    tag_4:\n      callvalue\n      dup1\n      iszero\n      tag_21\n      jumpi\n      0x00\n      dup1\n      revert\n    tag_21:\n      pop\n      tag_9\n      tag_23\n      jump\t// in\n        /* \"bank.sol\":328:594  function getTop3Whales() public view returns(Whale[3] memory whales) {... */\n    tag_5:\n      callvalue\n      dup1\n      iszero\n      tag_24\n      jumpi\n      0x00\n      dup1\n      revert\n    tag_24:\n      pop\n      tag_25\n      tag_26\n      jump\t// in\n    tag_25:\n      mload(0x40)\n      tag_19\n      swap2\n      swap1\n      tag_28\n      jump\t// in\n        /* \"bank.sol\":138:178  mapping(address => uint) public deposits */\n    tag_6:\n      callvalue\n      dup1\n      iszero\n      tag_29\n      jumpi\n      0x00\n      dup1\n      revert\n    tag_29:\n      pop\n      tag_30\n      tag_31\n      calldatasize\n      0x04\n      tag_32\n      jump\t// in\n    tag_31:\n      0x00\n      0x20\n      dup2\n      swap1\n      mstore\n      swap1\n      dup2\n      mstore\n      0x40\n      swap1\n      keccak256\n      sload\n      dup2\n      jump\n    tag_30:\n      mload(0x40)\n        /* \"#utility.yul\":1476:1501   */\n      swap1\n      dup2\n      mstore\n        /* \"#utility.yul\":1464:1466   */\n      0x20\n        /* \"#utility.yul\":1449:1467   */\n      add\n        /* \"bank.sol\":138:178  mapping(address => uint) public deposits */\n      tag_19\n        /* \"#utility.yul\":1330:1507   */\n      jump\n        /* \"bank.sol\":991:1865  function deposit(address account, uint amount) private {... */\n    tag_10:\n      sub(shl(0xa0, 0x01), 0x01)\n        /* \"bank.sol\":1056:1073  deposits[account] */\n      dup3\n      and\n        /* \"bank.sol\":1056:1064  deposits */\n      0x00\n        /* \"bank.sol\":1056:1073  deposits[account] */\n      swap1\n      dup2\n      mstore\n      0x20\n      dup2\n      swap1\n      mstore\n      0x40\n      dup2\n      keccak256\n        /* \"bank.sol\":1056:1083  deposits[account] += amount */\n      dup1\n      sload\n        /* \"bank.sol\":1077:1083  amount */\n      dup4\n      swap3\n        /* \"bank.sol\":1056:1064  deposits */\n      swap1\n        /* \"bank.sol\":1056:1083  deposits[account] += amount */\n      tag_37\n      swap1\n        /* \"bank.sol\":1077:1083  amount */\n      dup5\n      swap1\n        /* \"bank.sol\":1056:1083  deposits[account] += amount */\n      tag_38\n      jump\t// in\n    tag_37:\n      swap1\n      swap2\n      sstore\n      pop\n      pop\n      sub(shl(0xa0, 0x01), 0x01)\n        /* \"bank.sol\":1122:1139  deposits[account] */\n      dup3\n      and\n        /* \"bank.sol\":1093:1119  uint currentAccountDeposit */\n      0x00\n        /* \"bank.sol\":1122:1139  deposits[account] */\n      swap1\n      dup2\n      mstore\n      0x20\n      dup2\n      swap1\n      mstore\n      0x40\n      dup1\n      dup3\n      keccak256\n      sload\n        /* \"bank.sol\":1149:1195  address[3] memory localTop3Whales = top3Whales */\n      dup2\n      mload\n      0x60\n      dup2\n      add\n      swap3\n      dup4\n      swap1\n      mstore\n        /* \"bank.sol\":1122:1139  deposits[account] */\n      swap1\n      swap3\n        /* \"bank.sol\":1093:1119  uint currentAccountDeposit */\n      swap2\n        /* \"bank.sol\":1185:1195  top3Whales */\n      0x01\n      swap1\n        /* \"bank.sol\":1149:1195  address[3] memory localTop3Whales = top3Whales */\n      0x03\n      swap1\n        /* \"bank.sol\":1185:1195  top3Whales */\n      dup3\n        /* \"bank.sol\":1149:1195  address[3] memory localTop3Whales = top3Whales */\n      dup5\n    tag_40:\n      dup2\n      sload\n      sub(shl(0xa0, 0x01), 0x01)\n      and\n      dup2\n      mstore\n      0x01\n      swap1\n      swap2\n      add\n      swap1\n      0x20\n      add\n      dup1\n      dup4\n      gt\n      tag_40\n      jumpi\n      pop\n      pop\n      pop\n      pop\n      pop\n      swap1\n      pop\n        /* \"bank.sol\":1233:1241  deposits */\n      0x00\n        /* \"bank.sol\":1233:1261  deposits[localTop3Whales[0]] */\n      dup1\n        /* \"bank.sol\":1242:1257  localTop3Whales */\n      dup3\n        /* \"bank.sol\":1258:1259  0 */\n      0x00\n        /* \"bank.sol\":1242:1260  localTop3Whales[0] */\n      0x03\n      dup2\n      lt\n      tag_42\n      jumpi\n      tag_42\n      tag_43\n      jump\t// in\n    tag_42:\n      0x20\n      mul\n      add\n      mload\n      sub(shl(0xa0, 0x01), 0x01)\n        /* \"bank.sol\":1233:1261  deposits[localTop3Whales[0]] */\n      and\n      sub(shl(0xa0, 0x01), 0x01)\n      and\n      dup2\n      mstore\n      0x20\n      add\n      swap1\n      dup2\n      mstore\n      0x20\n      add\n      0x00\n      keccak256\n      sload\n        /* \"bank.sol\":1209:1230  currentAccountDeposit */\n      dup3\n        /* \"bank.sol\":1209:1261  currentAccountDeposit > deposits[localTop3Whales[0]] */\n      gt\n        /* \"bank.sol\":1205:1821  if (currentAccountDeposit > deposits[localTop3Whales[0]]) {... */\n      iszero\n      tag_44\n      jumpi\n        /* \"bank.sol\":1298:1316  localTop3Whales[1] */\n      0x20\n      dup2\n      add\n      dup1\n      mload\n      sub(shl(0xa0, 0x01), 0x01)\n        /* \"bank.sol\":1277:1316  localTop3Whales[2] = localTop3Whales[1] */\n      swap1\n      dup2\n      and\n        /* \"bank.sol\":1277:1295  localTop3Whales[2] */\n      0x40\n      dup5\n      add\n        /* \"bank.sol\":1277:1316  localTop3Whales[2] = localTop3Whales[1] */\n      mstore\n        /* \"bank.sol\":1351:1369  localTop3Whales[0] */\n      dup3\n      mload\n        /* \"bank.sol\":1330:1369  localTop3Whales[1] = localTop3Whales[0] */\n      and\n      swap1\n      mstore\n        /* \"bank.sol\":1404:1411  account */\n      dup4\n        /* \"bank.sol\":1298:1313  localTop3Whales */\n      dup2\n      0x00\n        /* \"bank.sol\":1383:1401  localTop3Whales[0] */\n    tag_54:\n      sub(shl(0xa0, 0x01), 0x01)\n        /* \"bank.sol\":1383:1411  localTop3Whales[0] = account */\n      swap1\n      swap3\n      and\n        /* \"bank.sol\":1383:1401  localTop3Whales[0] */\n      0x20\n      swap3\n      swap1\n      swap3\n      mul\n      add\n        /* \"bank.sol\":1383:1411  localTop3Whales[0] = account */\n      mstore\n        /* \"bank.sol\":1205:1821  if (currentAccountDeposit > deposits[localTop3Whales[0]]) {... */\n      jump(tag_74)\n    tag_44:\n        /* \"bank.sol\":1465:1483  localTop3Whales[1] */\n      0x20\n      dup1\n      dup3\n      add\n      mload\n      sub(shl(0xa0, 0x01), 0x01)\n        /* \"bank.sol\":1456:1484  deposits[localTop3Whales[1]] */\n      and\n        /* \"bank.sol\":1456:1464  deposits */\n      0x00\n        /* \"bank.sol\":1456:1484  deposits[localTop3Whales[1]] */\n      swap1\n      dup2\n      mstore\n      swap1\n      dup2\n      swap1\n      mstore\n      0x40\n      swap1\n      keccak256\n      sload\n        /* \"bank.sol\":1432:1484  currentAccountDeposit > deposits[localTop3Whales[1]] */\n      dup3\n      gt\n        /* \"bank.sol\":1432:1540  currentAccountDeposit > deposits[localTop3Whales[1]] && currentAccountDeposit < deposits[localTop3Whales[0]] */\n      dup1\n      iszero\n      tag_58\n      jumpi\n      pop\n        /* \"bank.sol\":1521:1539  localTop3Whales[0] */\n      dup1\n      mload\n      sub(shl(0xa0, 0x01), 0x01)\n        /* \"bank.sol\":1512:1540  deposits[localTop3Whales[0]] */\n      and\n        /* \"bank.sol\":1512:1520  deposits */\n      0x00\n        /* \"bank.sol\":1512:1540  deposits[localTop3Whales[0]] */\n      swap1\n      dup2\n      mstore\n        /* \"bank.sol\":1521:1539  localTop3Whales[0] */\n      0x20\n        /* \"bank.sol\":1512:1540  deposits[localTop3Whales[0]] */\n      dup2\n      swap1\n      mstore\n      0x40\n      swap1\n      keccak256\n      sload\n        /* \"bank.sol\":1488:1540  currentAccountDeposit < deposits[localTop3Whales[0]] */\n      dup3\n      lt\n        /* \"bank.sol\":1432:1540  currentAccountDeposit > deposits[localTop3Whales[1]] && currentAccountDeposit < deposits[localTop3Whales[0]] */\n    tag_58:\n        /* \"bank.sol\":1428:1821  if (currentAccountDeposit > deposits[localTop3Whales[1]] && currentAccountDeposit < deposits[localTop3Whales[0]]) {... */\n      iszero\n      tag_61\n      jumpi\n        /* \"bank.sol\":1577:1595  localTop3Whales[1] */\n      0x20\n      dup2\n      add\n      mload\n      sub(shl(0xa0, 0x01), 0x01)\n        /* \"bank.sol\":1556:1595  localTop3Whales[2] = localTop3Whales[1] */\n      and\n        /* \"bank.sol\":1556:1574  localTop3Whales[2] */\n      0x40\n      dup3\n      add\n        /* \"bank.sol\":1556:1595  localTop3Whales[2] = localTop3Whales[1] */\n      mstore\n        /* \"bank.sol\":1630:1637  account */\n      dup4\n        /* \"bank.sol\":1577:1592  localTop3Whales */\n      dup2\n        /* \"bank.sol\":1593:1594  1 */\n      0x01\n        /* \"bank.sol\":1609:1627  localTop3Whales[1] */\n      jump(tag_54)\n        /* \"bank.sol\":1428:1821  if (currentAccountDeposit > deposits[localTop3Whales[1]] && currentAccountDeposit < deposits[localTop3Whales[0]]) {... */\n    tag_61:\n        /* \"bank.sol\":1691:1709  localTop3Whales[2] */\n      0x40\n      dup1\n      dup3\n      add\n      mload\n      sub(shl(0xa0, 0x01), 0x01)\n        /* \"bank.sol\":1682:1710  deposits[localTop3Whales[2]] */\n      and\n        /* \"bank.sol\":1682:1690  deposits */\n      0x00\n        /* \"bank.sol\":1682:1710  deposits[localTop3Whales[2]] */\n      swap1\n      dup2\n      mstore\n        /* \"bank.sol\":1691:1709  localTop3Whales[2] */\n      0x20\n        /* \"bank.sol\":1682:1710  deposits[localTop3Whales[2]] */\n      dup2\n      swap1\n      mstore\n      keccak256\n      sload\n        /* \"bank.sol\":1658:1710  currentAccountDeposit > deposits[localTop3Whales[2]] */\n      dup3\n      gt\n        /* \"bank.sol\":1658:1766  currentAccountDeposit > deposits[localTop3Whales[2]] && currentAccountDeposit < deposits[localTop3Whales[1]] */\n      dup1\n      iszero\n      tag_71\n      jumpi\n      pop\n        /* \"bank.sol\":1747:1765  localTop3Whales[1] */\n      0x20\n      dup1\n      dup3\n      add\n      mload\n      sub(shl(0xa0, 0x01), 0x01)\n        /* \"bank.sol\":1738:1766  deposits[localTop3Whales[1]] */\n      and\n        /* \"bank.sol\":1738:1746  deposits */\n      0x00\n        /* \"bank.sol\":1738:1766  deposits[localTop3Whales[1]] */\n      swap1\n      dup2\n      mstore\n      swap1\n      dup2\n      swap1\n      mstore\n      0x40\n      swap1\n      keccak256\n      sload\n        /* \"bank.sol\":1714:1766  currentAccountDeposit < deposits[localTop3Whales[1]] */\n      dup3\n      lt\n        /* \"bank.sol\":1658:1766  currentAccountDeposit > deposits[localTop3Whales[2]] && currentAccountDeposit < deposits[localTop3Whales[1]] */\n    tag_71:\n        /* \"bank.sol\":1654:1821  if (currentAccountDeposit > deposits[localTop3Whales[2]] && currentAccountDeposit < deposits[localTop3Whales[1]]) {... */\n      iszero\n      tag_74\n      jumpi\n      sub(shl(0xa0, 0x01), 0x01)\n        /* \"bank.sol\":1782:1810  localTop3Whales[2] = account */\n      dup5\n      and\n        /* \"bank.sol\":1782:1800  localTop3Whales[2] */\n      0x40\n      dup3\n      add\n        /* \"bank.sol\":1782:1810  localTop3Whales[2] = account */\n      mstore\n        /* \"bank.sol\":1654:1821  if (currentAccountDeposit > deposits[localTop3Whales[2]] && currentAccountDeposit < deposits[localTop3Whales[1]]) {... */\n    tag_74:\n        /* \"bank.sol\":1830:1858  top3Whales = localTop3Whales */\n      tag_77\n        /* \"bank.sol\":1830:1840  top3Whales */\n      0x01\n        /* \"bank.sol\":1843:1858  localTop3Whales */\n      dup3\n        /* \"bank.sol\":1830:1858  top3Whales = localTop3Whales */\n      0x03\n      tag_78\n      jump\t// in\n    tag_77:\n      pop\n        /* \"bank.sol\":1046:1865  {... */\n      pop\n      pop\n        /* \"bank.sol\":991:1865  function deposit(address account, uint amount) private {... */\n      pop\n      pop\n      jump\t// out\n        /* \"bank.sol\":184:212  address[3] public top3Whales */\n    tag_18:\n      0x01\n      dup2\n      0x03\n      dup2\n      lt\n      tag_79\n      jumpi\n      0x00\n      dup1\n      revert\n    tag_79:\n      add\n      sload\n      sub(shl(0xa0, 0x01), 0x01)\n      and\n      swap1\n      pop\n      dup2\n      jump\t// out\n        /* \"bank.sol\":600:985  function withdraw() public {... */\n    tag_23:\n        /* \"bank.sol\":645:655  msg.sender */\n      caller\n      sub(shl(0xa0, 0x01), 0x01)\n        /* \"bank.sol\":659:664  admin */\n      immutable(\"0x277ab82e5a4641341820a4a2933a62c1de997e42e92548657ae21b3728d580fe\")\n        /* \"bank.sol\":645:664  msg.sender == admin */\n      and\n      eq\n        /* \"bank.sol\":637:721  require(msg.sender == admin, \"Only the administrator can withdraw all the deposits\") */\n      tag_82\n      jumpi\n      mload(0x40)\n      shl(0xe5, 0x461bcd)\n      dup2\n      mstore\n        /* \"#utility.yul\":2073:2075   */\n      0x20\n        /* \"bank.sol\":637:721  require(msg.sender == admin, \"Only the administrator can withdraw all the deposits\") */\n      0x04\n      dup3\n      add\n        /* \"#utility.yul\":2055:2076   */\n      mstore\n        /* \"#utility.yul\":2112:2114   */\n      0x34\n        /* \"#utility.yul\":2092:2110   */\n      0x24\n      dup3\n      add\n        /* \"#utility.yul\":2085:2115   */\n      mstore\n        /* \"#utility.yul\":2151:2185   */\n      0x4f6e6c79207468652061646d696e6973747261746f722063616e207769746864\n        /* \"#utility.yul\":2131:2149   */\n      0x44\n      dup3\n      add\n        /* \"#utility.yul\":2124:2186   */\n      mstore\n      shl(0x60, 0x72617720616c6c20746865206465706f73697473)\n        /* \"#utility.yul\":2202:2220   */\n      0x64\n      dup3\n      add\n        /* \"#utility.yul\":2195:2245   */\n      mstore\n        /* \"#utility.yul\":2262:2281   */\n      0x84\n      add\n        /* \"bank.sol\":637:721  require(msg.sender == admin, \"Only the administrator can withdraw all the deposits\") */\n    tag_83:\n      mload(0x40)\n      dup1\n      swap2\n      sub\n      swap1\n      revert\n    tag_82:\n        /* \"bank.sol\":754:775  address(this).balance */\n      selfbalance\n        /* \"bank.sol\":793:812  depositsBalance > 0 */\n      dup1\n        /* \"bank.sol\":785:847  require(depositsBalance > 0, \"No balance remains to withdraw\") */\n      tag_85\n      jumpi\n      mload(0x40)\n      shl(0xe5, 0x461bcd)\n      dup2\n      mstore\n        /* \"#utility.yul\":2494:2496   */\n      0x20\n        /* \"bank.sol\":785:847  require(depositsBalance > 0, \"No balance remains to withdraw\") */\n      0x04\n      dup3\n      add\n        /* \"#utility.yul\":2476:2497   */\n      mstore\n        /* \"#utility.yul\":2533:2535   */\n      0x1e\n        /* \"#utility.yul\":2513:2531   */\n      0x24\n      dup3\n      add\n        /* \"#utility.yul\":2506:2536   */\n      mstore\n        /* \"#utility.yul\":2572:2604   */\n      0x4e6f2062616c616e63652072656d61696e7320746f2077697468647261770000\n        /* \"#utility.yul\":2552:2570   */\n      0x44\n      dup3\n      add\n        /* \"#utility.yul\":2545:2605   */\n      mstore\n        /* \"#utility.yul\":2622:2640   */\n      0x64\n      add\n        /* \"bank.sol\":785:847  require(depositsBalance > 0, \"No balance remains to withdraw\") */\n      tag_83\n        /* \"#utility.yul\":2292:2646   */\n      jump\n        /* \"bank.sol\":785:847  require(depositsBalance > 0, \"No balance remains to withdraw\") */\n    tag_85:\n        /* \"bank.sol\":858:870  bool success */\n      0x00\n        /* \"bank.sol\":875:880  admin */\n      immutable(\"0x277ab82e5a4641341820a4a2933a62c1de997e42e92548657ae21b3728d580fe\")\n      sub(shl(0xa0, 0x01), 0x01)\n        /* \"bank.sol\":875:885  admin.call */\n      and\n        /* \"bank.sol\":893:908  depositsBalance */\n      dup3\n        /* \"bank.sol\":875:913  admin.call{value: depositsBalance}(\"\") */\n      mload(0x40)\n      0x00\n      mload(0x40)\n      dup1\n      dup4\n      sub\n      dup2\n      dup6\n      dup8\n      gas\n      call\n      swap3\n      pop\n      pop\n      pop\n      returndatasize\n      dup1\n      0x00\n      dup2\n      eq\n      tag_92\n      jumpi\n      mload(0x40)\n      swap2\n      pop\n      and(add(returndatasize, 0x3f), not(0x1f))\n      dup3\n      add\n      0x40\n      mstore\n      returndatasize\n      dup3\n      mstore\n      returndatasize\n      0x00\n      0x20\n      dup5\n      add\n      returndatacopy\n      jump(tag_91)\n    tag_92:\n      0x60\n      swap2\n      pop\n    tag_91:\n      pop\n        /* \"bank.sol\":857:913  (bool success,) = admin.call{value: depositsBalance}(\"\") */\n      pop\n      swap1\n      pop\n        /* \"bank.sol\":931:938  success */\n      dup1\n        /* \"bank.sol\":923:978  require(success, \"Failed to withdraw all the deposits\") */\n      tag_93\n      jumpi\n      mload(0x40)\n      shl(0xe5, 0x461bcd)\n      dup2\n      mstore\n        /* \"#utility.yul\":3063:3065   */\n      0x20\n        /* \"bank.sol\":923:978  require(success, \"Failed to withdraw all the deposits\") */\n      0x04\n      dup3\n      add\n        /* \"#utility.yul\":3045:3066   */\n      mstore\n        /* \"#utility.yul\":3102:3104   */\n      0x23\n        /* \"#utility.yul\":3082:3100   */\n      0x24\n      dup3\n      add\n        /* \"#utility.yul\":3075:3105   */\n      mstore\n        /* \"#utility.yul\":3141:3175   */\n      0x4661696c656420746f20776974686472617720616c6c20746865206465706f73\n        /* \"#utility.yul\":3121:3139   */\n      0x44\n      dup3\n      add\n        /* \"#utility.yul\":3114:3176   */\n      mstore\n      shl(0xe8, 0x697473)\n        /* \"#utility.yul\":3192:3210   */\n      0x64\n      dup3\n      add\n        /* \"#utility.yul\":3185:3218   */\n      mstore\n        /* \"#utility.yul\":3235:3254   */\n      0x84\n      add\n        /* \"bank.sol\":923:978  require(success, \"Failed to withdraw all the deposits\") */\n      tag_83\n        /* \"#utility.yul\":2861:3260   */\n      jump\n        /* \"bank.sol\":923:978  require(success, \"Failed to withdraw all the deposits\") */\n    tag_93:\n        /* \"bank.sol\":627:985  {... */\n      pop\n      pop\n        /* \"bank.sol\":600:985  function withdraw() public {... */\n      jump\t// out\n        /* \"bank.sol\":328:594  function getTop3Whales() public view returns(Whale[3] memory whales) {... */\n    tag_26:\n        /* \"bank.sol\":373:395  Whale[3] memory whales */\n      tag_96\n      tag_97\n      jump\t// in\n    tag_96:\n        /* \"bank.sol\":411:418  uint8 i */\n      0x00\n        /* \"bank.sol\":407:588  for(uint8 i = 0; i < 3; i++) {... */\n    tag_99:\n        /* \"bank.sol\":428:429  3 */\n      0x03\n        /* \"bank.sol\":424:425  i */\n      dup2\n        /* \"bank.sol\":424:429  i < 3 */\n      0xff\n      and\n      lt\n        /* \"bank.sol\":407:588  for(uint8 i = 0; i < 3; i++) {... */\n      iszero\n      tag_100\n      jumpi\n        /* \"bank.sol\":462:577  Whale({... */\n      mload(0x40)\n      dup1\n      0x40\n      add\n      0x40\n      mstore\n      dup1\n        /* \"bank.sol\":492:502  top3Whales */\n      0x01\n        /* \"bank.sol\":503:504  i */\n      dup4\n        /* \"bank.sol\":492:505  top3Whales[i] */\n      0xff\n      and\n      0x03\n      dup2\n      lt\n      tag_103\n      jumpi\n      tag_103\n      tag_43\n      jump\t// in\n    tag_103:\n      add\n      sload\n      sub(shl(0xa0, 0x01), 0x01)\n      and\n        /* \"bank.sol\":462:577  Whale({... */\n      dup2\n      mstore\n      0x20\n      add\n        /* \"bank.sol\":492:505  top3Whales[i] */\n      0x00\n      dup1\n      0x01\n        /* \"bank.sol\":548:561  top3Whales[i] */\n      0xff\n      dup7\n      and\n      0x03\n      dup2\n      lt\n      tag_106\n      jumpi\n      tag_106\n      tag_43\n      jump\t// in\n    tag_106:\n      add\n      sload\n      sub(shl(0xa0, 0x01), 0x01)\n      and\n        /* \"bank.sol\":539:562  deposits[top3Whales[i]] */\n      dup2\n      mstore\n      0x20\n      dup2\n      add\n      swap2\n      swap1\n      swap2\n      mstore\n      0x40\n      add\n        /* \"bank.sol\":548:561  top3Whales[i] */\n      0x00\n        /* \"bank.sol\":539:562  deposits[top3Whales[i]] */\n      keccak256\n      sload\n        /* \"bank.sol\":462:577  Whale({... */\n      swap1\n      mstore\n        /* \"bank.sol\":450:456  whales */\n      dup3\n        /* \"bank.sol\":450:459  whales[i] */\n      0xff\n      dup4\n      and\n      0x03\n      dup2\n      lt\n      tag_109\n      jumpi\n      tag_109\n      tag_43\n      jump\t// in\n    tag_109:\n      0x20\n      mul\n      add\n        /* \"bank.sol\":450:577  whales[i] = Whale({... */\n      mstore\n        /* \"bank.sol\":431:434  i++ */\n      0x01\n      add\n        /* \"bank.sol\":407:588  for(uint8 i = 0; i < 3; i++) {... */\n      jump(tag_99)\n    tag_100:\n      pop\n        /* \"bank.sol\":328:594  function getTop3Whales() public view returns(Whale[3] memory whales) {... */\n      swap1\n      jump\t// out\n    tag_78:\n      dup3\n      0x03\n      dup2\n      add\n      swap3\n      dup3\n      iszero\n      tag_112\n      jumpi\n      swap2\n      0x20\n      mul\n      dup3\n      add\n    tag_111:\n      dup3\n      dup2\n      gt\n      iszero\n      tag_112\n      jumpi\n      dup3\n      mload\n      dup3\n      sload\n      not(sub(shl(0xa0, 0x01), 0x01))\n      and\n      sub(shl(0xa0, 0x01), 0x01)\n      swap1\n      swap2\n      and\n      or\n      dup3\n      sstore\n      0x20\n      swap1\n      swap3\n      add\n      swap2\n      0x01\n      swap1\n      swap2\n      add\n      swap1\n      jump(tag_111)\n    tag_112:\n      pop\n      tag_100\n      swap3\n      swap2\n      pop\n      tag_114\n      jump\t// in\n    tag_97:\n      mload(0x40)\n      dup1\n      0x60\n      add\n      0x40\n      mstore\n      dup1\n      0x03\n      swap1\n    tag_115:\n      0x40\n      dup1\n      mload\n      dup1\n      dup3\n      add\n      swap1\n      swap2\n      mstore\n      0x00\n      dup1\n      dup3\n      mstore\n      0x20\n      dup3\n      add\n      mstore\n      dup2\n      mstore\n      0x20\n      add\n      swap1\n      0x01\n      swap1\n      sub\n      swap1\n      dup2\n      tag_115\n      jumpi\n      swap1\n      pop\n      pop\n      swap1\n      jump\t// out\n    tag_114:\n    tag_118:\n      dup1\n      dup3\n      gt\n      iszero\n      tag_100\n      jumpi\n      0x00\n      dup2\n      sstore\n      0x01\n      add\n      jump(tag_118)\n        /* \"#utility.yul\":14:194   */\n    tag_17:\n        /* \"#utility.yul\":73:79   */\n      0x00\n        /* \"#utility.yul\":126:128   */\n      0x20\n        /* \"#utility.yul\":114:123   */\n      dup3\n        /* \"#utility.yul\":105:112   */\n      dup5\n        /* \"#utility.yul\":101:124   */\n      sub\n        /* \"#utility.yul\":97:129   */\n      slt\n        /* \"#utility.yul\":94:146   */\n      iszero\n      tag_122\n      jumpi\n        /* \"#utility.yul\":142:143   */\n      0x00\n        /* \"#utility.yul\":139:140   */\n      dup1\n        /* \"#utility.yul\":132:144   */\n      revert\n        /* \"#utility.yul\":94:146   */\n    tag_122:\n      pop\n        /* \"#utility.yul\":165:188   */\n      calldataload\n      swap2\n        /* \"#utility.yul\":14:194   */\n      swap1\n      pop\n      jump\t// out\n        /* \"#utility.yul\":407:1034   */\n    tag_28:\n        /* \"#utility.yul\":627:630   */\n      0xc0\n        /* \"#utility.yul\":612:631   */\n      dup2\n      add\n        /* \"#utility.yul\":616:625   */\n      dup2\n        /* \"#utility.yul\":708:714   */\n      dup4\n        /* \"#utility.yul\":585:589   */\n      0x00\n        /* \"#utility.yul\":742:1028   */\n    tag_125:\n        /* \"#utility.yul\":756:760   */\n      0x03\n        /* \"#utility.yul\":753:754   */\n      dup2\n        /* \"#utility.yul\":750:761   */\n      lt\n        /* \"#utility.yul\":742:1028   */\n      iszero\n      tag_127\n      jumpi\n        /* \"#utility.yul\":813:826   */\n      dup2\n      mload\n        /* \"#utility.yul\":855:864   */\n      dup1\n      mload\n      sub(shl(0xa0, 0x01), 0x01)\n        /* \"#utility.yul\":851:886   */\n      and\n        /* \"#utility.yul\":839:887   */\n      dup5\n      mstore\n        /* \"#utility.yul\":937:941   */\n      0x20\n        /* \"#utility.yul\":929:942   */\n      swap1\n      dup2\n      add\n        /* \"#utility.yul\":923:943   */\n      mload\n        /* \"#utility.yul\":907:921   */\n      dup2\n      dup6\n      add\n        /* \"#utility.yul\":900:944   */\n      mstore\n        /* \"#utility.yul\":973:977   */\n      0x40\n        /* \"#utility.yul\":964:978   */\n      swap1\n      swap4\n      add\n      swap3\n        /* \"#utility.yul\":1001:1018   */\n      swap1\n      swap2\n      add\n      swap1\n        /* \"#utility.yul\":883:884   */\n      0x01\n        /* \"#utility.yul\":769:778   */\n      add\n        /* \"#utility.yul\":742:1028   */\n      jump(tag_125)\n    tag_127:\n        /* \"#utility.yul\":746:749   */\n      pop\n      pop\n      pop\n        /* \"#utility.yul\":407:1034   */\n      swap3\n      swap2\n      pop\n      pop\n      jump\t// out\n        /* \"#utility.yul\":1039:1325   */\n    tag_32:\n        /* \"#utility.yul\":1098:1104   */\n      0x00\n        /* \"#utility.yul\":1151:1153   */\n      0x20\n        /* \"#utility.yul\":1139:1148   */\n      dup3\n        /* \"#utility.yul\":1130:1137   */\n      dup5\n        /* \"#utility.yul\":1126:1149   */\n      sub\n        /* \"#utility.yul\":1122:1154   */\n      slt\n        /* \"#utility.yul\":1119:1171   */\n      iszero\n      tag_129\n      jumpi\n        /* \"#utility.yul\":1167:1168   */\n      0x00\n        /* \"#utility.yul\":1164:1165   */\n      dup1\n        /* \"#utility.yul\":1157:1169   */\n      revert\n        /* \"#utility.yul\":1119:1171   */\n    tag_129:\n        /* \"#utility.yul\":1193:1216   */\n      dup2\n      calldataload\n      sub(shl(0xa0, 0x01), 0x01)\n        /* \"#utility.yul\":1245:1276   */\n      dup2\n      and\n        /* \"#utility.yul\":1235:1277   */\n      dup2\n      eq\n        /* \"#utility.yul\":1225:1295   */\n      tag_130\n      jumpi\n        /* \"#utility.yul\":1291:1292   */\n      0x00\n        /* \"#utility.yul\":1288:1289   */\n      dup1\n        /* \"#utility.yul\":1281:1293   */\n      revert\n        /* \"#utility.yul\":1225:1295   */\n    tag_130:\n        /* \"#utility.yul\":1314:1319   */\n      swap4\n        /* \"#utility.yul\":1039:1325   */\n      swap3\n      pop\n      pop\n      pop\n      jump\t// out\n        /* \"#utility.yul\":1512:1734   */\n    tag_38:\n        /* \"#utility.yul\":1577:1586   */\n      dup1\n      dup3\n      add\n        /* \"#utility.yul\":1598:1608   */\n      dup1\n      dup3\n      gt\n        /* \"#utility.yul\":1595:1728   */\n      iszero\n      tag_133\n      jumpi\n        /* \"#utility.yul\":1650:1660   */\n      0x4e487b71\n        /* \"#utility.yul\":1645:1648   */\n      0xe0\n        /* \"#utility.yul\":1641:1661   */\n      shl\n        /* \"#utility.yul\":1638:1639   */\n      0x00\n        /* \"#utility.yul\":1631:1662   */\n      mstore\n        /* \"#utility.yul\":1685:1689   */\n      0x11\n        /* \"#utility.yul\":1682:1683   */\n      0x04\n        /* \"#utility.yul\":1675:1690   */\n      mstore\n        /* \"#utility.yul\":1713:1717   */\n      0x24\n        /* \"#utility.yul\":1710:1711   */\n      0x00\n        /* \"#utility.yul\":1703:1718   */\n      revert\n        /* \"#utility.yul\":1595:1728   */\n    tag_133:\n        /* \"#utility.yul\":1512:1734   */\n      swap3\n      swap2\n      pop\n      pop\n      jump\t// out\n        /* \"#utility.yul\":1739:1866   */\n    tag_43:\n        /* \"#utility.yul\":1800:1810   */\n      0x4e487b71\n        /* \"#utility.yul\":1795:1798   */\n      0xe0\n        /* \"#utility.yul\":1791:1811   */\n      shl\n        /* \"#utility.yul\":1788:1789   */\n      0x00\n        /* \"#utility.yul\":1781:1812   */\n      mstore\n        /* \"#utility.yul\":1831:1835   */\n      0x32\n        /* \"#utility.yul\":1828:1829   */\n      0x04\n        /* \"#utility.yul\":1821:1836   */\n      mstore\n        /* \"#utility.yul\":1855:1859   */\n      0x24\n        /* \"#utility.yul\":1852:1853   */\n      0x00\n        /* \"#utility.yul\":1845:1860   */\n      revert\n\n    auxdata: 0xa26469706673582212204bfda8c7e49cde3d4e19e30f59b2cbb4bcae9ab15a199894782f58d534aefd3264736f6c634300081a0033\n}\n",
				"bytecode": {
					"linkReferences": {},
					"object": "60a0604052348015600e575f80fd5b50336080526080516106da6100325f395f81816102f401526103d401526106da5ff3fe608060405260043610610042575f3560e01c8063103743091461005d5780633ccfd60b14610099578063af7364a2146100ad578063fc7e286d146100ce57610053565b36610053576100513334610107565b005b6100513334610107565b348015610068575f80fd5b5061007c6100773660046105e2565b6102ca565b6040516001600160a01b0390911681526020015b60405180910390f35b3480156100a4575f80fd5b506100516102e9565b3480156100b8575f80fd5b506100c16104a0565b60405161009091906105f9565b3480156100d9575f80fd5b506100f96100e836600461063e565b5f6020819052908152604090205481565b604051908152602001610090565b6001600160a01b0382165f908152602081905260408120805483929061012e90849061066b565b90915550506001600160a01b0382165f90815260208190526040808220548151606081019283905290929160019060039082845b81546001600160a01b0316815260019091019060200180831161016257505050505090505f80825f6003811061019a5761019a610690565b60200201516001600160a01b03166001600160a01b031681526020019081526020015f20548211156101fd576020810180516001600160a01b039081166040840152825116905283815f5b6001600160a01b0390921660209290920201526102b6565b6020808201516001600160a01b03165f9081529081905260409020548211801561023e575080516001600160a01b03165f9081526020819052604090205482105b1561025f5760208101516001600160a01b03166040820152838160016101e5565b6040808201516001600160a01b03165f90815260208190522054821180156102a157506020808201516001600160a01b03165f90815290819052604090205482105b156102b6576001600160a01b03841660408201525b6102c36001826003610542565b5050505050565b600181600381106102d9575f80fd5b01546001600160a01b0316905081565b336001600160a01b037f000000000000000000000000000000000000000000000000000000000000000016146103835760405162461bcd60e51b815260206004820152603460248201527f4f6e6c79207468652061646d696e6973747261746f722063616e20776974686460448201527372617720616c6c20746865206465706f7369747360601b60648201526084015b60405180910390fd5b47806103d15760405162461bcd60e51b815260206004820152601e60248201527f4e6f2062616c616e63652072656d61696e7320746f2077697468647261770000604482015260640161037a565b5f7f00000000000000000000000000000000000000000000000000000000000000006001600160a01b0316826040515f6040518083038185875af1925050503d805f811461043a576040519150601f19603f3d011682016040523d82523d5f602084013e61043f565b606091505b505090508061049c5760405162461bcd60e51b815260206004820152602360248201527f4661696c656420746f20776974686472617720616c6c20746865206465706f7360448201526269747360e81b606482015260840161037a565b5050565b6104a8610596565b5f5b60038160ff16101561053e57604051806040016040528060018360ff16600381106104d7576104d7610690565b01546001600160a01b031681526020015f80600160ff8616600381106104ff576104ff610690565b01546001600160a01b0316815260208101919091526040015f205490528260ff83166003811061053157610531610690565b60200201526001016104aa565b5090565b826003810192821561058a579160200282015b8281111561058a57825182546001600160a01b0319166001600160a01b03909116178255602090920191600190910190610555565b5061053e9291506105ce565b60405180606001604052806003905b604080518082019091525f80825260208201528152602001906001900390816105a55790505090565b5b8082111561053e575f81556001016105cf565b5f602082840312156105f2575f80fd5b5035919050565b60c0810181835f5b600381101561063557815180516001600160a01b031684526020908101518185015260409093019290910190600101610601565b50505092915050565b5f6020828403121561064e575f80fd5b81356001600160a01b0381168114610664575f80fd5b9392505050565b8082018082111561068a57634e487b7160e01b5f52601160045260245ffd5b92915050565b634e487b7160e01b5f52603260045260245ffdfea26469706673582212204bfda8c7e49cde3d4e19e30f59b2cbb4bcae9ab15a199894782f58d534aefd3264736f6c634300081a0033",
					"opcodes": "PUSH1 0xA0 PUSH1 0x40 MSTORE CALLVALUE DUP1 ISZERO PUSH1 0xE JUMPI PUSH0 DUP1 REVERT JUMPDEST POP CALLER PUSH1 0x80 MSTORE PUSH1 0x80 MLOAD PUSH2 0x6DA PUSH2 0x32 PUSH0 CODECOPY PUSH0 DUP2 DUP2 PUSH2 0x2F4 ADD MSTORE PUSH2 0x3D4 ADD MSTORE PUSH2 0x6DA PUSH0 RETURN INVALID PUSH1 0x80 PUSH1 0x40 MSTORE PUSH1 0x4 CALLDATASIZE LT PUSH2 0x42 JUMPI PUSH0 CALLDATALOAD PUSH1 0xE0 SHR DUP1 PUSH4 0x10374309 EQ PUSH2 0x5D JUMPI DUP1 PUSH4 0x3CCFD60B EQ PUSH2 0x99 JUMPI DUP1 PUSH4 0xAF7364A2 EQ PUSH2 0xAD JUMPI DUP1 PUSH4 0xFC7E286D EQ PUSH2 0xCE JUMPI PUSH2 0x53 JUMP JUMPDEST CALLDATASIZE PUSH2 0x53 JUMPI PUSH2 0x51 CALLER CALLVALUE PUSH2 0x107 JUMP JUMPDEST STOP JUMPDEST PUSH2 0x51 CALLER CALLVALUE PUSH2 0x107 JUMP JUMPDEST CALLVALUE DUP1 ISZERO PUSH2 0x68 JUMPI PUSH0 DUP1 REVERT JUMPDEST POP PUSH2 0x7C PUSH2 0x77 CALLDATASIZE PUSH1 0x4 PUSH2 0x5E2 JUMP JUMPDEST PUSH2 0x2CA JUMP JUMPDEST PUSH1 0x40 MLOAD PUSH1 0x1 PUSH1 0x1 PUSH1 0xA0 SHL SUB SWAP1 SWAP2 AND DUP2 MSTORE PUSH1 0x20 ADD JUMPDEST PUSH1 0x40 MLOAD DUP1 SWAP2 SUB SWAP1 RETURN JUMPDEST CALLVALUE DUP1 ISZERO PUSH2 0xA4 JUMPI PUSH0 DUP1 REVERT JUMPDEST POP PUSH2 0x51 PUSH2 0x2E9 JUMP JUMPDEST CALLVALUE DUP1 ISZERO PUSH2 0xB8 JUMPI PUSH0 DUP1 REVERT JUMPDEST POP PUSH2 0xC1 PUSH2 0x4A0 JUMP JUMPDEST PUSH1 0x40 MLOAD PUSH2 0x90 SWAP2 SWAP1 PUSH2 0x5F9 JUMP JUMPDEST CALLVALUE DUP1 ISZERO PUSH2 0xD9 JUMPI PUSH0 DUP1 REVERT JUMPDEST POP PUSH2 0xF9 PUSH2 0xE8 CALLDATASIZE PUSH1 0x4 PUSH2 0x63E JUMP JUMPDEST PUSH0 PUSH1 0x20 DUP2 SWAP1 MSTORE SWAP1 DUP2 MSTORE PUSH1 0x40 SWAP1 KECCAK256 SLOAD DUP2 JUMP JUMPDEST PUSH1 0x40 MLOAD SWAP1 DUP2 MSTORE PUSH1 0x20 ADD PUSH2 0x90 JUMP JUMPDEST PUSH1 0x1 PUSH1 0x1 PUSH1 0xA0 SHL SUB DUP3 AND PUSH0 SWAP1 DUP2 MSTORE PUSH1 0x20 DUP2 SWAP1 MSTORE PUSH1 0x40 DUP2 KECCAK256 DUP1 SLOAD DUP4 SWAP3 SWAP1 PUSH2 0x12E SWAP1 DUP5 SWAP1 PUSH2 0x66B JUMP JUMPDEST SWAP1 SWAP2 SSTORE POP POP PUSH1 0x1 PUSH1 0x1 PUSH1 0xA0 SHL SUB DUP3 AND PUSH0 SWAP1 DUP2 MSTORE PUSH1 0x20 DUP2 SWAP1 MSTORE PUSH1 0x40 DUP1 DUP3 KECCAK256 SLOAD DUP2 MLOAD PUSH1 0x60 DUP2 ADD SWAP3 DUP4 SWAP1 MSTORE SWAP1 SWAP3 SWAP2 PUSH1 0x1 SWAP1 PUSH1 0x3 SWAP1 DUP3 DUP5 JUMPDEST DUP2 SLOAD PUSH1 0x1 PUSH1 0x1 PUSH1 0xA0 SHL SUB AND DUP2 MSTORE PUSH1 0x1 SWAP1 SWAP2 ADD SWAP1 PUSH1 0x20 ADD DUP1 DUP4 GT PUSH2 0x162 JUMPI POP POP POP POP POP SWAP1 POP PUSH0 DUP1 DUP3 PUSH0 PUSH1 0x3 DUP2 LT PUSH2 0x19A JUMPI PUSH2 0x19A PUSH2 0x690 JUMP JUMPDEST PUSH1 0x20 MUL ADD MLOAD PUSH1 0x1 PUSH1 0x1 PUSH1 0xA0 SHL SUB AND PUSH1 0x1 PUSH1 0x1 PUSH1 0xA0 SHL SUB AND DUP2 MSTORE PUSH1 0x20 ADD SWAP1 DUP2 MSTORE PUSH1 0x20 ADD PUSH0 KECCAK256 SLOAD DUP3 GT ISZERO PUSH2 0x1FD JUMPI PUSH1 0x20 DUP2 ADD DUP1 MLOAD PUSH1 0x1 PUSH1 0x1 PUSH1 0xA0 SHL SUB SWAP1 DUP2 AND PUSH1 0x40 DUP5 ADD MSTORE DUP3 MLOAD AND SWAP1 MSTORE DUP4 DUP2 PUSH0 JUMPDEST PUSH1 0x1 PUSH1 0x1 PUSH1 0xA0 SHL SUB SWAP1 SWAP3 AND PUSH1 0x20 SWAP3 SWAP1 SWAP3 MUL ADD MSTORE PUSH2 0x2B6 JUMP JUMPDEST PUSH1 0x20 DUP1 DUP3 ADD MLOAD PUSH1 0x1 PUSH1 0x1 PUSH1 0xA0 SHL SUB AND PUSH0 SWAP1 DUP2 MSTORE SWAP1 DUP2 SWAP1 MSTORE PUSH1 0x40 SWAP1 KECCAK256 SLOAD DUP3 GT DUP1 ISZERO PUSH2 0x23E JUMPI POP DUP1 MLOAD PUSH1 0x1 PUSH1 0x1 PUSH1 0xA0 SHL SUB AND PUSH0 SWAP1 DUP2 MSTORE PUSH1 0x20 DUP2 SWAP1 MSTORE PUSH1 0x40 SWAP1 KECCAK256 SLOAD DUP3 LT JUMPDEST ISZERO PUSH2 0x25F JUMPI PUSH1 0x20 DUP2 ADD MLOAD PUSH1 0x1 PUSH1 0x1 PUSH1 0xA0 SHL SUB AND PUSH1 0x40 DUP3 ADD MSTORE DUP4 DUP2 PUSH1 0x1 PUSH2 0x1E5 JUMP JUMPDEST PUSH1 0x40 DUP1 DUP3 ADD MLOAD PUSH1 0x1 PUSH1 0x1 PUSH1 0xA0 SHL SUB AND PUSH0 SWAP1 DUP2 MSTORE PUSH1 0x20 DUP2 SWAP1 MSTORE KECCAK256 SLOAD DUP3 GT DUP1 ISZERO PUSH2 0x2A1 JUMPI POP PUSH1 0x20 DUP1 DUP3 ADD MLOAD PUSH1 0x1 PUSH1 0x1 PUSH1 0xA0 SHL SUB AND PUSH0 SWAP1 DUP2 MSTORE SWAP1 DUP2 SWAP1 MSTORE PUSH1 0x40 SWAP1 KECCAK256 SLOAD DUP3 LT JUMPDEST ISZERO PUSH2 0x2B6 JUMPI PUSH1 0x1 PUSH1 0x1 PUSH1 0xA0 SHL SUB DUP5 AND PUSH1 0x40 DUP3 ADD MSTORE JUMPDEST PUSH2 0x2C3 PUSH1 0x1 DUP3 PUSH1 0x3 PUSH2 0x542 JUMP JUMPDEST POP POP POP POP POP JUMP JUMPDEST PUSH1 0x1 DUP2 PUSH1 0x3 DUP2 LT PUSH2 0x2D9 JUMPI PUSH0 DUP1 REVERT JUMPDEST ADD SLOAD PUSH1 0x1 PUSH1 0x1 PUSH1 0xA0 SHL SUB AND SWAP1 POP DUP2 JUMP JUMPDEST CALLER PUSH1 0x1 PUSH1 0x1 PUSH1 0xA0 SHL SUB PUSH32 0x0 AND EQ PUSH2 0x383 JUMPI PUSH1 0x40 MLOAD PUSH3 0x461BCD PUSH1 0xE5 SHL DUP2 MSTORE PUSH1 0x20 PUSH1 0x4 DUP3 ADD MSTORE PUSH1 0x34 PUSH1 0x24 DUP3 ADD MSTORE PUSH32 0x4F6E6C79207468652061646D696E6973747261746F722063616E207769746864 PUSH1 0x44 DUP3 ADD MSTORE PUSH20 0x72617720616C6C20746865206465706F73697473 PUSH1 0x60 SHL PUSH1 0x64 DUP3 ADD MSTORE PUSH1 0x84 ADD JUMPDEST PUSH1 0x40 MLOAD DUP1 SWAP2 SUB SWAP1 REVERT JUMPDEST SELFBALANCE DUP1 PUSH2 0x3D1 JUMPI PUSH1 0x40 MLOAD PUSH3 0x461BCD PUSH1 0xE5 SHL DUP2 MSTORE PUSH1 0x20 PUSH1 0x4 DUP3 ADD MSTORE PUSH1 0x1E PUSH1 0x24 DUP3 ADD MSTORE PUSH32 0x4E6F2062616C616E63652072656D61696E7320746F2077697468647261770000 PUSH1 0x44 DUP3 ADD MSTORE PUSH1 0x64 ADD PUSH2 0x37A JUMP JUMPDEST PUSH0 PUSH32 0x0 PUSH1 0x1 PUSH1 0x1 PUSH1 0xA0 SHL SUB AND DUP3 PUSH1 0x40 MLOAD PUSH0 PUSH1 0x40 MLOAD DUP1 DUP4 SUB DUP2 DUP6 DUP8 GAS CALL SWAP3 POP POP POP RETURNDATASIZE DUP1 PUSH0 DUP2 EQ PUSH2 0x43A JUMPI PUSH1 0x40 MLOAD SWAP2 POP PUSH1 0x1F NOT PUSH1 0x3F RETURNDATASIZE ADD AND DUP3 ADD PUSH1 0x40 MSTORE RETURNDATASIZE DUP3 MSTORE RETURNDATASIZE PUSH0 PUSH1 0x20 DUP5 ADD RETURNDATACOPY PUSH2 0x43F JUMP JUMPDEST PUSH1 0x60 SWAP2 POP JUMPDEST POP POP SWAP1 POP DUP1 PUSH2 0x49C JUMPI PUSH1 0x40 MLOAD PUSH3 0x461BCD PUSH1 0xE5 SHL DUP2 MSTORE PUSH1 0x20 PUSH1 0x4 DUP3 ADD MSTORE PUSH1 0x23 PUSH1 0x24 DUP3 ADD MSTORE PUSH32 0x4661696C656420746F20776974686472617720616C6C20746865206465706F73 PUSH1 0x44 DUP3 ADD MSTORE PUSH3 0x697473 PUSH1 0xE8 SHL PUSH1 0x64 DUP3 ADD MSTORE PUSH1 0x84 ADD PUSH2 0x37A JUMP JUMPDEST POP POP JUMP JUMPDEST PUSH2 0x4A8 PUSH2 0x596 JUMP JUMPDEST PUSH0 JUMPDEST PUSH1 0x3 DUP2 PUSH1 0xFF AND LT ISZERO PUSH2 0x53E JUMPI PUSH1 0x40 MLOAD DUP1 PUSH1 0x40 ADD PUSH1 0x40 MSTORE DUP1 PUSH1 0x1 DUP4 PUSH1 0xFF AND PUSH1 0x3 DUP2 LT PUSH2 0x4D7 JUMPI PUSH2 0x4D7 PUSH2 0x690 JUMP JUMPDEST ADD SLOAD PUSH1 0x1 PUSH1 0x1 PUSH1 0xA0 SHL SUB AND DUP2 MSTORE PUSH1 0x20 ADD PUSH0 DUP1 PUSH1 0x1 PUSH1 0xFF DUP7 AND PUSH1 0x3 DUP2 LT PUSH2 0x4FF JUMPI PUSH2 0x4FF PUSH2 0x690 JUMP JUMPDEST ADD SLOAD PUSH1 0x1 PUSH1 0x1 PUSH1 0xA0 SHL SUB AND DUP2 MSTORE PUSH1 0x20 DUP2 ADD SWAP2 SWAP1 SWAP2 MSTORE PUSH1 0x40 ADD PUSH0 KECCAK256 SLOAD SWAP1 MSTORE DUP3 PUSH1 0xFF DUP4 AND PUSH1 0x3 DUP2 LT PUSH2 0x531 JUMPI PUSH2 0x531 PUSH2 0x690 JUMP JUMPDEST PUSH1 0x20 MUL ADD MSTORE PUSH1 0x1 ADD PUSH2 0x4AA JUMP JUMPDEST POP SWAP1 JUMP JUMPDEST DUP3 PUSH1 0x3 DUP2 ADD SWAP3 DUP3 ISZERO PUSH2 0x58A JUMPI SWAP2 PUSH1 0x20 MUL DUP3 ADD JUMPDEST DUP3 DUP2 GT ISZERO PUSH2 0x58A JUMPI DUP3 MLOAD DUP3 SLOAD PUSH1 0x1 PUSH1 0x1 PUSH1 0xA0 SHL SUB NOT AND PUSH1 0x1 PUSH1 0x1 PUSH1 0xA0 SHL SUB SWAP1 SWAP2 AND OR DUP3 SSTORE PUSH1 0x20 SWAP1 SWAP3 ADD SWAP2 PUSH1 0x1 SWAP1 SWAP2 ADD SWAP1 PUSH2 0x555 JUMP JUMPDEST POP PUSH2 0x53E SWAP3 SWAP2 POP PUSH2 0x5CE JUMP JUMPDEST PUSH1 0x40 MLOAD DUP1 PUSH1 0x60 ADD PUSH1 0x40 MSTORE DUP1 PUSH1 0x3 SWAP1 JUMPDEST PUSH1 0x40 DUP1 MLOAD DUP1 DUP3 ADD SWAP1 SWAP2 MSTORE PUSH0 DUP1 DUP3 MSTORE PUSH1 0x20 DUP3 ADD MSTORE DUP2 MSTORE PUSH1 0x20 ADD SWAP1 PUSH1 0x1 SWAP1 SUB SWAP1 DUP2 PUSH2 0x5A5 JUMPI SWAP1 POP POP SWAP1 JUMP JUMPDEST JUMPDEST DUP1 DUP3 GT ISZERO PUSH2 0x53E JUMPI PUSH0 DUP2 SSTORE PUSH1 0x1 ADD PUSH2 0x5CF JUMP JUMPDEST PUSH0 PUSH1 0x20 DUP3 DUP5 SUB SLT ISZERO PUSH2 0x5F2 JUMPI PUSH0 DUP1 REVERT JUMPDEST POP CALLDATALOAD SWAP2 SWAP1 POP JUMP JUMPDEST PUSH1 0xC0 DUP2 ADD DUP2 DUP4 PUSH0 JUMPDEST PUSH1 0x3 DUP2 LT ISZERO PUSH2 0x635 JUMPI DUP2 MLOAD DUP1 MLOAD PUSH1 0x1 PUSH1 0x1 PUSH1 0xA0 SHL SUB AND DUP5 MSTORE PUSH1 0x20 SWAP1 DUP2 ADD MLOAD DUP2 DUP6 ADD MSTORE PUSH1 0x40 SWAP1 SWAP4 ADD SWAP3 SWAP1 SWAP2 ADD SWAP1 PUSH1 0x1 ADD PUSH2 0x601 JUMP JUMPDEST POP POP POP SWAP3 SWAP2 POP POP JUMP JUMPDEST PUSH0 PUSH1 0x20 DUP3 DUP5 SUB SLT ISZERO PUSH2 0x64E JUMPI PUSH0 DUP1 REVERT JUMPDEST DUP2 CALLDATALOAD PUSH1 0x1 PUSH1 0x1 PUSH1 0xA0 SHL SUB DUP2 AND DUP2 EQ PUSH2 0x664 JUMPI PUSH0 DUP1 REVERT JUMPDEST SWAP4 SWAP3 POP POP POP JUMP JUMPDEST DUP1 DUP3 ADD DUP1 DUP3 GT ISZERO PUSH2 0x68A JUMPI PUSH4 0x4E487B71 PUSH1 0xE0 SHL PUSH0 MSTORE PUSH1 0x11 PUSH1 0x4 MSTORE PUSH1 0x24 PUSH0 REVERT JUMPDEST SWAP3 SWAP2 POP POP JUMP JUMPDEST PUSH4 0x4E487B71 PUSH1 0xE0 SHL PUSH0 MSTORE PUSH1 0x32 PUSH1 0x4 MSTORE PUSH1 0x24 PUSH0 REVERT INVALID LOG2 PUSH5 0x6970667358 0x22 SLT KECCAK256 0x4B REVERT 0xA8 0xC7 0xE4 SWAP13 0xDE RETURNDATASIZE 0x4E NOT 0xE3 0xF MSIZE 0xB2 0xCB 0xB4 0xBC 0xAE SWAP11 0xB1 GAS NOT SWAP9 SWAP5 PUSH25 0x2F58D534AEFD3264736F6C634300081A003300000000000000 "
				},
				"gasEstimates": {
					"creation": {
						"codeDepositCost": "350800",
						"executionCost": "infinite",
						"totalCost": "infinite"
					},
					"external": {
						"": "infinite",
						"deposits(address)": "2528",
						"getTop3Whales()": "infinite",
						"top3Whales(uint256)": "2422",
						"withdraw()": "infinite"
					},
					"internal": {
						"deposit(address,uint256)": "infinite"
					}
				},
				"methodIdentifiers": {
					"deposits(address)": "fc7e286d",
					"getTop3Whales()": "af7364a2",
					"top3Whales(uint256)": "10374309",
					"withdraw()": "3ccfd60b"
				}
			},
			"storageLayout": {
				"storage": [
					{
						"astId": 10,
						"contract": "bank.sol:Bank",
						"label": "deposits",
						"offset": 0,
						"slot": "0",
						"type": "t_mapping(t_address,t_uint256)"
					},
					{
						"astId": 14,
						"contract": "bank.sol:Bank",
						"label": "top3Whales",
						"offset": 0,
						"slot": "1",
						"type": "t_array(t_address)3_storage"
					}
				],
				"types": {
					"t_address": {
						"encoding": "inplace",
						"label": "address",
						"numberOfBytes": "20"
					},
					"t_array(t_address)3_storage": {
						"base": "t_address",
						"encoding": "inplace",
						"label": "address[3]",
						"numberOfBytes": "96"
					},
					"t_mapping(t_address,t_uint256)": {
						"encoding": "mapping",
						"key": "t_address",
						"label": "mapping(address => uint256)",
						"numberOfBytes": "32",
						"value": "t_uint256"
					},
					"t_uint256": {
						"encoding": "inplace",
						"label": "uint256",
						"numberOfBytes": "32"
					}
				}
			},
			"userdoc": {
				"kind": "user",
				"methods": {},
				"version": 1
			}
		}
	}
}