{
	"data": {
		"bytecode": {
			"linkReferences": {},
			"object": "6080604052348015600e575f80fd5b506101048061001c5f395ff3fe6080604052348015600e575f80fd5b50600436106026575f3560e01c80633104562b14602a575b5f80fd5b6039603536600460b8565b603b565b005b333181111560b55760405162461bcd60e51b815260206004820152603760248201527f7468652076616c756520796f75206465706f73697465206d757374206265206c60448201527f6172676572207468616e20796f75722062616c616e6365000000000000000000606482015260840160405180910390fd5b50565b5f6020828403121560c7575f80fd5b503591905056fea26469706673582212209e73e9e4b52720f26deb35b3027666ca162b8ea6fc7b513a076a3e6c440a67bf64736f6c634300081a0033",
			"opcodes": "PUSH1 0x80 PUSH1 0x40 MSTORE CALLVALUE DUP1 ISZERO PUSH1 0xE JUMPI PUSH0 DUP1 REVERT JUMPDEST POP PUSH2 0x104 DUP1 PUSH2 0x1C PUSH0 CODECOPY PUSH0 RETURN INVALID PUSH1 0x80 PUSH1 0x40 MSTORE CALLVALUE DUP1 ISZERO PUSH1 0xE JUMPI PUSH0 DUP1 REVERT JUMPDEST POP PUSH1 0x4 CALLDATASIZE LT PUSH1 0x26 JUMPI PUSH0 CALLDATALOAD PUSH1 0xE0 SHR DUP1 PUSH4 0x3104562B EQ PUSH1 0x2A JUMPI JUMPDEST PUSH0 DUP1 REVERT JUMPDEST PUSH1 0x39 PUSH1 0x35 CALLDATASIZE PUSH1 0x4 PUSH1 0xB8 JUMP JUMPDEST PUSH1 0x3B JUMP JUMPDEST STOP JUMPDEST CALLER BALANCE DUP2 GT ISZERO PUSH1 0xB5 JUMPI PUSH1 0x40 MLOAD PUSH3 0x461BCD PUSH1 0xE5 SHL DUP2 MSTORE PUSH1 0x20 PUSH1 0x4 DUP3 ADD MSTORE PUSH1 0x37 PUSH1 0x24 DUP3 ADD MSTORE PUSH32 0x7468652076616C756520796F75206465706F73697465206D757374206265206C PUSH1 0x44 DUP3 ADD MSTORE PUSH32 0x6172676572207468616E20796F75722062616C616E6365000000000000000000 PUSH1 0x64 DUP3 ADD MSTORE PUSH1 0x84 ADD PUSH1 0x40 MLOAD DUP1 SWAP2 SUB SWAP1 REVERT JUMPDEST POP JUMP JUMPDEST PUSH0 PUSH1 0x20 DUP3 DUP5 SUB SLT ISZERO PUSH1 0xC7 JUMPI PUSH0 DUP1 REVERT JUMPDEST POP CALLDATALOAD SWAP2 SWAP1 POP JUMP INVALID LOG2 PUSH5 0x6970667358 0x22 SLT KECCAK256 SWAP15 PUSH20 0xE9E4B52720F26DEB35B3027666CA162B8EA6FC7B MLOAD GASPRICE SMOD PUSH11 0x3E6C440A67BF64736F6C63 NUMBER STOP ADDMOD BYTE STOP CALLER "
		},
		"gasEstimates": {
			"creation": {
				"codeDepositCost": "52000",
				"executionCost": "103",
				"totalCost": "52103"
			},
			"external": {
				"deposite(uint256)": "2935"
			}
		},
		"methodIdentifiers": {
			"deposite(uint256)": "3104562b"
		}
	},
	"abi": [
		{
			"inputs": [
				{
					"internalType": "uint256",
					"name": "value",
					"type": "uint256"
				}
			],
			"name": "deposite",
			"outputs": [],
			"stateMutability": "nonpayable",
			"type": "function"
		}
	]
}